:020000040800F2
:1000000000200020D94000080D4000080F400008E3
:1000100000000000000000000000000000000000E0
:100020000000000000000000000000001140000877
:100030000000000000000000134000081540000808
:1000400029410008294100082941000829410008E8
:10005000294100081D4000082740000831400008E1
:10006000000000003D400008294100082941000827
:100070004D40000829410008000000005D400008D4
:100080000000000000000000000000000000000070
:100090006D400008000000002941000829410008C7
:1000A00000000000294100080000000000000000DE
:1000B000294100082941000800000000000000005C
:1000C00010B5064C2378002B07D1054B002B02D02E
:1000D000044800E000BF0123237010BD040000208D
:1000E0000000000084410008044B10B5002B03D031
:1000F0000349044800E000BF10BDC04600000000F6
:100100000800002084410008002243088B4274D379
:1001100003098B425FD3030A8B4244D3030B8B4208
:1001200028D3030C8B420DD3FF22090212BA030C11
:100130008B4202D31212090265D0030B8B4219D3F2
:1001400000E0090AC30B8B4201D3CB03C01A524112
:10015000830B8B4201D38B03C01A5241430B8B425A
:1001600001D34B03C01A5241030B8B4201D30B0343
:10017000C01A5241C30A8B4201D3CB02C01A52416A
:10018000830A8B4201D38B02C01A5241430A8B422D
:1001900001D34B02C01A5241030A8B4201D30B0216
:1001A000C01A5241CDD2C3098B4201D3CB01C01A30
:1001B000524183098B4201D38B01C01A524143093A
:1001C0008B4201D34B01C01A524103098B4201D328
:1001D0000B01C01A5241C3088B4201D3CB00C01A95
:1001E000524183088B4201D38B00C01A524143080D
:1001F0008B4201D34B00C01A5241411A00D2014632
:10020000524110467047FFE701B5002000F0F0F8BA
:1002100002BDC0460029F7D076E7704703460B437E
:100220007FD4002243088B4274D303098B425FD3EF
:10023000030A8B4244D3030B8B4228D3030C8B421B
:100240000DD3FF22090212BA030C8B4202D3121201
:10025000090265D0030B8B4219D300E0090AC30BD6
:100260008B4201D3CB03C01A5241830B8B4201D383
:100270008B03C01A5241430B8B4201D34B03C01A6C
:100280005241030B8B4201D30B03C01A5241C30AE4
:100290008B4201D3CB02C01A5241830A8B4201D355
:1002A0008B02C01A5241430A8B4201D34B02C01A3F
:1002B0005241030A8B4201D30B02C01A5241CDD2E4
:1002C000C3098B4201D3CB01C01A524183098B422F
:1002D00001D38B01C01A524143098B4201D34B0118
:1002E000C01A524103098B4201D30B01C01A52417B
:1002F000C3088B4201D3CB00C01A524183088B4202
:1003000001D38B00C01A524143088B4201D34B00EA
:10031000C01A5241411A00D201465241104670475C
:100320005DE0CA0F00D04942031000D34042534061
:1003300000229C4603098B422DD3030A8B4212D321
:10034000FC22890112BA030A8B420CD38901921153
:100350008B4208D3890192118B4204D389013AD090
:10036000921100E08909C3098B4201D3CB01C01A65
:10037000524183098B4201D38B01C01A5241430978
:100380008B4201D34B01C01A524103098B4201D366
:100390000B01C01A5241C3088B4201D3CB00C01AD3
:1003A000524183088B4201D38B00C01A5241D9D2EB
:1003B00043088B4201D34B00C01A5241411A00D26C
:1003C0000146634652415B10104601D34042002B68
:1003D00000D54942704763465B1000D3404201B5E7
:1003E000002000F005F802BD0029F8D016E770479C
:1003F0007047C04670B500220C4B04000D0000F0A1
:100400006DFE002804D12000290000F0CBFD70BD56
:10041000064B00222000290000F07CFA00F0C2FD0B
:1004200080231B069C466044F1E7C0460000E04183
:10043000F0B55746DE464E464546E0B583460600D3
:100440000F03480087B092461D003F0B400DCC0FB4
:10045000002800D16FE0DE4B984238D08023FF00A7
:100460001B041F43730F3B430193DA4B002799464C
:1004700000239B46F60081442B0369001B0B524668
:100480009846490DED0F002900D185E0D04B9942E7
:1004900000D173E04346DA0080231B041343524625
:1004A000CC48520F84461343524600206144D20088
:1004B00089442100694000918C46012149448A46C3
:1004C0000F2F00D990E0C449BF00CF59BF465B460B
:1004D0003B43019300D06AE10223082700268146AE
:1004E0009B46C9E732005846019B614600910228AD
:1004F00000D175E0032800D1FEE1012800D02CE1F5
:1005000000230027002600253F032A0D3F0BB34898
:1005100012053A4302401B051343009A5B00D107C2
:100520005B080B433000190007B03CBC904699466D
:10053000A246AB46F0BD5B463B43019300D12FE1A1
:10054000002F00D1A5E1380000F0D2FD03000B3BE5
:100550001C2B00DD96E11D22D31A5A460100DA4019
:100560005E4608398F4013008E403B4301939C4BFD
:1005700000271B1A994600239B467DE741465346B8
:100580000B4393498C46E144002B00D01AE1022230
:100590000220174300228CE7134300D10DE14346AC
:1005A000002B00D181E1404600F0A2FD02000B3A91
:1005B0001C2A00DD72E10100434608398B40984651
:1005C0001D239A1A5346D3401A00434613435246FA
:1005D0008A404946081A824989468144002068E7D2
:1005E0007B4B002700268EE7140C1204120C11001E
:1005F000370C3604350C794328008C462E006043B6
:100600006044834656432100300C80465846794367
:1006100040440291844506D98846802149028C468F
:10062000E044414602913604010C360C00048B462E
:1006300081191E0C1B041B0C0391190079438C4675
:10064000280075436544A8465843050C4544774344
:10065000A94203D9802149028C466744290C8C4663
:1006600039000004000C2D042D186144AB440591A1
:100670005946049101990F043F0C080C390051436D
:100680004243904602008C46090C8B4662437C43F1
:1006900044445C44A04503D9802149028846424431
:1006A000210C884661460904090C8C4639005943DF
:1006B000434370437E430F0CF6182404BE19644470
:1006C00042448C46B34203D980235B02984640449F
:1006D000029B61469846049B370443449B46AB45C6
:1006E000AD416B420D0405992D0C8C467F19674472
:1006F000FD18A8465D462D19A542A44193466442C3
:10070000A446C344DC448F42BF4198459B41934576
:100710009241A445A4415B427F421F43360C5242A2
:100720006442BF192243BF18624638184302D20DF3
:10073000039913436A020A43501E82416146ED0D3C
:100740002A434E023243D90100D4B3E001265008B7
:1007500032400243DE0732435B08224C5444002CF3
:1007600062DD510709D00F201040042805D0101D6C
:100770009042924152429B180200D90104D5802434
:100780001948E400034054441848844200DD27E738
:100790005E075B02D2081F0B630516435B0DB2E6D2
:1007A000002399460133042700269B4664E6032371
:1007B000019781460C279B465EE6012201201743E4
:1007C000002276E6032303201F43434671E6C0461A
:1007D000FF07000001FCFFFF20420008FFFF0F8021
:1007E0000DFCFFFFFF030000FFFFFFFEFE07000000
:1007F0000023802700933F030026434B83E6019BA1
:100800003200A446584670E6AC466EE68027019951
:100810003F0339422DD03B422BD11F433F033F0BB7
:1008200000951600384B6EE601252D1B382D00DD96
:1008300066E61F2D40DC35481C00504416008240FF
:100840008440EE40501E824134431443EB40620723
:1008500009D00F222240042A05D02200141D944200
:10086000804140421B181A023ED501230027002672
:1008700049E68027019B3F031F433F033F0B009442
:10088000214B40E603005A46283B9A40002601923D
:100890006DE6584600F02CFC203057E60300524627
:1008A000283B9A401300002293E6504600F020FCBB
:1008B00020307BE6CA4650E71F201E004042041B42
:1008C000E640202D03D0124C5444A3401A43501E3E
:1008D0008241324307260027164009D00F2000230B
:1008E000104014000428B9D122005E075B021F0BE0
:1008F000D2081643002306E680273F031F433F0329
:100900003F0B1600004BFEE5FF0700001E04000031
:100910003E040000F8B557464E464546DE460C00FC
:100920000903E0B5490A460F5F0031431E03DB0FA0
:10093000760A9B46530F3343C84E6500C000E40F50
:10094000D2006D0DA24681467F0D9C469046B7426F
:1009500000D1B9E05B46012673409B46EE1BA345E0
:1009600000D183E0002E63DD002F00D0B1E06346AC
:10097000134300D123E1731E002B00D0BAE1861A85
:100980006346B04280410125C91A4042091A0B0250
:1009900000D447E149024B0A98464346002B00D158
:1009A00089E1404600F0A4FB0300083B1F2B00DD5B
:1009B0007CE120223000D21A4146D040994002000A
:1009C0009E400A439D4200DD6AE15D1B6B1C1F2BAC
:1009D00000DD94E1202110003500C91A8E40DA4074
:1009E0008840DD40711E8E411100072228430025FA
:1009F00006433240002A09D00F233340042B05D090
:100A0000331DB342B641764289191E000B0200D451
:100A10003DE26A1C914B55056D0D9A4200D119E1DA
:100A20008F4AF6080A40570752023743120B9BE0E1
:100A3000002E00D0C5E06E1C7605760D012E00DC80
:100A400048E16746861ACB1BB042BF417F42B84699
:100A50001F004346FF1A3B00B8461B0200D55FE16A
:100A600037439AD100220024002579E0002E00DCD3
:100A7000FAE0002F00D18DE0784B9D4267D08023B3
:100A800067461B041F43BC46382E00DC52E1634618
:100A900013435A1E93411E18864280414042091852
:100AA0000B0200D4BEE06D4B01359D4200D1D2E077
:100AB0006B4A73080A4001210E401E435108D307B8
:100AC00007221E43324095E71E00164300D045E73B
:100AD00040E7624B9D423AD0802367461B041F4388
:100AE000BC46382E00DDEBE01F2E00DC3AE133007F
:100AF0006746203BDF403B00202E05D04027BF1B30
:100B00006646BE40324390464646721E9641334387
:100B1000DAE0002B00D114E26346134300D168E110
:100B200080234E07C008C9081B030643194208D09A
:100B30006046C008184204D163460100D2085E072F
:100B40001643F3009946C900720F444D11434B46BA
:100B5000DE08424B4F073743CA089D4200D16EE082
:100B600012036D05120B6D0D00211203130B0A0DFC
:100B700012051A433B4B2D0513402B435B00E40742
:100B80005B082343380019003CBC90469946A246B6
:100B9000AB46F8BD6346134311D0731E002B00D043
:100BA00007E18618864280416144404209180125C8
:100BB0000B0237D502257BE73E00614691463500A2
:100BC000C5E75C46002D00D0E1E00B000343F3D005
:100BD000731C00D1ACE1214B9F4200D13AE1F343B9
:100BE000382B00DD6FE11F2B00DD8CE120250E008E
:100BF000ED1AAE40B0460600AA46DE4045463543F3
:100C00002E005546D940A8406346451EA8415B1AB0
:100C10009C463043161AB242924163465242991A98
:100C20003D00B4E607223240002A00D0E4E60B4B38
:100C3000F6084F073743CA089D4200D090E73B00B3
:100C4000134300D1A6E180231B031A431203120BA6
:100C5000024D89E715000022002785E7FF07000005
:100C6000FFFF7FFFFFFF0F80002E00D0C7E06B1C4F
:100C70005E05760D012E00DCF0E0C84DAB4200D1E0
:100C8000B9E085180A0085428941624449425118F9
:100C90000722CE076D082E43490832401D00A9E601
:100CA000BF49ED1A114007223240A3E6320028382E
:100CB0008240002686E6300000F01AFA203073E603
:100CC000634613435A1E9341C61AB04280414042C4
:100CD000091A5CE60E00674606431743002D5ED1F5
:100CE000002E00D0F3E0002F00D11EE15C466146EB
:100CF00091462CE7A94FBE427BD01E00F1E61000C2
:100D00001F3DE840202B03D04021CB1A9A401643C8
:100D1000731E9E410722064332400021002583E7CF
:100D2000161A6346B2428041591A40420B1A98463D
:100D30005C4632E61F2E00DDABE02027BB1B9A4647
:100D400063465746BB40994613004F46F3401F4346
:100D50003B005746BA40571EBA4113436246F24021
:100D6000891898E62027BB1B9A4663465746BB4026
:100D7000994613004F46F3401F433B005746BA4085
:100D8000571EBA4113436246F240891A9CE7834BCF
:100D90009F425FD080252D047342294320E7002E17
:100DA0000CD1002F00D1D0E05C46614691467B4DCE
:100DB000CDE67A4FBE421CD01E0065E6002F18D04B
:100DC000C0084E0706438020C9080003014208D02E
:100DD0006346DC08044204D12100DA46D2085E07EB
:100DE0001643F300994601245346C900720F11437C
:100DF0001C406A4DABE61D0000220027B4E6002D22
:100E000059D10B00034300D1D6E6731C00D1B2E0E8
:100E1000624B9F421ED0F343382B6FDC1F2B00DD4B
:100E200097E020250E00ED1AAE40B0460600AA4617
:100E3000DE40454635432E005546A840D940451E64
:100E4000A8418C440643B6189642924151426144EF
:100E50003D0025E63D006146914678E60B000343E0
:100E6000002D00D055E6002BF5D06346134300D18A
:100E70006DE686188642804161444042091800228E
:100E80000B0200D4D0E6464B01351940B2E5B1461D
:100E90005DE633006746203BDF403B00202E05D057
:100EA0004027BF1B6646BE40324390464646721EF0
:100EB00096413343EFE5394B9F42CBD080252D043B
:100EC00073422943A8E70843411E8841A2E6002F48
:100ED00000D13CE66346861ACF1AB0429B415B4282
:100EE000FB1A98461B024ED5161A6346B24292412F
:100EF000591A5242891A5C4600227BE501430E00D2
:100F0000711E8E419FE71D000E00203DEE40B04651
:100F1000202B04D04025EB1A9940084381464846CF
:100F20004346411E8841184374E60022002417E618
:100F3000161A6346B2429241591A5242891A3D002A
:100F400025E561469146154D01E6802200241203F5
:100F500079E61D000E00203DEE40B046202B04D067
:100F60004025EB1A9940084381464E464346711E80
:100F70008E411E4367E7861896429B4161445B425F
:100F8000C9183D008CE547463743CED0072241467D
:100F9000324049E600273A00E6E5C046FF07000078
:100FA000FFFF7FFF30B5144D0A034B00120B5B0DA2
:100FB000C90F0024AB4211DD104CA34210DC802489
:100FC000640322430E4CE41A1F2C0CDD0D48C31A97
:100FD000DA4013005C42002900D11C00200030BD23
:100FE000094BCC18FAE7094DE040AC4663449A40FF
:100FF00013000343EEE7C046FE0300001D0400009B
:101000003304000013040000FFFFFF7FEDFBFFFF30
:1010100010B5041E25D000F06BF8144B1B1A5B05AD
:101020005B0D0A2812DD0B38844000222403240BB8
:101030000021100024030A0D240B120522430C4C3E
:101040001B05224013435B00590810BD020021001C
:10105000153291400A000B21081AC4402403240BC6
:10106000E6E7002300240022E2E7C0461E04000059
:10107000FFFF0F808446101C62468C46191C634695
:1010800000E0C0461FB500F0F1F8002801D40021AF
:10109000C8421FBD10B500F049F84042013010BDF4
:1010A00010B500F0E3F8002801DB002010BD01209E
:1010B00010BDC04610B500F0D9F8002801DD0020B1
:1010C00010BD012010BDC04610B500F06BF800281F
:1010D00001DC002010BD012010BDC04610B500F09D
:1010E00061F8002801DA002010BD012010BDC046C3
:1010F0001C2101231B04984201D3000C10391B0A48
:10110000984201D3000A08391B09984201D300090B
:10111000043902A2105C40187047C0460403020262
:10112000010101010000000000000000F0B54F4681
:101130004646D6468446C0B58046194E18030F036E
:101140004D00000B5C0082463F0B6D0DC90F9146B0
:10115000640DDB0F0120B5420AD0B44203D0A54292
:1011600001D157450CD01CBC90469946A246F0BD13
:1011700066463E43F7D1AC42F5D154461443F2D112
:101180000120C845EFD1994207D0002DEBD163462D
:101190001F433800471EB841E5E70020E3E7C0469B
:1011A000FF070000F0B54F464646D6464D00C0B595
:1011B0000E03C90F8A462C491F035C008046360B7C
:1011C0006D0D91463F0B640DDB0F8D421ED08C429E
:1011D00016D0002D1ED130438446002C01D13A4355
:1011E00023D06246002A1AD09A4529D051460220BF
:1011F0000139084001381CBC90469946A246F0BD12
:1012000039001143E5D002204042F4E73043FAD1DF
:10121000AC420FD0002C0FD13A43E7D00CE00122B2
:10122000013B934318000130E5E763460020002BA3
:10123000E1D0DBE73A43E6D19A45D7D1A542D5DCE8
:10124000A54205DBBE42D1D808D00020BE42D2D292
:1012500050460123013898430130CCE7C845C5D832
:101260000020C845F4D3C6E7FF070000F0B54F469D
:101270004646D6464D00C0B50E03C90F8A462E49D4
:101280001F035C008046360B6D0D91463F0B640DCD
:10129000DB0F8D4218D08C4211D0002D18D1304375
:1012A0008446002C1ED13A431CD163460020002BFB
:1012B00030D0514602200139084001382AE0390077
:1012C0001143EAD0022025E03043FBD1AC4226D0C6
:1012D000002C26D13A4324D151460220013908403E
:1012E000013817E06246002A0FD09A45E1D1A542A5
:1012F00005DBBE42DDD819D00020BE420AD25046DE
:10130000012301389843013004E00122013B93435B
:10131000180001301CBC90469946A246F0BD3A43E5
:10132000D0D19A45C5D1A542C3DCE0E7C845C0D8B5
:101330000020C845E3D3EDE7FF07000010B5040027
:10134000094B1868FA218900FEF7DEFE00F036FB33
:10135000002801D0012010BD0130002221004042B0
:1013600000F0F2FA0020F6E70000002010B5084A6D
:10137000136840210B4313600020FFF7DFFF041EBA
:1013800002D00124200010BD02F0A8FDFAE7C046FB
:1013900000200240024A1368013313607047C046C0
:1013A00020000020014B18687047C0462000002034
:1013B00070B50400FFF7F6FF0500631C00D0013490
:1013C000FFF7F0FF401BA042FAD370BD10B582B00A
:1013D0000400084B18680849FEF796FE4443019440
:1013E00002E0019B013B0193019B002BF9D102B06C
:1013F00010BDC0460000002040420F0070B5040040
:101400000268916803230B40012B0DD09168184BA3
:1014100019420ED0636D102213436365A36D0F3A1A
:101420001343A365012070BD1368DB07EED50020D0
:10143000F9E7936801210B4393600120FFF7C6FF92
:10144000FFF7B0FF050023681B68DB070ED4FFF72A
:10145000A9FF401B0A28F6D9636D10221343636568
:10146000A36D0F3A1343A3650120DCE70020DAE700
:101470001700008070B5041E00D1E0E0436D002B22
:101480002ED0636DDB0631D421688B6804221A40AC
:101490002CD1636D6B4803400630FF300343636516
:1014A000886803230340012B29D06368C02000060D
:1014B000834228D08020C005834224D080200006AB
:1014C000834220D00B699B009B080B615E4B19681F
:1014D0005E480140196019686068014319601BE0AB
:1014E00083655022835402F007FDCAE7636D102222
:1014F0001343636550230022E254012070BD0B6842
:10150000DB0713D4D1E70B699B009B080B612168B3
:101510000B69606803430B612168CB681820834323
:10152000CB602168CB68A0680343CB60464B196849
:101530004748014019601968606B40060143196013
:1015400023689968C90004D498688021490501433B
:1015500099602168CB683F480340CB602068C16830
:10156000E3682569022D2DD013432022A25C52038B
:1015700013432C22A25C52001343226B1343A26933
:1015800092031343E269D20313430B43C360636ABC
:10159000C222FF32934205D02168CA68A06A034381
:1015A0001343CB602123E35C012B0DD0E36B012BB4
:1015B0001ED023681A69D2072DD51A6901218A43E2
:1015C0001A6128E00422CFE71F33E35C002B06D129
:1015D0002268D16880235B020B43D360E6E7636D2A
:1015E000202213436365A36D1F3A1343A365DDE710
:1015F0002268136918490B40136121680A69236C3A
:10160000606C0343A06C034313430B6122681369AE
:1016100001210B4313612268536907218B435361F6
:1016200022685369A16B0B4353610023A365636D6B
:1016300003229343023A1343636500205EE70120CF
:101640005CE7C046FDFEFFFF08270140FFFFC3FF28
:10165000FFFFFFFD1902FEFF03FCFFFFF8B50400CA
:101660000E00170003689B685B073ED45023C35CE1
:10167000012B3CD050230122C254C369012B32D02C
:10168000FFF7BCFE051E2CD1636D1A4A1A40802359
:101690005B00134363650023A3655022A354E36CEE
:1016A000154ADA62E36C154A1A63E36C144A5A630A
:1016B00023681C221A602268536810210B43536070
:1016C0002268D3680F390B43D360216840313B0057
:1016D0003200E06C00F0F2F92268936804210B43B9
:1016E00093602800F8BD0025CEE70225F9E7022522
:1016F000F7E7C046FEF0FFFF091700087F17000854
:101700008D1700087047000010B5836A5A6D50218C
:10171000114203D0DB6C5B6B984710BD596D802282
:1017200092000A435A651A68D068C021090108422C
:1017300014D12021595C002910D1116809070DD559
:10174000916849070ED451680C20814351605A6D4D
:1017500009490A400431FF310A435A651800FFF76E
:10176000D1FFDAE75A6D20210A435A659A6D1F3975
:101770000A439A65F2E7C046FEFEFFFF704710B5C8
:10178000806AFFF7FBFF10BD7047704710B5806A95
:10179000436D402213434365836D3C3A1343836595
:1017A000FFF7F3FF10BD000010B5040003681A68CE
:1017B000520702D55A68520705D41A6812072DD568
:1017C0005A6812072AD5626DD20604D4616D802250
:1017D00092000A436265D968C0221201114214D1F5
:1017E0002022A25C002A10D11A6812070DD59A682F
:1017F000520734D45A680C218A435A60636D224AD6
:1018000013400432FF32134363652000FFF77AFF71
:10181000A369012B02D023680C221A6023681A687E
:10182000120602D55B681B0622D423681A68D2060A
:1018300014D55A68D20611D5226B002A02D0DA6874
:10184000D20708D5A26D02210A43A26510221A60B0
:101850002000FFF79AFF236810221A6010BD636D05
:10186000202213436365A36D1F3A1343A365CCE79E
:10187000626D80235B02134363652000FFF784FFE2
:10188000236880221A60D0E7FEFEFFFF70B50400D7
:101890000D005023C35C012B4BD050230122C254B6
:1018A00003689A6852071AD4234A4968914229D09A
:1018B000996A2A685203520B0A439A622B685B03A7
:1018C00016D42B689B0305D51C4A11688023DB03C3
:1018D0000B43136050230022E254002070BD436D7F
:1018E00020221343436550230022C2540120F5E710
:1018F000124A116880231B040B4313600A20FFF770
:1019000065FDDEE7996A2A685203520B914399629A
:101910002B685B0304D5094A136809490B4013601F
:101920002B689B03D6D5054A136806490B40136004
:10193000D0E70220D2E7C04601100000082701408E
:10194000FFFF7FFFFFFFBFFF70B5002811DB84089A
:10195000134DC034A400625903231840C000FC3367
:101960001E008640B24389010B40834013436351FC
:1019700070BDC0B20F220240083A920806329200AF
:10198000084BD3185D6803242040C000FF221400D8
:101990008440A54389010A4082402A435A60E7E710
:1019A00000E100E000ED00E01F2318401E3B8340F3
:1019B000014A13607047C04600E100E001380A4B5D
:1019C00098420FD8094A50600948036A1B021B0A53
:1019D000C02109060B4303620023936007331360A1
:1019E000002070470120FCE7FFFFFF0010E000E04F
:1019F00000ED00E070B51C25446C2540066C012408
:101A0000AC407460046863608368102B04D0036882
:101A100099600368DA6070BD03689A600368D960F2
:101A2000F9E7000070B5041E3DD005681F4BE818AB
:101A30001421FEF769FB800060641D4B236425239D
:101A40000222E2542B681B4A1A40A368E1680B4348
:101A500021690B4361690B43A1690B43E1690B43A6
:101A6000216A0B4313432B608023DB01A2689A4257
:101A700010D0114B19681C22656C15400F20A8402E
:101A8000814319601968606C0240606890400200F0
:101A90000A431A600023E36325220121A154013A7D
:101AA000A354002070BD0120FCE7C046F8FFFDBF35
:101AB000000002400F80FFFFA800024070B5040044
:101AC0002420205C012832D0242001252554013017
:101AD000205C012804D024230022E254022070BD9F
:101AE0002430013525540020E0632568286801264C
:101AF000B04328602000FFF77DFF236B002B0BD045
:101B0000226813680E210B431360226813680121B9
:101B10000B4313600020E2E72268136804218B4323
:101B200013602268136806310B431360EDE702204F
:101B3000D5E770B5036C1968046825681C23426CEE
:101B4000134004229A40114214D06A0712D5236828
:101B50009B0603D423680422934323601C22436C16
:101B60001A40016C042393404B60036B002B00D0A0
:101B7000984770BD02229A4011421AD0AA0718D580
:101B800023689B0606D423680A22934323602523F7
:101B9000093AC2541C22436C1A40016C0223934040
:101BA0004B6024230022C254C36A002BE1D0984723
:101BB000DFE708229A401142DBD02B07D9D52368F2
:101BC0000E22934323600E32436C1A40016C0123B2
:101BD0001C0094404C60C3632522835423330022AD
:101BE000C254436B002BC4D09847C2E7F0B5C64639
:101BF00000B5002338E0052600E00026AE403500A1
:101C00003D430234A400534EA551534C256842462F
:101C1000D4432E0026404A68D20302D542461543DB
:101C20002E004D4D2E606D682E0026404A689203AE
:101C300002D5424615432E00474D6E60AD682E001A
:101C400026404A68D20202D5424615432E00424D34
:101C5000AE60ED682C404A68920202D542462A43A3
:101C600014003D4AD46001330A681400DC406DD092
:101C700001249C4022409046F5D04D68022D01D0B1
:101C8000122D0ED1DD080835AD002F5807261E4055
:101C9000B6000F22B24097430A69B24016003E4395
:101CA0002E504D686E1E012E03D9112D01D0122D1C
:101CB00012D185685F000326BE40B5432E00CD6873
:101CC000BD40354385604568A5434A68160901242F
:101CD00034409C402C43446007685E000324250088
:101CE000B540ED432F404A681440B4403C43046083
:101CF000C46825408C68B4402C43C4604A68D20054
:101D0000B1D5164D6C6B012634436C639C08A51C41
:101D1000AD00104EAF5903251D40AD000F26AE405B
:101D2000B743A026F605B04200D166E70C4EB0429C
:101D300008D00C4EB04207D00B4EB04200D15AE74B
:101D400006265BE7012659E7022657E704BC9046C2
:101D5000F0BDC046000001400004014000100240F8
:101D60000004005000080050001C005003690B42A2
:101D700001D1002070470120FCE7002A01D18162D7
:101D800070478161FCE74369594041617047000039
:101D900010B5054B5B69184200D110BD024B58616C
:101DA00001F036FDF9E7C04600040140034A11681E
:101DB00080235B000B4313607047C04600700040F7
:101DC00010B50C4A13680324A343184310600A4A51
:101DD0001369042003431361012908D040BF20BFC9
:101DE00020BF054A136904218B43136110BD30BF26
:101DF000F7E7C0460070004000ED00E010B5264B4C
:101E0000D9680C230B40082B42D00C2B11D0042B8B
:101E100009D0214B5A68520B07231340013380200D
:101E20000002984010BD1C4B1B68DB0632D51B48D6
:101E3000F8E78A0C0F231340194AD05C890D03225E
:101E400011400131144BDB68DB030DD4124B1B68CE
:101E5000DB0613D54201121A93019B1ADB001B18F3
:101E60001802FEF751F9DDE74201121A93019B1A9D
:101E7000DB001B185802FEF747F9D3E74201121A9C
:101E800093019B1ADB001B189802FEF73DF9C9E786
:101E90000448C7E70448C5E70010024000093D00B8
:101EA000FC41000800127A000024F400F0B583B071
:101EB000041E00D165E2C44BDA680C251540DA68CF
:101EC0008026760216400368DB0736D5082D2CD015
:101ED0000C2D28D0636880225202934255D0A02254
:101EE000D202934258D0B84B1A68B8490A401A60D7
:101EF0001A68802149020A400192019A1A68B4497D
:101F00000A401A606368002B52D0FFF74BFA0700B3
:101F1000AD4B1B689B0310D4FFF744FAC01B642829
:101F2000F6D903202EE2002ED4D0A74B1B689B03CA
:101F300003D56368002B00D126E223689B076CD58C
:101F4000E3689A0605D5A048026820210A4302608A
:101F50008B43042D3CD00C2D38D0002B00D1AEE0AB
:101F600099490A680920824313430B60FFF71AFA64
:101F70000600954B1B685B0700D597E0FFF712FA48
:101F8000801B0228F5D90320FCE18F4A11688023C9
:101F90005B020B431360B5E78B4B19688022D202BA
:101FA0000A431A601968802252020A431A60A9E79C
:101FB000FFF7F8F90700844B1B689B03BDD5FFF7BB
:101FC000F1F9C01B6428F6D90320DBE1002EC4D14F
:101FD0007D4A1268520702D5002B00D1D6E17A4E15
:101FE00072687C490A40216909020A4372603268BA
:101FF00009218A4313433360FFF700FFF268120997
:102000000F231340744AD35CD840744B18600020EF
:10201000FFF794F9002800D0B4E12368DB062CD543
:10202000002D5FD1684B1B689B0503D5A369002B6E
:1020300000D1ADE1644A536869490B40216A0B4302
:10204000536053681B021B0AE16909060B43536086
:10205000236A590B013180231B028B40D168090987
:102060000F220A405C498A5CD3405C4A136000201E
:10207000FFF764F9002800D084E123681B077DD5B1
:102080006369002B67D0504A136D01210B43136520
:10209000FFF788F906004C4B1B6D9B076ED4FFF7CA
:1020A00081F9801B0228F6D903206BE146494B6871
:1020B000484A13402269120213434B60ADE7424A7B
:1020C000136801218B431360FFF76CF906003E4B48
:1020D0001B685B07A1D5FFF765F9801B0228F6D9BD
:1020E00003204FE1A369002B22D0374A11688023D7
:1020F0005B000B431360FFF755F90600324B1B687A
:102100009B0506D4FFF74EF9801B0228F6D9032061
:1021100038E12D4A536832490B40216A0B43536022
:1021200053681B021B0AE16909060B435360A4E7CD
:10213000254A13682B490B401360FFF733F906005B
:10214000214B1B689B0598D5FFF72CF9801B0228B3
:10215000F6D9032016E11C4A136D01218B43136548
:10216000FFF720F90600184B1B6D9B0706D5FFF7FC
:1021700019F9801B0228F6D9032003E123685B07C5
:1021800000D48CE0104B9B6BDB001BD40E4A916B90
:1021900080235B050B4393630126134B1B68DB0510
:1021A00026D5A36880225200934235D0002B4BD114
:1021B000054B1A6D0B490A401A651A6D0B490A4006
:1021C0001A652FE00026E8E700100240FFFFFEFF3F
:1021D000FFFFFBFFFFE0FFFF0842000800000020B8
:1021E000FF1FFFFFFFFEFFFF00700040FFFBFFFF30
:1021F0006B4A116880235B000B431360FFF7D2F832
:102200000700674B1B68DB05CBD4FFF7CBF8C01B7F
:102210006428F6D90320B5E0624A116D80235B0083
:102220000B431365A368002B28D0FFF7BBF807000A
:102230005C4B1B6D9B0530D4FFF7B4F8C01B5A4BA9
:102240009842F5D903209DE0A022D200934209D004
:10225000544B1A6D55490A401A651A6D54490A4083
:102260001A65DFE74F4B196D013AFF3A0A431A65C9
:10227000196D802252000A431A65D3E7FFF792F8DE
:102280000700484B1B6D9B0507D5FFF78BF8C01B5C
:10229000454B9842F5D9032074E0012E1AD0636AA9
:1022A000002B00D176E00C2D4FD0022B18D03D4AE8
:1022B000136840490B401360FFF774F80400394B72
:1022C0001B689B013FD5FFF76DF8001B0228F6D96C
:1022D000032057E0334A936B37490B409363DEE7A3
:1022E000304A136833490B401360FFF75BF8050071
:1022F0002C4B1B689B0106D5FFF754F8401B0228A6
:10230000F6D903203EE02749CB682C4A1340A26A45
:10231000E06A0243206B02431343CB600A688023C8
:102320005B0413430B60FFF73DF804001D4B1B6873
:102330009B0106D4FFF736F8001B0228F6D90320CC
:1023400020E000201EE000201CE0012B24D0154BD3
:10235000DA6880235B021340A16A8B4201D001201E
:1023600010E0F0239B031340E16A8B4201D001206F
:1023700008E0C0231B041A40236B9A420ED00120B0
:1023800000E0012003B0F0BD0120FBE70120F9E7E8
:102390000120F7E70020F5E70120F3E70020F1E74F
:1023A000007000400010024088130000FFFEFFFF95
:1023B000FFFBFFFFFFFFFFFEFFFFFFEFFFFF02FF3F
:1023C00070B504000D00002800D1BAE05F4B1A6818
:1023D000012313408B420BD25C490B6801229343CB
:1023E0002B430B600B681A40AA4201D00120A9E0E0
:1023F00023689B0706D5564AD368F0218B43A16812
:102400000B43D3602368DB0764D56368022B09D0D4
:10241000032B29D0012B2DD04D4A1268920506D4EA
:1024200001208FE04A4A1268920300D48BE04849A9
:10243000CA68032082431343CB60FEF7B3FF060054
:102440006368022B1CD0032B28D0012B34D0404BC7
:10245000DB680C221A423DD0FEF7A4FF801B3D4BE7
:102460009842F4D903206DE0394A12689201DED413
:10247000012067E0364A12685207D8D4012061E093
:10248000334BDA680C231340082B23D0FEF78AFF66
:10249000801B304B9842F3D9032053E02C4BDA6871
:1024A0000C2313400C2B15D0FEF77CFF801B294B0F
:1024B0009842F3D9032045E0254BDA680C231340FA
:1024C000042B07D0FEF76EFF801B224B9842F3D9F6
:1024D000032037E01D4B1A6801231340AB420BD990
:1024E0001A490B68012293432B430B600B681A4077
:1024F000AA4201D0012025E023685B0706D5144AD3
:10250000D36815490B40E1680B43D36023681B0770
:1025100007D50F49CB68114A13402269D2001343F3
:10252000CB60FFF76BFC0A4BDA6812090F231340EC
:102530000B4AD35CD8400B4B18600020FEF7FEFE20
:1025400000E0012070BD0120FCE7C04600200240F1
:102550000010024088130000FFF8FFFFFFC7FFFFD5
:10256000084200080000002070B5040003689B06C4
:102570004CD55B4B9B6BDB0000D571E0584A916BEF
:1025800080235B050B4393630125564B1B68DB05DA
:1025900068D5534B1968C0239B03194062681340E8
:1025A0008B4206D0C0239B0211001940994200D1F2
:1025B0006DE04B4B1B6DC02189020B4015D00A40CA
:1025C0009A4212D023689B060FD5454B186D464A98
:1025D00002401E6D8021090331431965196D434E78
:1025E000314019651A65C30558D46368C022920248
:1025F00019001140914260D039490B6DC0229202FE
:102600006068024013430B65012D60D023689B076F
:1026100006D5334AD36C0C218B43A1680B43D3649A
:1026200023685B0706D52E4AD36C31490B40E1681D
:102630000B43D36423681B0706D5294AD36C2D4965
:102640000B4021690B43D36423681B0645D5244AFC
:10265000D36C29490B4061690B43D364002070BDE2
:10266000002592E71F4A116880235B000B4313602B
:10267000FEF798FE06001B4B1B68DB0500D588E7BC
:10268000FEF790FE801B6428F5D90320E7E7144B82
:102690001B689B0300D48CE70120E0E7FEF782FE75
:1026A00006000F4B1B6D9B059FD4FEF77BFE801B26
:1026B000124B9842F5D90320D1E709490A6810481E
:1026C0000240C0208003034013430B6094E70A00DC
:1026D0008B6B0C490B40936398E70020BFE7C04623
:1026E0000010024000700040FFFFFCFFFFFFF7FFFB
:1026F000FFF3FFFFFFCFFFFFFFFFF3FF8813000093
:10270000FFFFCFFFFFFFFFEF70B504000268D36843
:10271000A0218B43D360FEF745FE05002368DB68EC
:102720009B0608D4FEF73EFE401BFA239B0098420E
:10273000F4D9032000E0002070BD70B504000368E8
:10274000DA68520601D5002070BD01225242DA60DB
:10275000FEF728FE05002368DB685B0608D4FEF759
:1027600021FE401BFA239B009842F4D90320EBE79B
:102770000020E9E770B5041E63D02123C35C002B61
:1027800040D021230222E2542368C8325A622368CF
:10279000773A5A622000FFF7D0FF051E38D1226831
:1027A000936829490B40936021688A6863682069AF
:1027B0000343A069034313438B602368E2681A61F3
:1027C00021680B69A268120413430B612268D36865
:1027D00080218B43D3602268D36C7D398B43D364D3
:1027E0002168CB6CE269606902431343CB642368C0
:1027F0009B689B0615D52368FF225A622123FE3A67
:10280000E2540CE020330022C25401F0C5FBB8E7CB
:102810002368FF225A622123FB3AE2540125280053
:1028200070BD2000FFF770FF0028E4D02368FF226E
:102830005A622123FB3AE254013B0022E254012573
:10284000EDE70125EBE7C046BFFF8FFF002302E065
:1028500001330A38C0B20928FAD81B01DBB2184389
:1028600070470000F8B504000E002023C35C012B64
:1028700000D178E020230121C15401330131C1543A
:10288000002A43D103689B685B0601D40023F370E0
:102890003078FFF7DBFF05047078FFF7D7FF000201
:1028A0000543B078FFF7D2FF0543F07800040543F5
:1028B0002368CA225A622368773A5A622000FFF7D7
:1028C0003CFF071E33D12368284805401D6022685D
:1028D000936827490B40936021688B68F2683069E0
:1028E000024313438B602268D36880218B43D360FB
:1028F00023689B689B0626D52368FF225A62212302
:10290000FE3AE254013B0022E2541AE003689B685D
:102910005B0601D40023F37035782D047078000233
:102920000543B0780543F07800040543C0E7236809
:10293000FF225A622123FB3AE254013B0022E25477
:1029400001273800F8BD2000FFF7DEFE0028D3D0B5
:102950002368FF225A622123FB3AE254013B002202
:10296000E2540127EDE70227EBE7C0467F7F7F00B7
:10297000FFFFFBFF70B504000E002023C35C012B9A
:1029800069D020230121C15401330131C154002AEF
:1029900006D17378D90603D510218B430A3373709F
:1029A000002A31D1F078FFF751FF05047078FFF766
:1029B0004DFF00020543B078FFF748FF054330782C
:1029C000400305432368CA225A622368773A5A6251
:1029D0002000FFF7B2FE061E21D123681F480540E4
:1029E0005D602268D36880218B43D36023689B6835
:1029F0009B0620D52368FF225A622123FE3AE25427
:102A0000013B0022E25414E0F5782D0470780002B6
:102A10000543B0780543307840030543D2E7236887
:102A2000FF225A622123FB3AE254013B0022E25486
:102A30000126300070BD2000FFF766FE0028D9D0C7
:102A40002368FF225A622123FB3AE254013B002211
:102A5000E2540126EDE70226EBE7C0463FFFFF0008
:102A6000020993009B185A000F2318408018C0B227
:102A700070470000F8B50C0003689B6A4B60036860
:102A80001B695B045B0C8B6003681B680E490B4081
:102A90001E0C3F20304020701D0A7F273D4065708E
:102AA0001F40A77040213140E170002A0AD1FFF792
:102AB000D7FF20702800FFF7D3FF60703800FFF7C2
:102AC000CFFFA0700020F8BD7F7F7F0070B50C00A5
:102AD00003685B680E490B40180CE070190A1F264A
:102AE0000E4066703F251D40A5705B0B07210B4013
:102AF0002370002A0AD1FFF7B3FFE0703000FFF720
:102B0000AFFF60702800FFF7ABFFA070002070BD22
:102B10003FFFFF0003688022D205904205D0124A91
:102B2000904202D0114A904203D1702293434A68E6
:102B300013438022D205904205D00B4A904202D026
:102B40000A4A904203D10A4A1340CA6813438022BA
:102B500093430A69134303608B68C3620B68836203
:102B6000012343617047C046000801400014014042
:102B7000FFFCFFFF30B5036A046A0125AC43046221
:102B80008469EF35AC43120122430A24A34319435D
:102B90008261016230BD000030B5036A1024A34396
:102BA00003628469036A054D2C4012032243A0246A
:102BB000A343090119438261016230BDFF0FFFFF8A
:102BC0000B008168702291431943072319438160E8
:102BD0007047000030B58468034D2C401B021A4337
:102BE00011432143816030BDFF00FFFF70B5041E1B
:102BF00014D03923C35C002B0AD039250223635536
:102C0000211D2068FFF786FF01236355002070BD5A
:102C100038330022C25401F0CFF9EEE70120F6E785
:102C20000268D36801210B43D360026891680723CF
:102C30000B40062B03D0136801210B4313600020C7
:102C40007047000010B504003823C35C012B66D028
:102C500038230122C25401330132C25402689368FE
:102C60003048034093600B68402B4ED015D9602B41
:102C700041D021D9702B2BD080229201934232D1A6
:102C8000CB684A6889682068FFF7A4FF22689168CA
:102C90008023DB010B43936025E0102B07D004D980
:102CA000202B04D0302B02D01DE0002B1BD11900AB
:102CB0002068FFF785FF16E0502B14D1CA684968D9
:102CC0002068FFF757FF50212068FFF779FF0AE0DF
:102CD000CB684A6889682068FFF77CFF22689368A0
:102CE00077210B43936039230122E254013B0022F8
:102CF000E254002010BDCA6849682068FFF74CFF05
:102D000060212068FFF75CFFEDE7CA68496820682A
:102D1000FFF730FF40212068FFF752FFE3E7022072
:102D2000E8E7C0468800FFFF70477047704770476C
:102D300010B5040003681A6992070FD5DA68920784
:102D40000CD5032252421A610123037603689B6962
:102D50009B0755D0FFF7E9FF0023237623681A6904
:102D6000520712D5DA6852070FD5052252421A616E
:102D70000223237623689A69C0239B001A4245D018
:102D80002000FFF7D2FF0023237623681A69120779
:102D900010D5DA6812070DD5092252421A610423B0
:102DA00023762368DB699B0737D02000FFF7BDFF40
:102DB0000023237623681A69D20612D5DA68D20670
:102DC0000FD5112252421A61082323762368DA694B
:102DD000C0239B001A4227D02000FFF7A6FF002344
:102DE000237623681A69D20702D5DA68D20722D47B
:102DF00023681A69520602D5DA68520622D410BD39
:102E0000FFF792FF2000FFF791FFA5E72000FFF7F3
:102E10008BFF2000FFF78AFFB5E72000FFF784FF54
:102E20002000FFF783FFC3E72000FFF77DFF2000AE
:102E3000FFF77CFFD3E7022252421A61200000F024
:102E400027FDD5E7412252421A612000FFF76FFFAC
:102E5000D5E7F0B53823C35C012B1BD038260123FE
:102E60009C46835539270133C355026854689368DB
:102E70007025AC430D682C438025AB431D004B6887
:102E80002B435460026893606346C3550023835507
:102E90000020F0BD0220FCE710B5022204490548DD
:102EA000FEF7DCFB002800D110BD00F081FCFBE741
:102EB000240000207400002010B50C4B1A889300E9
:102EC0009B185A019B1858000949FDF7A7F94000C3
:102ED00080B2084B18805538FF3803011B1A980040
:102EE0005021FDF79BF9044B188010BD24000020F1
:102EF000FF0F00002A00002028000020F0B589B054
:102F00001422002103A801F035F9314BD96A0422BB
:102F10001143D962D96A0A400092009ADA6A0125FF
:102F20002A43DA62DA6A2A400192019ADA6A0227AF
:102F30003A43DA62DB6A3B400293029B254CA026AF
:102F4000F605002221003000FEF717FF00220221C3
:102F50002148FEF712FF039404950024059406947B
:102F600003A93000FEF742FE03971C4B049305941F
:102F700003A93000FEF73AFE18230393184B04937D
:102F8000059503A93000FEF731FE039704950594DB
:102F9000069403A91048FEF729FE0022002105200F
:102FA000FEF7D2FC0520FEF7FFFC002200210620E0
:102FB000FEF7CAFC0620FEF7F7FC002200210720DE
:102FC000FEF7C2FC0720FEF7EFFC09B0F0BDC046DB
:102FD00000100240C1660000000400500000111003
:102FE0000000211000B583B0094A116B0123194379
:102FF0001163126B13400193019B002201210920F0
:10300000FEF7A2FC0920FEF7CFFC03B000BDC046CE
:1030100000100240F0B587B001AE1422002130004C
:1030200001F0A8F800250095144C154B23604023AF
:1030300063603F33A3608033E36025616561A56110
:10304000E5612000FFF796FB012737701E237370A0
:103050000A33B370F570F56035610022310020004D
:10306000FFF700FC6B461F705F709F70DD700022E1
:1030700069462000FFF77EFC07B0F0BDE4020020A7
:103080000028004030B587B01022002102A801F0CE
:1030900071F808220021684601F06CF80F4C80237B
:1030A000DB0523600E4B63600025A5600D4BE360DC
:1030B0002561802363612000FFF798FD80235B0179
:1030C000029302A92000FFF7BDFD00950195694616
:1030D0002000FFF7BEFE07B030BDC0461003002041
:1030E0009F0F00003F1F000030B587B01022002165
:1030F00002A801F03FF808220021684601F03AF8E2
:103100000E4C0F4B23601F2363600025A5604433E2
:10311000E360256165612000FFF768FD80235B01A6
:10312000029302A92000FFF78DFD009501956946E5
:103130002000FFF78EFE07B030BDC04654030020CC
:103140000008014030B583B008220021684601F034
:1031500011F8194C194B23600023E3638022D20538
:103160006260A3600522A263043A2261E360202129
:10317000625401316354A362C221FF316162963906
:10318000FF3962540332626180256D012563A361BA
:103190006363E3612000FEF76DF9094B009301952D
:1031A00069462000FEF772FB064B0093694620003B
:1031B000FEF76CFB03B030BD74000020002401401A
:1031C000200000140000044810B598B034220021FB
:1031D0000BA800F0CFFF1422002106A800F0CAFFC0
:1031E00018220021684600F0C5FF1C490A681C4CE3
:1031F000224080231B0113430B60FEF7D7FD194AC1
:10320000136D2340136506230B93FA330D93FF3B95
:103210000E930F330F930E3B1493002415948023C9
:103220001B03169380231B0417930BA8FEF73EFE87
:103230000F2306930C3B0793089409940A940121E9
:1032400006A8FFF7BDF82023009380235B020193BB
:103250006846FFF789F918B010BDC04600700040FD
:10326000FFE7FFFF00100240F8B5FEF77FF8FFF719
:10327000ABFFFFF743FEFFF7B5FEFFF7CBFEFFF70F
:1032800001FFFFF75FFFFFF72FFF00F093FAFFF753
:1032900003FECCE1D04B1878FEF78AF8A02010216D
:1032A000C005FEF763FD002800D0C8E1A03008216A
:1032B000C005FEF75BFD002800D0C0E1002406E059
:1032C00000F01EFD6420FEF773F80134E4B2052C13
:1032D000F6D9C24B1B78012B05D0002B06D1BF4B72
:1032E00001221A7002E0BD4B00221A70BA4B187806
:1032F000FEF75EF8A3E100F003FD6420FEF758F846
:103300000134E4B2052CF6D9B54B1B78022B00D062
:1033100095E100F09BFDB34C2078C0B200F016FDA3
:1033200005002078C0B200F017FD0400AE4B01226A
:103330001A700BE00025A84B1878FEF739F8A0208A
:103340001021C005FEF712FD002816D0A64B1B78F1
:10335000012B33D1A24B1B78022B2FD1280000F078
:1033600009FDA0200821C005FEF700FD0028E6D1D8
:10337000002DDFD10135EDB2DDE700F0C1FC9A4B45
:1033800002221A70944B1878FEF712F8DEE7002C30
:1033900006D10134E4B2904B1878FEF709F821E029
:1033A0000024F8E72C008C4B1878FEF701F8A020D9
:1033B0001021C005FEF7DAFC00281AD08A4B1B78D2
:1033C000022B43D1864B1B78022B3FD1200000F00B
:1033D000D1FCA0200821C005FEF7C8FC0028E6D1DA
:1033E000012DD4D0002DE2D1082CDBD80134E4B279
:1033F000D9E700F085FC7C4B03221A70A8002D1839
:103400006B00DBB2774A137010780419E4B21470C1
:1034100000F040FD754C2078C0B200F097FC05002C
:103420002078C0B200F098FC04006B4B1878FDF7D0
:10343000BFFFC3E70025684B1878FDF7B9FFA02050
:103440001021C005FEF792FC002816D0664B1B78B1
:10345000032B28D1624B1B78022B24D1280000F0CB
:1034600089FCA0200821C005FEF780FC0028E6D1D9
:10347000042DDFD80135EDB2DDE700F041FC5A4BF9
:1034800004221A70544B1878FDF792FFDEE70024EF
:10349000514B1878FDF78CFFA0201021C005FEF7D6
:1034A00065FC002816D0504B1B78042B5AD14C4B8E
:1034B0001B78022B56D1200000F05CFCA0200821D4
:1034C000C005FEF753FC0028E6D1082CDFD80134F4
:1034D000E4B2DDE700F014FC434B05221A70A800AB
:1034E0002D186B00DBB2414A137010780419E4B256
:1034F000147000F0CFFC384B1878FDF759FF002509
:103500000024D0E7A024E405002240212000FEF79B
:1035100034FC002280212000FEF72FFC0022022133
:103520003348FEF72AFC8021002289002000FEF7A4
:1035300024FC80210022C9002000FEF71EFC80210F
:10354000002289012000FEF718FC80210022C90119
:103550002000FEF712FCA0201021C005FEF706FC9B
:10356000002849D0204B1B78052B00D0CCE61C4B03
:103570001B78022B00D0C7E600F068FC1D4B1B78BF
:10358000DB07BFD4A024E405012240212000FEF780
:10359000F4FB012280212000FEF7EFFB0122022133
:1035A0001348FEF7EAFB8021012289002000FEF784
:1035B000E4FB80210122C9002000FEF7DEFB802110
:1035C000012289012000FEF7D8FB80210122C901D8
:1035D0002000FEF7D2FBBEE753030020CC02002000
:1035E0000801002052030020EC00002051030020BD
:1035F000000400500E03002000F082FB0024614B09
:103600001C70614B1C7000F045FC604B01221A706D
:103610005F4B1C705F4B1878FDF7CAFEA2E75B4B4F
:103620001B78012B43D0594B1B78002B77D0A0205F
:103630000821C005FEF79AFB002800D12AE6534B6B
:103640001B78022BEBD1A024E405002201212000ED
:10365000FEF793FB002240212000FEF78EFB0022A4
:1036600080212000FEF789FB002202214A48FEF754
:1036700084FB8021002289002000FEF77EFB802150
:103680000022C9002000FEF778FB8021002289017A
:103690002000FEF772FB80210022C9012000FEF706
:1036A0006CFB3C4B1878FDF783FE00242AE6A02033
:1036B00001220121C005FEF760FB384B1B78DBB20D
:1036C000374A1268934226D800F0C0FB00F0ACF9EC
:1036D000344F3878C0B2344E3178C9B22A4D2A7886
:1036E000D2B2012300F068F9FFF7E6FB2F4C2078F7
:1036F000012100F053F900F0EDF93878C0B23178CB
:10370000C9B22A78D2B2002300F056F920780021FD
:1037100000F044F987E7322000F0A8FA83E7A024FC
:10372000E405002201212000FEF727FB00224021B2
:103730002000FEF722FB002280212000FEF71DFB67
:10374000002202211448FEF718FB80210022890084
:103750002000FEF712FB80210022C9002000FEF7A6
:103760000CFB8021002289012000FEF706FB80214E
:103770000022C9012000FEF700FB01210020FEF716
:103780001FFB54E7EC0000200E030020080100207E
:103790000F03002053030020000400500601002006
:1037A000E8000020520300205103002028000020E0
:1037B0007047000010B50D4B14221A701B78DBB255
:1037C0000B490B7000230B490B700B490B700B4915
:1037D000052008700A490A700A4A13700A4BC82269
:1037E0001A700A48FFF71CFA10BDC0460C030020EF
:1037F0000F030020080100200D03002050030020CB
:1038000006010020EC0000205303002010030020DC
:1038100010B50400022804D0082C0AD0102C1AD0AD
:1038200010BD154A136801331360144B01221A703E
:10383000F2E7134B00221A70124B1B78002BEDD1CC
:10384000104B01321A70FFF7BFFC00230E4A1360C1
:103850000E4A1370E2E70A4B00221A70094B1B78DC
:10386000002BDDD1074B02321A70FFF7ADFC074B7E
:1038700000221A70D4E7C046C802002004010020CC
:103880000F03002008010020E80000200D030020A5
:1038900010B502688023DB059A4200D010BD254B8D
:1038A0001968254A116000211960244B1B78DBB28E
:1038B0001268934225D9204B19682148FCF724FC53
:1038C000204B186018683C21FCF71EFC1E4B18604A
:1038D0001E4B1B78012B17D11D4A13780133DBB225
:1038E00013701278D2B21B4B1B78DBB29A420BD901
:1038F000164B00221A70184B1B78DBB2174A137054
:1039000002E0134B00221A70144B1A78D2B2124BF9
:103910001B78DBB29A4209D2114B1B78002BBDD128
:103920000E4A13780133DBB21370B7E7074B00225E
:103930001A70B3E7C8020020E8000020060100204A
:1039400040420F004C030020080300200801002023
:103950000D030020500300200C0300200F03002063
:10396000CC02002000B583B00A4B984200D9002059
:10397000FDF74EFB0022084BFCF75AFDFCF73AFD21
:103980000190002300E00133019A9A42FBD803B072
:1039900000BDC046400D03000000E03F002205E0EE
:1039A000044B9B186933FF33197001329042F7DCE6
:1039B0007047C0460C010020F0B5C64600B50700B0
:1039C00088461D00012306E01901C91A880015491F
:1039D00009188D540133022BF6DD022307E01A018A
:1039E000D21A91000F4A5218414655540133062B02
:1039F000F5DD042610E0BC00E4190A214046FCF77E
:103A000083FBC0B220183201921B9100054B5B185A
:103A10001D5401301D540136062EECDD04BC9046C9
:103A2000F0BDC0460C010020002303E0084A01213C
:103A3000D1540533372BF9DD002205E0044B9B18E8
:103A40003C33012119700F32372AF7DD7047C04629
:103A50000C01002010B5062809D880001B4B1B580C
:103A60009F46A02001224021C005FEF786F910BD27
:103A7000A02001228021C005FEF77FF9F7E701228F
:103A800002211348FEF779F9F1E78021A0200122F5
:103A90008900C005FEF771F9E9E78021A020012225
:103AA000C900C005FEF769F9E1E78021A0200122E5
:103AB0008901C005FEF761F9D9E78021A020012224
:103AC000C901C005FEF759F9D1E7C0469C4100087D
:103AD0000004005070B5414B1B78012B04D0404AC4
:103AE00013680133136070BD3C4B00221A70A02490
:103AF000E40540212000FEF740F90022802120004B
:103B0000FEF73BF9002202213648FEF736F9802104
:103B1000002289002000FEF730F980210022C90030
:103B20002000FEF72AF98021002289012000FEF7FB
:103B300024F980210022C9012000FEF71EF93B254F
:103B400047E0264B1B78012B12D0254B1868FFF756
:103B500009FF0134062C12DC23011B1B9A00224BA7
:103B60009B185B5D012BECD12000FFF773FFE8E7AA
:103B70001B4B1A68013A1A601A68013A1A60A024AD
:103B8000E405002240212000FEF7F7F80022802102
:103B90002000FEF7F2F8002202211248FEF7EDF8AD
:103BA0008021002289002000FEF7E7F88021002212
:103BB000C9002000FEF7E1F88021002289012000E1
:103BC000FEF7DBF880210022C9012000FEF7D5F8BE
:103BD000013D002D00DA86E70024BBE70401002048
:103BE00008030020000400500C01002010B5062836
:103BF00009D880001B4B1B589F46A0200022402163
:103C0000C005FEF7BAF810BDA02000228021C00533
:103C1000FEF7B3F8F7E7002202211348FEF7ADF8EC
:103C2000F1E78021A02000228900C005FEF7A5F859
:103C3000E9E78021A0200022C900C005FEF79DF819
:103C4000E1E78021A02000228901C005FEF795F858
:103C5000D9E78021A0200022C901C005FEF78DF818
:103C6000D1E7C046B84100080004005010B5040078
:103C7000FDF79EFB0620FFF7EDFE2000FDF798FB09
:103C80000520FFF7E7FE2000FDF792FB0420FFF779
:103C9000E1FE2000FDF78CFB0320FFF7DBFE062092
:103CA000FFF7A4FF2000FDF783FB0220FFF7D2FE01
:103CB0000520FFF79BFF2000FDF77AFB0120FFF7AF
:103CC000C9FE0420FFF792FF2000FDF771FB0020E2
:103CD000FFF7C0FE0320FFF789FF2000FDF768FB18
:103CE0000220FFF783FF2000FDF762FB0120FFF7B2
:103CF0007DFF2000FDF75CFB0020FFF777FF10BD84
:103D000010B5A024E40540212000FEF73CF88021F6
:103D10002000FEF738F802210B48FEF734F8802126
:103D200089002000FEF72FF88021C9002000FEF74F
:103D30002AF8802189012000FEF725F88021C90199
:103D40002000FEF720F810BD0004005010B50A2135
:103D5000FCF7DAF9C0B210BD10B504000A21FCF777
:103D6000D3F9C0B243011B1A9B001B1A580020183C
:103D7000C0B210BD70B50500A024E40500224021AA
:103D80002000FDF7FAFF002280212000FDF7F5FF5B
:103D9000002202212B48FDF7F0FF8021002289003C
:103DA0002000FDF7EAFF80210022C9002000FDF776
:103DB000E4FF8021002289012000FDF7DEFF802141
:103DC0000022C9012000FDF7D8FF092D06D8AD005B
:103DD0001D4B5B599F460020FFF73CFE70BD012044
:103DE000FFF738FEFAE70020FFF734FE0120FFF767
:103DF00031FEF3E70220FFF72DFEEFE70220FFF789
:103E000029FE0020FFF726FEE8E70220FFF722FE4A
:103E10000120FFF71FFEE1E70220FFF71BFE012054
:103E2000FFF718FE0020FFF715FED7E70320FFF786
:103E300011FED3E70320FFF70DFE0020FFF70AFE77
:103E4000CCE7C04600040050D441000870B50B4DCB
:103E500000220B492800FEF739FE0A4C00222100FF
:103E60002800FEF707FE2278074B1A706278074B8E
:103E70001A70A278064B1A7070BDC046E40200208A
:103E8000D0000020B4020020520300205103002083
:103E90000E03002070B50B4B1B780B4C23700B4BA3
:103EA0001B7863700A4B1B78A3700A4D00220A49E5
:103EB0002800FEF75FFD002221002800FEF7D2FC5B
:103EC00070BDC04652030020F000002051030020C6
:103ED0000E030020E4020020D0020020054B5A6BA4
:103EE00001210A435A63996B802252050A439A635F
:103EF0007047C0460010024070B586B0040014221E
:103F0000002101A800F036F91F4B22689A4201D027
:103F100006B070BD1D4B5A6B8025AD002A435A6315
:103F2000D96A01221143D962DB6A1A400092009BD0
:103F30002026019603230293A02001A9C005FDF7C6
:103F400055FE1348134B0360002343608360C36036
:103F5000802202614561802212018261C661036292
:103F6000FDF760FD00280BD1094BE3649C62002241
:103F700000210C20FDF7E8FC0C20FDF715FDC7E73C
:103F8000FFF716FCF0E7C046002401400010024095
:103F90002C000020080002400268054B9A4200D025
:103FA0007047044A116D8023DB020B431365F7E76A
:103FB000002800400010024010B503688022D2059E
:103FC000934203D00F4A93420ED010BD0E4A936B1A
:103FD00001210B439363002200210F20FDF7B4FC65
:103FE0000F20FDF7E1FCF0E7074A536B04210B4378
:103FF0005363002200211420FDF7A6FC1420FDF7D6
:10400000D3FCE2E700080140001002407047FEE7E1
:104010007047704710B5FDF7BDF910BD10B502200F
:10402000FDF7B6FE10BD10B50820FDF7B1FE10BDBE
:1040300010B51020FDF7ACFE10BD000010B5024811
:10404000FDF777FD10BDC0462C00002010B50248DA
:10405000FDF7AAFB10BDC0467400002010B5024851
:10406000FEF766FE10BDC0461003002010B50248E2
:10407000FEF75EFE10BDC04654030020104B1968C9
:10408000802252000A431A60DA680E490A40DA6058
:104090001A680D490A401A609A6801218A439A6099
:1040A0001A680A490A401A60DA6809490A40DA605F
:1040B00000221A61074B802212059A607047C046A1
:1040C000001002400C40FF88F6FFF6FEFFFFFBFFEA
:1040D000FFFF02FF00ED00E00D488546002103E0F0
:1040E0000C4B5B58435004310B480C4B42189A421E
:1040F000F6D30B4A02E0002313600432094B9A42C4
:10410000F9D3FFF7BBFF00F011F8FFF7ADF8FEE7BA
:104110000020002068420008000000200400002069
:104120000400002090030020FEE7000070B5002688
:104130000C4D0D4C641BA410A64209D1002600F0C2
:1041400021F80A4D0A4C641BA410A64205D170BD8B
:10415000B300EB5898470136EEE7B300EB589847A9
:104160000136F2E760420008604200086042000841
:104170006442000803001218934200D1704719707E
:104180000133F9E7F8B5C046F8BC08BC9E46704755
:0C419000F8B5C046F8BC08BC9E4670475D
:10419C00623A0008703A00087E3A00088A3A000831
:1041AC009A3A0008AA3A0008BA3A0008FA3B000802
:1041BC00083C0008163C0008223C0008323C000871
:1041CC00423C0008523C0008DC3D0008D63D00088B
:1041DC00DE3D0008E63D0008F43D0008FC3D00080B
:1041EC000A3E0008183E00082C3E0008343E000829
:1041FC00030406080C10182030000000000000001A
:10420C00000000000102030406070809000000007A
:10421C0001020304E8050008EA040008EA040008A7
:10422C0008080008E4040008E4040008F00700088B
:10423C0008080008E4040008F0070008E40400087B
:10424C0008080008FE070008FE070008FE07000823
:04425C000C08000842
:04426000E900000869
:04426400C10000088D
:044268000000200032
:04000005080040D9D6
:00000001FF
