:020000040800F2
:100000000020002085280008D9270008DB270008E9
:1000100000000000000000000000000000000000E0
:10002000000000000000000000000000DD270008C4
:100030000000000000000000DF270008E1270008A2
:10004000D5280008D5280008D5280008D52800089C
:10005000D5280008E9270008F3270008FD27000835
:1000600000000000D5280008D5280008D528000881
:10007000D5280008D528000800000000092800083D
:100080000000000000000000000000000000000070
:100090001928000800000000D5280008D52800080D
:1000A00000000000D528000800000000000000004B
:1000B000D5280008D5280008000000000000000036
:1000C00010B5064C2378002B07D1054B002B02D02E
:1000D000044800E000BF0123237010BD040000208D
:1000E0000000000030290008044B10B5002B03D09D
:1000F0000349044800E000BF10BDC04600000000F6
:100100000800002030290008002243088B4274D3E5
:1001100003098B425FD3030A8B4244D3030B8B4208
:1001200028D3030C8B420DD3FF22090212BA030C11
:100130008B4202D31212090265D0030B8B4219D3F2
:1001400000E0090AC30B8B4201D3CB03C01A524112
:10015000830B8B4201D38B03C01A5241430B8B425A
:1001600001D34B03C01A5241030B8B4201D30B0343
:10017000C01A5241C30A8B4201D3CB02C01A52416A
:10018000830A8B4201D38B02C01A5241430A8B422D
:1001900001D34B02C01A5241030A8B4201D30B0216
:1001A000C01A5241CDD2C3098B4201D3CB01C01A30
:1001B000524183098B4201D38B01C01A524143093A
:1001C0008B4201D34B01C01A524103098B4201D328
:1001D0000B01C01A5241C3088B4201D3CB00C01A95
:1001E000524183088B4201D38B00C01A524143080D
:1001F0008B4201D34B00C01A5241411A00D2014632
:10020000524110467047FFE701B5002000F006F8A4
:1002100002BDC0460029F7D076E770477047C04658
:1002200010B50400094B1868FA218900FFF76CFF2C
:1002300000F0E2F9002801D0012010BD01300022B9
:100240002100404200F09EF90020F6E70000002067
:1002500010B5084A136840210B4313600020FFF7D4
:10026000DFFF041E02D00124200010BD02F042FA7C
:10027000FAE7C04600200240024A136801331360C7
:100280007047C04620000020014B18687047C046E8
:100290002000002070B50400FFF7F6FF0500631C86
:1002A00000D00134FFF7F0FF401BA042FAD370BD2D
:1002B00010B582B00400084B18680849FFF724FF06
:1002C0004443019402E0019B013B0193019B002BFD
:1002D000F9D102B010BDC0460000002040420F001E
:1002E00070B5041E00D1E0E0436D002B2ED0636D8D
:1002F000DB0631D421688B6804221A402CD1636D4F
:100300006B4803400630FF3003436365886803236E
:100310000340012B29D06368C0200006834228D007
:100320008020C005834224D080200006834220D054
:100330000B699B009B080B615E4B19685E4801408E
:10034000196019686068014319601BE083655022D9
:10035000835402F0DDF9CAE7636D1022134363652D
:1003600050230022E254012070BD0B68DB0713D438
:10037000D1E70B699B009B080B6121680B696068E2
:1003800003430B612168CB6818208343CB6021684D
:10039000CB68A0680343CB60464B196847480140CF
:1003A00019601968606B40060143196023689968F9
:1003B000C90004D4986880214905014399602168E7
:1003C000CB683F480340CB602068C168E36825697B
:1003D000022D2DD013432022A25C520313432C2262
:1003E000A25C52001343226B1343A269920313438E
:1003F000E269D20313430B43C360636AC222FF3234
:10040000934205D02168CA68A06A03431343CB60B6
:100410002123E35C012B0DD0E36B012B1ED023685D
:100420001A69D2072DD51A6901218A431A6128E079
:100430000422CFE71F33E35C002B06D12268D1688A
:1004400080235B020B43D360E6E7636D20221343F6
:100450006365A36D1F3A1343A365DDE72268136943
:1004600018490B40136121680A69236C606C0343CF
:10047000A06C034313430B612268136901210B43F2
:1004800013612268536907218B43536122685369C2
:10049000A16B0B4353610023A365636D0322934358
:1004A000023A1343636500205EE701205CE7C04623
:1004B000FDFEFFFF08270140FFFFC3FFFFFFFFFD19
:1004C0001902FEFF03FCFFFF70B504000D0050236E
:1004D000C35C012B4BD050230122C25403689A689D
:1004E00052071AD4234A4968914229D0996A2A6846
:1004F0005203520B0A439A622B685B0316D42B6893
:100500009B0305D51C4A11688023DB030B43136052
:1005100050230022E254002070BD436D202213437B
:10052000436550230022C2540120F5E7124A1168A6
:1005300080231B040B4313600A20FFF7B9FEDEE79C
:10054000996A2A685203520B914399622B685B03A4
:1005500004D5094A136809490B4013602B689B03B3
:10056000D6D5054A136806490B401360D0E7022030
:10057000D2E7C0460110000008270140FFFF7FFFBF
:10058000FFFFBFFF70B5002811DB8408134DC03496
:10059000A400625903231840C000FC331E008640AB
:1005A000B24389010B4083401343635170BDC0B215
:1005B0000F220240083A920806329200084BD318E4
:1005C0005D6803242040C000FF2214008440A5433E
:1005D00089010A4082402A435A60E7E700E100E0CF
:1005E00000ED00E01F2318401E3B8340014A1360CA
:1005F0007047C04600E100E001380A4B98420FD82E
:10060000094A50600948036A1B021B0AC0210906F7
:100610000B4303620023936007331360002070478D
:100620000120FCE7FFFFFF0010E000E000ED00E02C
:10063000F0B5C64600B5002338E0052600E00026E8
:10064000AE4035003D430234A400534EA551534CF7
:1006500025684246D4432E0026404A68D20302D57C
:10066000424615432E004D4D2E606D682E002640EB
:100670004A68920302D5424615432E00474D6E60EC
:10068000AD682E0026404A68D20202D54246154384
:100690002E00424DAE60ED682C404A68920202D5B1
:1006A00042462A4314003D4AD46001330A681400CC
:1006B000DC406DD001249C4022409046F5D04D682E
:1006C000022D01D0122D0ED1DD080835AD002F58B6
:1006D00007261E40B6000F22B24097430A69B24077
:1006E00016003E432E504D686E1E012E03D9112D6B
:1006F00001D0122D12D185685F000326BE40B5439C
:100700002E00CD68BD40354385604568A5434A68E5
:100710001609012434409C402C43446007685E0065
:1007200003242500B540ED432F404A681440B440EF
:100730003C430460C46825408C68B4402C43C460CA
:100740004A68D200B1D5164D6C6B012634436C63F8
:100750009C08A51CAD00104EAF5903251D40AD00EF
:100760000F26AE40B743A026F605B04200D166E79B
:100770000C4EB04208D00C4EB04207D00B4EB042E7
:1007800000D15AE706265BE7012659E7022657E71C
:1007900004BC9046F0BDC04600000140000401408A
:1007A000001002400004005000080050001C0050DF
:1007B00003690B4201D1002070470120FCE7002AA9
:1007C00001D1816270478161FCE743695940416111
:1007D0007047000010B5054B5B69184200D110BD91
:1007E000024B586101F074FCF9E7C0460004014077
:1007F000034A116880235B000B4313607047C046B7
:100800000070004010B50C4A13680324A34318433A
:1008100010600A4A1369042003431361012908D0B8
:1008200040BF20BF20BF054A136904218B431361D9
:1008300010BD30BFF7E7C0460070004000ED00E09B
:1008400010B5264BD9680C230B40082B42D00C2B3B
:1008500011D0042B09D0214B5A68520B07231340A7
:10086000013380200002984010BD1C4B1B68DB0642
:1008700032D51B48F8E78A0C0F231340194AD05C85
:10088000890D032211400131144BDB68DB030DD4C9
:10089000124B1B68DB0613D54201121A93019B1AF7
:1008A000DB001B181802FFF72FFCDDE74201121ACC
:1008B00093019B1ADB001B185802FFF725FCD3E7B6
:1008C0004201121A93019B1ADB001B189802FFF7D2
:1008D0001BFCC9E70448C7E70448C5E7001002400D
:1008E00000093D00A829000800127A000024F40045
:1008F000F0B583B0041E00D165E2C44BDA680C2564
:100900001540DA688026760216400368DB0736D584
:10091000082D2CD00C2D28D06368802252029342DF
:1009200055D0A022D202934258D0B84B1A68B84989
:100930000A401A601A68802149020A400192019A0D
:100940001A68B4490A401A606368002B52D0FFF756
:100950009BFC0700AD4B1B689B0310D4FFF794FC76
:10096000C01B6428F6D903202EE2002ED4D0A74B5A
:100970001B689B0303D56368002B00D126E2236824
:100980009B076CD5E3689A0605D5A048026820212C
:100990000A4302608B43042D3CD00C2D38D0002B31
:1009A00000D1AEE099490A680920824313430B60E5
:1009B000FFF76AFC0600954B1B685B0700D597E0C4
:1009C000FFF762FC801B0228F5D90320FCE18F4A67
:1009D000116880235B020B431360B5E78B4B1968EA
:1009E0008022D2020A431A601968802252020A4306
:1009F0001A60A9E7FFF748FC0700844B1B689B03BC
:100A0000BDD5FFF741FCC01B6428F6D90320DBE10C
:100A1000002EC4D17D4A1268520702D5002B00D1A6
:100A2000D6E17A4E72687C490A40216909020A437C
:100A30007260326809218A4313433360FFF700FF75
:100A4000F26812090F231340744AD35CD840744BE8
:100A500018600020FFF7E4FB002800D0B4E1236811
:100A6000DB062CD5002D5FD1684B1B689B0503D599
:100A7000A369002B00D1ADE1644A536869490B407A
:100A8000216A0B43536053681B021B0AE169090684
:100A90000B435360236A590B013180231B028B40A7
:100AA000D16809090F220A405C498A5CD3405C4A3C
:100AB00013600020FFF7B4FB002800D084E1236816
:100AC0001B077DD56369002B67D0504A136D012148
:100AD0000B431365FFF7D8FB06004C4B1B6D9B07C0
:100AE0006ED4FFF7D1FB801B0228F6D903206BE1FF
:100AF00046494B68484A13402269120213434B602F
:100B0000ADE7424A136801218B431360FFF7BCFB3A
:100B100006003E4B1B685B07A1D5FFF7B5FB801BAA
:100B20000228F6D903204FE1A369002B22D0374ACF
:100B3000116880235B000B431360FFF7A5FB0600E1
:100B4000324B1B689B0506D4FFF79EFB801B0228D7
:100B5000F6D9032038E12D4A536832490B40216A07
:100B60000B43536053681B021B0AE16909060B43E0
:100B70005360A4E7254A13682B490B401360FFF725
:100B800083FB0600214B1B689B0598D5FFF77CFB78
:100B9000801B0228F6D9032016E11C4A136D01219F
:100BA0008B431365FFF770FB0600184B1B6D9B070B
:100BB00006D5FFF769FB801B0228F6D9032003E165
:100BC00023685B0700D48CE0104B9B6BDB001BD4CD
:100BD0000E4A916B80235B050B4393630126134BF5
:100BE0001B68DB0526D5A36880225200934235D0CE
:100BF000002B4BD1054B1A6D0B490A401A651A6D33
:100C00000B490A401A652FE00026E8E70010024071
:100C1000FFFFFEFFFFFFFBFFFFE0FFFFB42900081F
:100C200000000020FF1FFFFFFFFEFFFF00700040DD
:100C3000FFFBFFFF6B4A116880235B000B431360CF
:100C4000FFF722FB0700674B1B68DB05CBD4FFF7E0
:100C50001BFBC01B6428F6D90320B5E0624A116D66
:100C600080235B000B431365A368002B28D0FFF79C
:100C70000BFB07005C4B1B6D9B0530D4FFF704FB9F
:100C8000C01B5A4B9842F5D903209DE0A022D20008
:100C9000934209D0544B1A6D55490A401A651A6D92
:100CA00054490A401A65DFE74F4B196D013AFF3A84
:100CB0000A431A65196D802252000A431A65D3E768
:100CC000FFF7E2FA0700484B1B6D9B0507D5FFF7BE
:100CD000DBFAC01B454B9842F5D9032074E0012E86
:100CE0001AD0636A002B00D176E00C2D4FD0022B76
:100CF00018D03D4A136840490B401360FFF7C4FA0F
:100D00000400394B1B689B013FD5FFF7BDFA001B60
:100D10000228F6D9032057E0334A936B37490B403A
:100D20009363DEE7304A136833490B401360FFF7E3
:100D3000ABFA05002C4B1B689B0106D5FFF7A4FA04
:100D4000401B0228F6D903203EE02749CB682C4AF5
:100D50001340A26AE06A0243206B02431343CB6054
:100D60000A6880235B0413430B60FFF78DFA0400CD
:100D70001D4B1B689B0106D4FFF786FA001B022857
:100D8000F6D9032020E000201EE000201CE0012B0B
:100D900024D0154BDA6880235B021340A16A8B4292
:100DA00001D0012010E0F0239B031340E16A8B4245
:100DB00001D0012008E0C0231B041A40236B9A4293
:100DC0000ED0012000E0012003B0F0BD0120FBE7C0
:100DD0000120F9E70120F7E70020F5E70120F3E71C
:100DE0000020F1E70070004000100240881300006E
:100DF000FFFEFFFFFFFBFFFFFFFFFFFEFFFFFFEF19
:100E0000FFFF02FF70B504000D00002800D1BAE01A
:100E10005F4B1A68012313408B420BD25C490B686D
:100E2000012293432B430B600B681A40AA4201D066
:100E30000120A9E023689B0706D5564AD368F02114
:100E40008B43A1680B43D3602368DB0764D56368D9
:100E5000022B09D0032B29D0012B2DD04D4A12682B
:100E6000920506D401208FE04A4A1268920300D40A
:100E70008BE04849CA68032082431343CB60FFF7E5
:100E800003FA06006368022B1CD0032B28D0012B29
:100E900034D0404BDB680C221A423DD0FFF7F4F906
:100EA000801B3D4B9842F4D903206DE0394A12680B
:100EB0009201DED4012067E0364A12685207D8D486
:100EC000012061E0334BDA680C231340082B23D058
:100ED000FFF7DAF9801B304B9842F3D9032053E037
:100EE0002C4BDA680C2313400C2B15D0FFF7CCF9F0
:100EF000801B294B9842F3D9032045E0254BDA6843
:100F00000C231340042B07D0FFF7BEF9801B224BA4
:100F10009842F3D9032037E01D4B1A680123134090
:100F2000AB420BD91A490B68012293432B430B6048
:100F30000B681A40AA4201D0012025E023685B0714
:100F400006D5144AD36815490B40E1680B43D360BA
:100F500023681B0707D50F49CB68114A1340226944
:100F6000D2001343CB60FFF76BFC0A4BDA6812091F
:100F70000F2313400B4AD35CD8400B4B1860002062
:100F8000FFF74EF900E0012070BD0120FCE7C046EC
:100F9000002002400010024088130000FFF8FFFF0D
:100FA000FFC7FFFFB42900080000002070B504004F
:100FB00003689B064CD55B4B9B6BDB0000D571E057
:100FC000584A916B80235B050B4393630125564B75
:100FD0001B68DB0568D5534B1968C0239B03194078
:100FE000626813408B4206D0C0239B021100194057
:100FF000994200D16DE04B4B1B6DC02189020B4023
:1010000015D00A409A4212D023689B060FD5454B53
:10101000186D464A02401E6D80210903314319654F
:10102000196D434E314019651A65C30558D463687C
:10103000C022920219001140914260D039490B6DD3
:10104000C02292026068024013430B65012D60D0FC
:1010500023689B0706D5334AD36C0C218B43A168C8
:101060000B43D36423685B0706D52E4AD36C314902
:101070000B40E1680B43D36423681B0706D5294A5C
:10108000D36C2D490B4021690B43D36423681B06A5
:1010900045D5244AD36C29490B4061690B43D3647D
:1010A000002070BD002592E71F4A116880235B0075
:1010B0000B431360FFF7E8F806001B4B1B68DB05CA
:1010C00000D588E7FFF7E0F8801B6428F5D90320F6
:1010D000E7E7144B1B689B0300D48CE70120E0E793
:1010E000FFF7D2F806000F4B1B6D9B059FD4FFF74F
:1010F000CBF8801B124B9842F5D90320D1E7094960
:101100000A6810480240C0208003034013430B606C
:1011100094E70A008B6B0C490B40936398E700201F
:10112000BFE7C0460010024000700040FFFFFCFF18
:10113000FFFFF7FFFFF3FFFFFFCFFFFFFFFFF3FF0F
:1011400088130000FFFFCFFFFFFFFFEF70B5040023
:101150000268D368A0218B43D360FFF795F80500A0
:101160002368DB689B0608D4FFF78EF8401BFA2340
:101170009B009842F4D9032000E0002070BD70B5B8
:1011800004000368DA68520601D5002070BD012210
:101190005242DA60FFF778F805002368DB685B06E7
:1011A00008D4FFF771F8401BFA239B009842F4D94A
:1011B0000320EBE70020E9E770B5041E63D021238C
:1011C000C35C002B40D021230222E2542368C832A2
:1011D0005A622368773A5A622000FFF7D0FF051E53
:1011E00038D12268936829490B40936021688A6846
:1011F000636820690343A069034313438B6023683A
:10120000E2681A6121680B69A268120413430B613A
:101210002268D36880218B43D3602268D36C7D39E8
:101220008B43D3642168CB6CE2696069024313434A
:10123000CB6423689B689B0615D52368FF225A62FE
:101240002123FE3AE2540CE020330022C25401F084
:1012500089FAB8E72368FF225A622123FB3AE25455
:101260000125280070BD2000FFF770FF0028E4D0A2
:101270002368FF225A622123FB3AE254013B0022F9
:10128000E2540125EDE70125EBE7C046BFFF8FFFE4
:10129000002302E001330A38C0B20928FAD81B0142
:1012A000DBB2184370470000F8B504000E0020239D
:1012B000C35C012B00D178E020230121C15401330C
:1012C0000131C154002A43D103689B685B0601D4F5
:1012D0000023F3703078FFF7DBFF05047078FFF729
:1012E000D7FF00020543B078FFF7D2FF0543F0783F
:1012F000000405432368CA225A622368773A5A6277
:101300002000FFF73CFF071E33D123682848054023
:101310001D602268936827490B40936021688B68A1
:10132000F2683069024313438B602268D3688021DE
:101330008B43D36023689B689B0626D52368FF22D6
:101340005A622123FE3AE254013B0022E2541AE0A1
:1013500003689B685B0601D40023F37035782D0485
:10136000707800020543B0780543F0780004054327
:10137000C0E72368FF225A622123FB3AE254013B73
:101380000022E25401273800F8BD2000FFF7DEFEFE
:101390000028D3D02368FF225A622123FB3AE2546B
:1013A000013B0022E2540127EDE70227EBE7C046AC
:1013B0007F7F7F00FFFFFBFF70B504000E0020233E
:1013C000C35C012B69D020230121C15401330131B9
:1013D000C154002A06D17378D90603D510218B4356
:1013E0000A337370002A31D1F078FFF751FF0504FA
:1013F0007078FFF74DFF00020543B078FFF748FF14
:1014000005433078400305432368CA225A622368A3
:10141000773A5A622000FFF7B2FE061E21D12368F8
:101420001F4805405D602268D36880218B43D360EC
:1014300023689B689B0620D52368FF225A622123DC
:10144000FE3AE254013B0022E25414E0F5782D0408
:10145000707800020543B0780543307840030543B7
:10146000D2E72368FF225A622123FB3AE254013B70
:101470000022E2540126300070BD2000FFF766FE16
:101480000028D9D02368FF225A622123FB3AE25474
:10149000013B0022E2540126EDE70226EBE7C046BD
:1014A0003FFFFF00020993009B185A000F231840CA
:1014B0008018C0B270470000F8B50C0003689B6A42
:1014C0004B6003681B695B045B0C8B6003681B68E3
:1014D0000E490B401E0C3F20304020701D0A7F2714
:1014E0003D4065701F40A77040213140E170002AE7
:1014F0000AD1FFF7D7FF20702800FFF7D3FF6070F5
:101500003800FFF7CFFFA0700020F8BD7F7F7F007D
:1015100070B50C0003685B680E490B40180CE07056
:10152000190A1F260E4066703F251D40A5705B0BF3
:1015300007210B402370002A0AD1FFF7B3FFE070A8
:101540003000FFF7AFFF60702800FFF7ABFFA0701F
:10155000002070BD3FFFFF0003688022D20590424B
:1015600005D0124A904202D0114A904203D1702213
:1015700093434A6813438022D205904205D00B4A18
:10158000904202D00A4A904203D10A4A1340CA68E4
:101590001343802293430A69134303608B68C36239
:1015A0000B688362012343617047C0460008014015
:1015B00000140140FFFCFFFF30B5036A046A0125F7
:1015C000AC4304628469EF35AC43120122430A2420
:1015D000A34319438261016230BD000030B5036A44
:1015E0001024A34303628469036A054D2C4012034F
:1015F0002243A024A343090119438261016230BD43
:10160000FF0FFFFF0B0081687022914319430723EE
:10161000194381607047000030B58468034D2C4049
:101620001B021A4311432143816030BDFF00FFFFBD
:1016300070B5041E14D03923C35C002B0AD03925A1
:1016400002236355211D2068FFF786FF01236355A0
:10165000002070BD38330022C25401F093F8EEE749
:101660000120F6E70268D36801210B43D3600268CA
:10167000916807230B40062B03D0136801210B430D
:10168000136000207047000010B504003823C35CCD
:10169000012B66D038230122C25401330132C254D7
:1016A000026893683048034093600B68402B4ED02B
:1016B00015D9602B41D021D9702B2BD080229201DB
:1016C000934232D1CB684A6889682068FFF7A4FF4B
:1016D000226891688023DB010B43936025E0102B87
:1016E00007D004D9202B04D0302B02D01DE0002BD2
:1016F0001BD119002068FFF785FF16E0502B14D18D
:10170000CA6849682068FFF757FF50212068FFF733
:1017100079FF0AE0CB684A6889682068FFF77CFF98
:101720002268936877210B43936039230122E254A6
:10173000013B0022E254002010BDCA6849682068BD
:10174000FFF74CFF60212068FFF75CFFEDE7CA68F8
:1017500049682068FFF730FF40212068FFF752FFFB
:10176000E3E70220E8E7C0468800FFFF70477047C4
:101770007047704710B5040003681A6992070FD5C7
:10178000DA6892070CD5032252421A6101230376CC
:1017900003689B699B0755D0FFF7E9FF0023237679
:1017A00023681A69520712D5DA6852070FD5052245
:1017B00052421A610223237623689A69C0239B0050
:1017C0001A4245D02000FFF7D2FF0023237623687A
:1017D0001A69120710D5DA6812070DD5092252428C
:1017E0001A61042323762368DB699B0737D0200026
:1017F000FFF7BDFF0023237623681A69D20612D5AE
:10180000DA68D2060FD5112252421A6108232376D4
:101810002368DA69C0239B001A4227D02000FFF713
:10182000A6FF0023237623681A69D20702D5DA6857
:10183000D20722D423681A69520602D5DA68520602
:1018400022D410BDFFF792FF2000FFF791FFA5E71C
:101850002000FFF78BFF2000FFF78AFFB5E720008D
:10186000FFF784FF2000FFF783FFC3E72000FFF7A7
:101870007DFF2000FFF77CFFD3E7022252421A616E
:10188000200000F07BFCD5E7412252421A61200083
:10189000FFF76FFFD5E7F0B53823C35C012B1BD0F2
:1018A000382601239C46835539270133C3550268E6
:1018B000546893687025AC430D682C438025AB4376
:1018C0001D004B682B435460026893606346C35508
:1018D000002383550020F0BD0220FCE7F0B589B05D
:1018E0001422002103A801F01BF8314BD96A04220D
:1018F0001143D962D96A0A400092009ADA6A012536
:101900002A43DA62DA6A2A400192019ADA6A0227E5
:101910003A43DA62DB6A3B400293029B254CA026E5
:10192000F605002221003000FEF749FF00220221C7
:101930002148FEF744FF039404950024059406947F
:1019400003A93000FEF774FE03971C4B0493059423
:1019500003A93000FEF76CFE18230393184B049381
:10196000059503A93000FEF763FE039704950594DF
:10197000069403A91048FEF75BFE00220021052013
:10198000FEF700FE0520FEF72DFE002200210620B6
:10199000FEF7F8FD0620FEF725FE002200210720B5
:1019A000FEF7F0FD0720FEF71DFE09B0F0BDC046B2
:1019B00000100240C1660000000400500000111039
:1019C00000002110F0B587B001AE142200213000D4
:1019D00000F0A6FF00250095144C154B2360402312
:1019E00063603F33A3608033E36025616561A56177
:1019F000E5612000FFF7E0FB012737701E237370BD
:101A00000A33B370F570F5603561002231002000B3
:101A1000FFF74AFC6B461F705F709F70DD700022FD
:101A200069462000FFF7C8FC07B0F0BD380200206F
:101A30000028004030B587B01022002102A800F035
:101A40006FFF08220021684600F06AFF0E4C8023D9
:101A5000DB0523600D4B63600025A5600C4BE36044
:101A6000256165612000FFF7E3FD80235B010293A0
:101A700002A92000FFF708FE0095019569462000A5
:101A8000FFF709FF07B030BD640200209F0F000080
:101A90003F1F000030B587B01022002102A800F0DF
:101AA0003FFF08220021684600F03AFF0E4C0F4B22
:101AB00023601F2363600025A560163BE36025615A
:101AC00065612000FFF7B4FD80235B01029302A94A
:101AD0002000FFF7D9FD0095019569462000FFF72A
:101AE000DAFE07B030BDC046040300200008014004
:101AF00010B582B008220021684600F011FF194C91
:101B0000194B23600023E3638022D2056260A36047
:101B1000A36301222261E3601F32A3540132A35464
:101B2000A362C222FF326262963AFF3AA354283A75
:101B300062612363A3616363E3612000FEF7D0FB6E
:101B40000A4B009380235B01019369462000FEF756
:101B5000BBFC074B009369462000FEF7B5FC02B0C2
:101B600010BDC046A4020020002401402000001443
:101B70000000044810B598B0342200210BA800F0F2
:101B8000CFFE1422002106A800F0CAFE1822002170
:101B9000684600F0C5FE1C490A681C4C22408023A0
:101BA0001B0113430B60FEF723FE194A136D2340FC
:101BB000136506230B93FA330D93FF3B0E930F33FC
:101BC0000F930E3B14930024159480231B0316934C
:101BD00080231B0417930BA8FEF78AFE0F2306939E
:101BE0000C3B0793089409940A94012106A8FFF777
:101BF00009F92023009380235B0201936846FFF7D5
:101C0000D5F918B010BDC04600700040FFE7FFFFD7
:101C10000010024070B5FEF71BFBFFF7ABFFFFF7AC
:101C20005DFEFFF7CFFEFFF705FFFFF761FFFFF750
:101C300031FF00F023FA9FE1C24B1878FEF72AFB30
:101C4000A0201021C005FEF7B3FD002800D09BE1C5
:101C5000A0300821C005FEF7ABFD002800D093E1BD
:101C6000002406E000F06CFC6420FEF713FB013456
:101C7000E4B2052CF6D9B44B1B78012B05D0002B10
:101C800006D1B14B01221A7002E0AF4B00221A704C
:101C9000AC4B1878FEF7FEFA76E100F051FC6420B8
:101CA000FEF7F8FA0134E4B2052CF6D9A74B1B78FD
:101CB000022B00D068E1A64B01221A7000250BE030
:101CC0000025A04B1878FEF7E5FAA0201021C005EA
:101CD000FEF76EFD002812D09D4B1B78012B59D1C9
:101CE000280000F053FCA0200821C005FEF760FD8D
:101CF0000028EAD1002DE3D10135EDB2E1E700F093
:101D00001FFC934B02221A708E4B1878FEF7C2FA12
:101D1000E2E7002C06D10134E4B28A4B1878FEF7D2
:101D2000B9FA1DE00024F8E72C00864B1878FEF77E
:101D3000B1FAA0201021C005FEF73AFD002816D008
:101D4000834B1B78022B33D1200000F01FFCA02016
:101D50000821C005FEF72CFD0028EAD1012DD8D0BE
:101D6000002DE6D1082CDFD80134E4B2DDE700F025
:101D7000E7FB774B03221A70AB00ED186B00DBB268
:101D80001C19744B1C7000F091FC6E4B1878FEF718
:101D900081FA00250024D3E700256A4B1878FEF766
:101DA00079FAA0201021C005FEF702FD002812D00C
:101DB000674B1B78032B24D1280000F0E7FBA02001
:101DC0000821C005FEF7F4FC0028EAD1042DE3D871
:101DD0000135EDB2E1E700F0B3FB5D4B04221A7070
:101DE000584B1878FEF756FAE2E70024554B18785E
:101DF000FEF750FAA0201021C005FEF7D9FC0028FC
:101E000012D0534B1B78042B53D1200000F0BEFBA3
:101E1000A0200821C005FEF7CBFC0028EAD1082C41
:101E2000E3D80134E4B2E1E700F08AFB484B052235
:101E30001A70AB00ED186B00DBB21C19464B1C701E
:101E400000F034FC3F4B1878FEF724FA00250024FC
:101E5000D7E7A024E405002240212000FEF7AFFCD4
:101E6000002280212000FEF7AAFC002202213B482C
:101E7000FEF7A5FC8021002289002000FEF79FFCD0
:101E800080210022C9002000FEF799FC8021002259
:101E900089012000FEF793FC80210022C901200067
:101EA000FEF78DFCA0201021C005FEF781FC002864
:101EB00034D0274B1B78052B00D0F7E600F0D2FB7F
:101EC000274B1B78DB07C4D4A024E4050122402162
:101ED0002000FEF774FC012280212000FEF76FFC39
:101EE000012202211D48FEF76AFC8021012289009F
:101EF0002000FEF764FC80210122C9002000FEF7CB
:101F00005EFC8021012289012000FEF758FC80211F
:101F10000122C9012000FEF752FCC3E700F010FBCC
:101F200000240B4B1C700E4B1C7000F0BFFB074BCA
:101F300001221A700B4B1C70024B1878FEF7AAF99D
:101F4000B7E7C04602030020200200205C0000200A
:101F50004000002001030020000300200004005086
:101F600061020020620200203C4B1B78012B43D011
:101F70003A4B1B78002B66D0A0200821C005FEF745
:101F800017FC002800D157E6344B1B78022BEBD10D
:101F9000A024E405002201212000FEF710FC00220D
:101FA00040212000FEF70BFC002280212000FEF7DC
:101FB00006FC002202212A48FEF701FC80210022B3
:101FC00089002000FEF7FBFB80210022C9002000D1
:101FD000FEF7F5FB8021002289012000FEF7EFFBD0
:101FE00080210022C9012000FEF7E9FB1D4B187873
:101FF000FEF750F9002457E6A02001220121C00578
:10200000FEF7DDFB184B1B78DBB2184A12689342CF
:1020100015D800F027FB00F01DF9154E3278154D4C
:102020002978154C2078012300F0DEF800F068F9DB
:10203000327829782078002300F0D6F898E732200B
:1020400000F034FA94E7A02000220121C005FEF739
:10205000B6FB01210020FEF7D5FB8DE75C000020D8
:1020600000040050020300205A0000203C00002021
:1020700061020020000300200103002010B50C4B7A
:1020800014221A701B78DBB20A490B7000230A492C
:102090000B700A490A700A4A13700A4BC8221A7058
:1020A0000948FFF7DFFA0948FFF7DCFA10BDC04620
:1020B00060020020620200205C0000205A00002024
:1020C00040000020020300206402002004030020DE
:1020D00070B50400022804D0082C1ED0102C30D07B
:1020E00070BD1D4B01221A701C4D2A6893009B186D
:1020F0005A001B4E326028681A49FEF705F81A4B41
:10210000186000232B6031681848FDF7FDFF83003D
:1021100018184300164A1360DEE7164B1B78022B93
:1021200002D0154B00221A70124B1B78002BD5D110
:10213000104B01221A70FFF71DFD0D4B00221A6093
:10214000CCE70C4B1B78002BCAD10A4B02221A7029
:10215000FFF710FDC4E7C04658000020040200202D
:10216000A0020020260200005C020020A0860100E0
:102170003C0000205C00002062020020134B02683B
:102180009A4205D002688023DB059A4208D0704746
:102190000F4A1368013313600E4B00221A70F1E7E7
:1021A0000D4B1A78D2B20D4B1B78DBB29A4209D292
:1021B0000B4B1B78002BEAD1074A13780133DBB2B3
:1021C0001370E4E7074B00221A70E0E700080140B3
:1021D000040200205900002062020020600200205A
:1021E000200200205C000020F0B5C64600B50700C4
:1021F00088461D00002306E01901C91A8800144909
:1022000009188D540133022BF6DD032307E01A0170
:10221000D21A91000E4A5218414655540133062BEA
:10222000F5DD04260EE0BC00E4190A214046FDF766
:102230006BFFC0B2241833019B1B9A00044B9B1800
:102240001D550136062EEEDD04BC9046F0BDC0469D
:1022500060000020002303E0084A0121D154053327
:10226000372BF9DD002205E0044B9B183C3301219C
:1022700019700F32372AF7DD7047C0466000002022
:1022800010B5062809D880001B4B1B589F46A0207C
:1022900001224021C005FEF792FA10BDA0200122C4
:1022A0008021C005FEF78BFAF7E7012202211348CF
:1022B000FEF785FAF1E78021A02001228900C00500
:1022C000FEF77DFAE9E78021A0200122C900C005C0
:1022D000FEF775FAE1E78021A02001228901C005FF
:1022E000FEF76DFAD9E78021A0200122C901C005BF
:1022F000FEF765FAD1E7C0464829000800040050FF
:1023000070B5444B1B78012B00D070BD414B0022AF
:102310001A70414B01321A70A024E40500224021BA
:102320002000FEF74CFA002280212000FEF747FA39
:10233000002202213948FEF742FA8021002289005A
:102340002000FEF73CFA80210022C9002000FEF7A1
:1023500036FA8021002289012000FEF730FA802120
:102360000022C9012000FEF72AFA3B254AE020009E
:10237000FFF786FF16E02A4B01211970284B1B78C6
:10238000012BFBD00132274B1B689A42F3D9013451
:10239000062C09DC23011B1B9A00234B9B185B5D59
:1023A000012BE4D00022EEE7A024E4050022402126
:1023B0002000FEF704FA002280212000FEF7FFF93A
:1023C000002202211548FEF7FAF980210022890037
:1023D0002000FEF7F4F980210022C9002000FEF75A
:1023E000EEF98021002289012000FEF7E8F9802122
:1023F0000022C9012000FEF7E2F9064B1B78012BF1
:1024000004D0013D002D01DB0024C1E7024B002276
:102410001A707AE7580000205B000020000400508A
:10242000590000205C0200206000002010B5062842
:1024300009D880001B4B1B589F46A020002240213A
:10244000C005FEF7BCF910BDA02000228021C00508
:10245000FEF7B5F9F7E7002202211348FEF7AFF9BE
:10246000F1E78021A02000228900C005FEF7A7F92E
:10247000E9E78021A0200022C900C005FEF79FF9EE
:10248000E1E78021A02000228901C005FEF797F92D
:10249000D9E78021A0200022C901C005FEF78FF9ED
:1024A000D1E7C046642900080004005010B50400BC
:1024B000FDF7F0FE0620FFF7E3FE2000FDF7EAFE41
:1024C0000520FFF7DDFE2000FDF7E4FE0420FFF706
:1024D000D7FE2000FDF7DEFE0320FFF7D1FE062029
:1024E000FFF7A4FF2000FDF7D5FE0220FFF7C8FE8E
:1024F0000520FFF79BFF2000FDF7CCFE0120FFF732
:10250000BFFE0420FFF792FF2000FDF7C3FE00206E
:10251000FFF7B6FE0320FFF789FF2000FDF7BAFEA4
:102520000220FFF783FF2000FDF7B4FE0120FFF734
:102530007DFF2000FDF7AEFE0020FFF777FF10BD06
:1025400010B5A024E40540212000FEF73EF98021CB
:102550002000FEF73AF902210B48FEF736F98021F8
:1025600089002000FEF731F98021C9002000FEF724
:102570002CF9802189012000FEF727F98021C9016B
:102580002000FEF722F910BD0004005070B50500D0
:10259000A024E405002240212000FEF710F90022CB
:1025A00080212000FEF70BF9002202212B48FEF7C4
:1025B00006F98021002289002000FEF700F9802121
:1025C0000022C9002000FEF7FAF8802100228901CC
:1025D0002000FEF7F4F880210022C9012000FEF758
:1025E000EEF8092D06D8AD001D4B5B599F46002023
:1025F000FFF746FE70BD0120FFF742FEFAE700201C
:10260000FFF73EFE0120FFF73BFEF3E70220FFF756
:1026100037FEEFE70220FFF733FE0020FFF730FE22
:10262000E8E70220FFF72CFE0120FFF729FEE1E793
:102630000220FFF725FE0120FFF722FE0020FFF712
:102640001FFED7E70320FFF71BFED3E70320FFF7AA
:1026500017FE0020FFF714FECCE7C0460004005030
:102660008029000870B50B4D00220B492800FEF7A9
:102670004FFF0A4C002221002800FEF71DFF2278A0
:10268000074B1A706278074B1A70A278064B1A70C3
:1026900070BDC0463802002024000020080200203F
:1026A00001030020000300206102002070B50B4CE4
:1026B0000B4B1B7823700B4B1B7863700A4B1B78FA
:1026C000A3700A4D00220A492800FEF775FE002279
:1026D00021002800FEF7E8FD70BDC0464400002040
:1026E00001030020000300206102002038020020C6
:1026F00024020020054B5A6B01210A435A63996B4F
:10270000802252050A439A637047C0460010024077
:1027100010B586B004001422002101A800F000F9D1
:1027200022680E4B9A4201D006B010BD0C4B596B7B
:10273000802292000A435A63D96A01221143D96266
:10274000DB6A1A400092009B202301931D3B0293F9
:10275000A02001A9C005FDF76BFFE5E700240140BB
:10276000001002400268054B9A4200D07047044AAC
:10277000116D8023DB020B431365F7E7002800404F
:102780000010024010B503688022D205934203D0A6
:102790000F4A93420ED010BD0E4A936B01210B439A
:1027A0009363002200210F20FDF7ECFE0F20FDF7C0
:1027B00019FFF0E7074A536B04210B4353630022D0
:1027C00000211420FDF7DEFE1420FDF70BFFE2E7E9
:1027D00000080140001002407047FEE77047704754
:1027E00010B5FDF749FD10BD10B50220FDF7F2FF51
:1027F00010BD10B50820FDF7EDFF10BD10B510207D
:10280000FDF7E8FF10BD000010B50248FEF7B2FF6B
:1028100010BDC0466402002010B50248FEF7AAFFB2
:1028200010BDC04604030020104B196880225200DE
:102830000A431A60DA680E490A40DA601A680D49DC
:102840000A401A609A6801218A439A601A680A4904
:102850000A401A60DA6809490A40DA6000221A61FF
:10286000074B802212059A607047C0460010024054
:102870000C40FF88F6FFF6FEFFFFFBFFFFFF02FFA5
:1028800000ED00E00D488546002103E00C4B5B584D
:10289000435004310B480C4B42189A42F6D30B4A72
:1028A00002E0002313600432094B9A42F9D3FFF788
:1028B000BBFF00F011F8FFF7ADF9FEE700200020A4
:1028C000D42900080000002004000020040000209B
:1028D00040030020FEE7000070B500260C4D0D4CB3
:1028E000641BA410A64209D1002600F021F80A4D6D
:1028F0000A4C641BA410A64205D170BDB300EB586E
:1029000098470136EEE7B300EB5898470136F2E7F7
:10291000CC290008CC290008CC290008D0290008BF
:1029200003001218934200D1704719700133F9E780
:10293000F8B5C046F8BC08BC9E467047F8B5C0461E
:08294000F8BC08BC9E4670477C
:102948008E2200089C220008AA220008B62200084D
:10295800C6220008D6220008E62200083A24000809
:10296800482400085624000862240008722400083D
:102978008224000892240008F4250008EE250008A7
:10298800F6250008FE2500080C2600081426000875
:102998002226000830260008442600084C26000895
:1029A800030406080C101820300000000000000086
:1029B80000000000010203040607080900000000E7
:0429C8000102030401
:0429CC00E900000816
:0429D000C10000083A
:0429D40000002000DF
:040000050800288542
:00000001FF
