:020000040800F2
:1000000000200020813A0008D5390008D7390008BF
:1000100000000000000000000000000000000000E0
:10002000000000000000000000000000D9390008B6
:100030000000000000000000DB390008DD39000886
:10004000D13A0008D13A0008D13A0008D13A000864
:10005000D13A0008E5390008EF390008F9390008FD
:1000600000000000D13A0008D13A0008D13A000857
:10007000D13A0008D13A000800000000053A000813
:100080000000000000000000000000000000000070
:10009000153A000800000000D13A0008D13A0008E3
:1000A00000000000D13A000800000000000000003D
:1000B000D13A0008D13A000800000000000000001A
:1000C00010B5064C2378002B07D1054B002B02D02E
:1000D000044800E000BF0123237010BD040000208D
:1000E000000000002C3B0008044B10B5002B03D08F
:1000F0000349044800E000BF10BDC04600000000F6
:10010000080000202C3B0008002243088B4274D3D7
:1001100003098B425FD3030A8B4244D3030B8B4208
:1001200028D3030C8B420DD3FF22090212BA030C11
:100130008B4202D31212090265D0030B8B4219D3F2
:1001400000E0090AC30B8B4201D3CB03C01A524112
:10015000830B8B4201D38B03C01A5241430B8B425A
:1001600001D34B03C01A5241030B8B4201D30B0343
:10017000C01A5241C30A8B4201D3CB02C01A52416A
:10018000830A8B4201D38B02C01A5241430A8B422D
:1001900001D34B02C01A5241030A8B4201D30B0216
:1001A000C01A5241CDD2C3098B4201D3CB01C01A30
:1001B000524183098B4201D38B01C01A524143093A
:1001C0008B4201D34B01C01A524103098B4201D328
:1001D0000B01C01A5241C3088B4201D3CB00C01A95
:1001E000524183088B4201D38B00C01A524143080D
:1001F0008B4201D34B00C01A5241411A00D2014632
:10020000524110467047FFE701B5002000F006F8A4
:1002100002BDC0460029F7D076E770477047C04658
:1002200070B500220C4B04000D0001F06FF900289E
:1002300004D12000290001F0CDF870BD064B00224A
:100240002000290000F07EFD01F0C4F880231B0689
:100250009C466044F1E7C0460000E041F0B55746D7
:10026000DE464E464546E0B5834607000E0348008D
:1002700085B092461C00360B400DCD0F002800D1F2
:100280009DE0954B984239D08023F6001B041E4315
:10029000924A7B0F3343994694460300634400938C
:1002A00000230026FF00029323031B0B98466300E4
:1002B000E40F52465B0D019400D1B3E086498B42B6
:1002C00000D19EE04246D100802212040A435146EA
:1002D000490F11438B46814952468C46009963442D
:1002E000CB1A0021D20000932B0063409A460F2EB8
:1002F00000D905E17A4BB6009B599F465B463343D4
:10030000994600D0B8E00223082600270090029307
:10031000CAE7CB463A0002990195019B9A46022909
:1003200027D0032900D180E2012944D06D49009BE8
:100330008C4663441C00002C38DD530700D013E2C8
:10034000D2085B46DB0109D55946674B19408B46FD
:100350008021C9008C46009B63441C00634B9C4277
:1003600007DC5B4664055F075B0217431B0B620DEE
:1003700002E000230027584A00211B031C0B0B0D31
:100380001B05234314055A4A380013401C435346A7
:100390006400DB0764081C43210005B03CBC9046A8
:1003A0009946A246AB46F0BD0122524201231B1BD7
:1003B000382B00DCADE1002200230027DCE75B46A0
:1003C000334399465ED0002E00D18AE1300001F01F
:1003D000A7F803000B3B1C2B00DD7BE11D22D31A89
:1003E0005A460100DA4008398E4013005F46334315
:1003F00099468F403F4B00261B1A0093002302931F
:1004000052E7414653460B433B499B468C46009B73
:10041000634400935B46002B3BD1022300221E4322
:10042000022161E7434613439B4637D04346002BE6
:1004300000D162E1404601F073F803000B3B1C2B36
:1004400000DD53E102004146083A914088461D21F3
:10045000CB1A5146D9400B0041460B439B465346AD
:1004600093401A00009B25499C46604403008C463B
:1004700063440093002137E70323B14600900C2624
:10048000029311E70023009301330426002702930F
:100490000AE70323C3461E43032125E701331E4316
:1004A0000022012120E700239A46802300271B0316
:1004B000094A61E7802349461B03194200D1E2E063
:1004C0005946194200D0DEE00B431B0317001B0BFB
:1004D000A246014A50E7C046FF07000001FCFFFFAB
:1004E000C83B0008FF030000FFFFFFFEFE070000FF
:1004F000FFFF0F800DFCFFFF01F8FFFFF30300007B
:10050000D94500D9CBE000D1C6E03C0048460027E1
:10051000009B013B00935B46160E1B021E43130219
:10052000984633041B0C9946310C0191FFF772FE7B
:100530004A4642430B04210C050019438A4207D95D
:100540008919013D8E4203D88A4201D9851E891935
:10055000881A0199FFF75EFE09048C464A46210479
:1005600064464243090C030021438A4204D9891995
:10057000013B8E4200D8F1E02D041D43AB464346BB
:10058000891A4246280C12041D0C5B46140C2200EA
:100590001B041B0C5A4303946B434443029568436A
:1005A0001B19150CEB189C4203D980246402A44645
:1005B00060441C0C15041B042D0C20185D1981428D
:1005C00077D373D00C1AA24A7D1BAF42BF41944629
:1005D000009B7F426344E01B1C00864200D1DBE0AD
:1005E0000199FFF717FE4A4642430B04290C070006
:1005F00019438A4207D98919013F8E4203D88A429A
:1006000001D9871E8919881A0199FFF703FE090489
:100610004A46894629044D464243090C03002943B2
:100620008A4207D98919013B8E4203D88A4201D9EF
:10063000831E89193F04891A3A00039F1A43380020
:1006400013041B0C584381460298150C6F43434317
:1006500045434846000C8446DB1963449F4203D956
:10066000802040028446654448461F0C00041B0459
:10067000000C7D191818A94200D284E000D17FE057
:1006800001231A4357E680234A461B0313431B03E7
:100690001B0BAA466F4A6FE6BA4200D935E74B46B4
:1006A000DC0758087B081C43FF0734E70024AF42EF
:1006B00089D247444745A4415B466442A419641863
:1006C000013BA6421ED2A0426DD800D1B6E0241A4A
:1006D0009B4678E703005A46283B9A4000279146FC
:1006E00088E6584600F01CFF203072E603005246B0
:1006F000283B9A4093460022B4E6504600F010FF93
:1007000020309AE6A642E2D1B845DCD9341A9B469D
:1007100059E71F2B65DC504C0099A4465C466144A8
:1007200008008C4011008240D940501E82410C4389
:1007300014435A46DA401300620709D00F222240C0
:10074000042A05D02200141D9442894149425B18B5
:100750001A0262D50122002300270DE68A4200D842
:100760000AE7831E891907E70F231340042B00D1E2
:10077000E6E5171D9742924153429B44FA08E0E593
:10078000002800D1D7E57118531EB14227D3A942E2
:1007900015D358D01A0073E7002B00DC04E60123C0
:1007A00000229B44CDE502234744474589415B42F3
:1007B0009C46494289190C19E344241A03E743462D
:1007C0005F0047459B41B8465B429E19023A891932
:1007D000A94200D054E7404500D051E7ABE51A00EC
:1007E000F6E71F215F4649420C1BE740202B07D04C
:1007F0001A49009B8C46634418005B4683401A43A9
:10080000501E82413A4307270023174009D00F2189
:10081000002311401400042995D122005F075B02D8
:100820001B0BD20817430022A6E5802359461B0361
:100830000B431B0317001B0B064A9DE5BD42B2D8B4
:100840009B460024BFE68045B9D31A00C3E7C046E3
:10085000FF030000FF0700001E0400003E0400002C
:10086000F0B55746DE464E464546E0B5834606009F
:100870000F03480087B092461D003F0B400DCC0F80
:10088000002800D16FE0DE4B984238D08023FF0073
:100890001B041F43730F3B430193DA4B0027994618
:1008A00000239B46F60081442B0369001B0B524634
:1008B0009846490DED0F002900D185E0D04B9942B3
:1008C00000D173E04346DA0080231B0413435246F1
:1008D000CC48520F84461343524600206144D20054
:1008E00089442100694000918C46012149448A468F
:1008F0000F2F00D990E0C449BF00CF59BF465B46D7
:100900003B43019300D06AE1022308270026814679
:100910009B46C9E732005846019B61460091022878
:1009200000D175E0032800D1FEE1012800D02CE1C0
:1009300000230027002600253F032A0D3F0BB34864
:1009400012053A4302401B051343009A5B00D1078E
:100950005B080B433000190007B03CBC9046994639
:10096000A246AB46F0BD5B463B43019300D12FE16D
:10097000002F00D1A5E1380000F0D2FD03000B3BB1
:100980001C2B00DD96E11D22D31A5A460100DA40E5
:100990005E4608398F4013008E403B4301939C4BC9
:1009A00000271B1A994600239B467DE74146534684
:1009B0000B4393498C46E144002B00D01AE10222FC
:1009C0000220174300228CE7134300D10DE1434678
:1009D000002B00D181E1404600F0A2FD02000B3A5D
:1009E0001C2A00DD72E10100434608398B4098461D
:1009F0001D239A1A5346D3401A00434613435246C6
:100A00008A404946081A824989468144002068E79D
:100A10007B4B002700268EE7140C1204120C1100E9
:100A2000370C3604350C794328008C462E00604381
:100A30006044834656432100300C80465846794333
:100A400040440291844506D98846802149028C465B
:100A5000E044414602913604010C360C00048B46FA
:100A600081191E0C1B041B0C0391190079438C4641
:100A7000280075436544A8465843050C4544774310
:100A8000A94203D9802149028C466744290C8C462F
:100A900039000004000C2D042D186144AB4405916D
:100AA0005946049101990F043F0C080C3900514339
:100AB0004243904602008C46090C8B4662437C43BD
:100AC00044445C44A04503D98021490288464244FD
:100AD000210C884661460904090C8C4639005943AB
:100AE000434370437E430F0CF6182404BE1964443C
:100AF00042448C46B34203D980235B02984640446B
:100B0000029B61469846049B370443449B46AB4591
:100B1000AD416B420D0405992D0C8C467F1967443D
:100B2000FD18A8465D462D19A542A441934664428E
:100B3000A446C344DC448F42BF4198459B41934542
:100B40009241A445A4415B427F421F43360C52426E
:100B50006442BF192243BF18624638184302D20DBF
:100B6000039913436A020A43501E82416146ED0D08
:100B70002A434E023243D90100D4B3E00126500883
:100B800032400243DE0732435B08224C5444002CBF
:100B900062DD510709D00F201040042805D0101D38
:100BA0009042924152429B180200D90104D5802400
:100BB0001948E400034054441848844200DD27E704
:100BC0005E075B02D2081F0B630516435B0DB2E69E
:100BD000002399460133042700269B4664E603233D
:100BE000019781460C279B465EE6012201201743B0
:100BF000002276E6032303201F43434671E6C046E6
:100C0000FF07000001FCFFFF083C0008FFFF0F800A
:100C10000DFCFFFFFF030000FFFFFFFEFE070000CB
:100C20000023802700933F030026434B83E6019B6C
:100C30003200A446584670E6AC466EE6802701991D
:100C40003F0339422DD03B422BD11F433F033F0B83
:100C500000951600384B6EE601252D1B382D00DD62
:100C600066E61F2D40DC35481C00504416008240CB
:100C70008440EE40501E824134431443EB406207EF
:100C800009D00F222240042A05D02200141D9442CC
:100C9000804140421B181A023ED50123002700263E
:100CA00049E68027019B3F031F433F033F0B00940E
:100CB000214B40E603005A46283B9A400026019209
:100CC0006DE6584600F02CFC203057E603005246F3
:100CD000283B9A401300002293E6504600F020FC87
:100CE00020307BE6CA4650E71F201E004042041B0E
:100CF000E640202D03D0124C5444A3401A43501E0A
:100D00008241324307260027164009D00F200023D6
:100D1000104014000428B9D122005E075B021F0BAB
:100D2000D2081643002306E680273F031F433F03F4
:100D30003F0B1600004BFEE5FF0700001E040000FD
:100D40003E040000F8B557464E464546DE460C00C8
:100D50000903E0B5490A460F5F0031431E03DB0F6C
:100D6000760A9B46530F3343C84E6500C000E40F1C
:100D7000D2006D0DA24681467F0D9C469046B7423B
:100D800000D1B9E05B46012673409B46EE1BA345AC
:100D900000D183E0002E63DD002F00D0B1E0634678
:100DA000134300D123E1731E002B00D0BAE1861A51
:100DB0006346B04280410125C91A4042091A0B021C
:100DC00000D447E149024B0A98464346002B00D124
:100DD00089E1404600F0A4FB0300083B1F2B00DD27
:100DE0007CE120223000D21A4146D04099400200D6
:100DF0009E400A439D4200DD6AE15D1B6B1C1F2B78
:100E000000DD94E1202110003500C91A8E40DA403F
:100E10008840DD40711E8E411100072228430025C5
:100E200006433240002A09D00F233340042B05D05B
:100E3000331DB342B641764289191E000B0200D41D
:100E40003DE26A1C914B55056D0D9A4200D119E1A6
:100E50008F4AF6080A40570752023743120B9BE0AD
:100E6000002E00D0C5E06E1C7605760D012E00DC4C
:100E700048E16746861ACB1BB042BF417F42B84665
:100E80001F004346FF1A3B00B8461B0200D55FE136
:100E900037439AD100220024002579E0002E00DC9F
:100EA000FAE0002F00D18DE0784B9D4267D080237F
:100EB00067461B041F43BC46382E00DC52E16346E4
:100EC00013435A1E93411E1886428041404209181E
:100ED0000B0200D4BEE06D4B01359D4200D1D2E043
:100EE0006B4A73080A4001210E401E435108D30784
:100EF00007221E43324095E71E00164300D045E707
:100F000040E7624B9D423AD0802367461B041F4353
:100F1000BC46382E00DDEBE01F2E00DC3AE133004A
:100F20006746203BDF403B00202E05D04027BF1BFB
:100F30006646BE40324390464646721E9641334353
:100F4000DAE0002B00D114E26346134300D168E1DC
:100F500080234E07C008C9081B030643194208D066
:100F60006046C008184204D163460100D2085E07FB
:100F70001643F3009946C900720F444D11434B4686
:100F8000DE08424B4F073743CA089D4200D16EE04E
:100F900012036D05120B6D0D00211203130B0A0DC8
:100FA00012051A433B4B2D0513402B435B00E4070E
:100FB0005B082343380019003CBC90469946A24682
:100FC000AB46F8BD6346134311D0731E002B00D00F
:100FD00007E1861886428041614440420918012594
:100FE0000B0237D502257BE73E006146914635006E
:100FF000C5E75C46002D00D0E1E00B000343F3D0D1
:10100000731C00D1ACE1214B9F4200D13AE1F34384
:10101000382B00DD6FE11F2B00DD8CE120250E0059
:10102000ED1AAE40B0460600AA46DE4045463543BE
:101030002E005546D940A8406346451EA8415B1A7C
:101040009C463043161AB242924163465242991A64
:101050003D00B4E607223240002A00D0E4E60B4B04
:10106000F6084F073743CA089D4200D090E73B007F
:10107000134300D1A6E180231B031A431203120B72
:10108000024D89E715000022002785E7FF070000D1
:10109000FFFF7FFFFFFF0F80002E00D0C7E06B1C1B
:1010A0005E05760D012E00DCF0E0C84DAB4200D1AC
:1010B000B9E085180A0085428941624449425118C5
:1010C0000722CE076D082E43490832401D00A9E6CD
:1010D000BF49ED1A114007223240A3E632002838FA
:1010E0008240002686E6300000F01AFA203073E6CF
:1010F000634613435A1E9341C61AB0428041404290
:10110000091A5CE60E00674606431743002D5ED1C0
:10111000002E00D0F3E0002F00D11EE15C466146B6
:1011200091462CE7A94FBE427BD01E00F1E610008D
:101130001F3DE840202B03D04021CB1A9A40164394
:10114000731E9E410722064332400021002583E79B
:10115000161A6346B2428041591A40420B1A984609
:101160005C4632E61F2E00DDABE02027BB1B9A4613
:1011700063465746BB40994613004F46F3401F4312
:101180003B005746BA40571EBA4113436246F240ED
:10119000891898E62027BB1B9A4663465746BB40F2
:1011A000994613004F46F3401F433B005746BA4051
:1011B000571EBA4113436246F240891A9CE7834B9B
:1011C0009F425FD080252D047342294320E7002EE3
:1011D0000CD1002F00D1D0E05C46614691467B4D9A
:1011E000CDE67A4FBE421CD01E0065E6002F18D017
:1011F000C0084E0706438020C9080003014208D0FA
:101200006346DC08044204D12100DA46D2085E07B6
:101210001643F300994601245346C900720F114347
:101220001C406A4DABE61D0000220027B4E6002DED
:1012300059D10B00034300D1D6E6731C00D1B2E0B4
:10124000624B9F421ED0F343382B6FDC1F2B00DD17
:1012500097E020250E00ED1AAE40B0460600AA46E3
:10126000DE40454635432E005546A840D940451E30
:10127000A8418C440643B6189642924151426144BB
:101280003D0025E63D006146914678E60B000343AC
:10129000002D00D055E6002BF5D06346134300D156
:1012A0006DE686188642804161444042091800225A
:1012B0000B0200D4D0E6464B01351940B2E5B146E9
:1012C0005DE633006746203BDF403B00202E05D023
:1012D0004027BF1B6646BE40324390464646721EBC
:1012E00096413343EFE5394B9F42CBD080252D0407
:1012F00073422943A8E70843411E8841A2E6002F14
:1013000000D13CE66346861ACF1AB0429B415B424D
:10131000FB1A98461B024ED5161A6346B2429241FA
:10132000591A5242891A5C4600227BE501430E009D
:10133000711E8E419FE71D000E00203DEE40B0461D
:10134000202B04D04025EB1A99400843814648469B
:101350004346411E8841184374E60022002417E6E4
:10136000161A6346B2429241591A5242891A3D00F6
:1013700025E561469146154D01E6802200241203C1
:1013800079E61D000E00203DEE40B046202B04D033
:101390004025EB1A9940084381464E464346711E4C
:1013A0008E411E4367E7861896429B4161445B422B
:1013B000C9183D008CE547463743CED00722414649
:1013C000324049E600273A00E6E5C046FF07000044
:1013D000FFFF7FFF30B5144D0A034B00120B5B0D6E
:1013E000C90F0024AB4211DD104CA34210DC802455
:1013F000640322430E4CE41A1F2C0CDD0D48C31A63
:10140000DA4013005C42002900D11C00200030BDEE
:10141000094BCC18FAE7094DE040AC4663449A40CA
:1014200013000343EEE7C046FE0300001D04000066
:101430003304000013040000FFFFFF7FEDFBFFFFFC
:1014400010B5041E25D000F06BF8144B1B1A5B0579
:101450005B0D0A2812DD0B38844000222403240B84
:101460000021100024030A0D240B120522430C4C0A
:101470001B05224013435B00590810BD02002100E8
:10148000153291400A000B21081AC4402403240B92
:10149000E6E7002300240022E2E7C0461E04000025
:1014A000FFFF0F808446101C62468C46191C634661
:1014B00000E0C0461FB500F0F1F8002801D400217B
:1014C000C8421FBD10B500F049F84042013010BDC0
:1014D00010B500F0E3F8002801DB002010BD01206A
:1014E00010BDC04610B500F0D9F8002801DD00207D
:1014F00010BD012010BDC04610B500F06BF80028EB
:1015000001DC002010BD012010BDC04610B500F068
:1015100061F8002801DA002010BD012010BDC0468E
:101520001C2101231B04984201D3000C10391B0A13
:10153000984201D3000A08391B09984201D30009D7
:10154000043902A2105C40187047C046040302022E
:10155000010101010000000000000000F0B54F464D
:101560004646D6468446C0B58046194E18030F033A
:101570004D00000B5C0082463F0B6D0DC90F91467C
:10158000640DDB0F0120B5420AD0B44203D0A5425E
:1015900001D157450CD01CBC90469946A246F0BDDF
:1015A00066463E43F7D1AC42F5D154461443F2D1DE
:1015B0000120C845EFD1994207D0002DEBD16346F9
:1015C0001F433800471EB841E5E70020E3E7C04667
:1015D000FF070000F0B54F464646D6464D00C0B561
:1015E0000E03C90F8A462C491F035C008046360B48
:1015F0006D0D91463F0B640DDB0F8D421ED08C426A
:1016000016D0002D1ED130438446002C01D13A4320
:1016100023D06246002A1AD09A4529D0514602208A
:101620000139084001381CBC90469946A246F0BDDD
:1016300039001143E5D002204042F4E73043FAD1AB
:10164000AC420FD0002C0FD13A43E7D00CE001227E
:10165000013B934318000130E5E763460020002B6F
:10166000E1D0DBE73A43E6D19A45D7D1A542D5DCB4
:10167000A54205DBBE42D1D808D00020BE42D2D25E
:1016800050460123013898430130CCE7C845C5D8FE
:101690000020C845F4D3C6E7FF070000F0B54F4669
:1016A0004646D6464D00C0B50E03C90F8A462E49A0
:1016B0001F035C008046360B6D0D91463F0B640D99
:1016C000DB0F8D4218D08C4211D0002D18D1304341
:1016D0008446002C1ED13A431CD163460020002BC7
:1016E00030D0514602200139084001382AE0390043
:1016F0001143EAD0022025E03043FBD1AC4226D092
:10170000002C26D13A4324D1514602200139084009
:10171000013817E06246002A0FD09A45E1D1A54270
:1017200005DBBE42DDD819D00020BE420AD25046A9
:10173000012301389843013004E00122013B934327
:10174000180001301CBC90469946A246F0BD3A43B1
:10175000D0D19A45C5D1A542C3DCE0E7C845C0D881
:101760000020C845E3D3EDE7FF07000010B50400F3
:10177000094B1868FA218900FEF7C6FC00F078F8DA
:10178000002801D0012010BD01300022210040427C
:1017900000F034F80020F6E70000002010B5084AF9
:1017A000136840210B4313600020FFF7DFFF041E86
:1017B00002D00124200010BD02F0C4F8FAE7C046B0
:1017C00000200240024A1368013313607047C0468C
:1017D00020000020014B18687047C0462000002000
:1017E00070B50400FFF7F6FF0500631C00D001345C
:1017F000FFF7F0FF401BA042FAD370BD70B5002880
:1018000011DB8408134DC034A4006259032318402F
:10181000C000FC331E008640B24389010B40834068
:101820001343635170BDC0B20F220240083A9208C0
:1018300006329200084BD3185D6803242040C00094
:10184000FF2214008440A54389010A4082402A43B4
:101850005A60E7E700E100E000ED00E01F231840D8
:101860001E3B8340014A13607047C04600E100E020
:1018700001380A4B98420FD8094A50600948036A58
:101880001B021B0AC02109060B430362002393605D
:1018900007331360002070470120FCE7FFFFFF00C3
:1018A00010E000E000ED00E0F0B5C64600B5002312
:1018B00038E0052600E00026AE4035003D43023406
:1018C000A400534EA551534C25684246D4432E00E4
:1018D00026404A68D20302D5424615432E004D4D9C
:1018E0002E606D682E0026404A68920302D542465B
:1018F00015432E00474D6E60AD682E0026404A68A5
:10190000D20202D5424615432E00424DAE60ED682C
:101910002C404A68920202D542462A4314003D4AAE
:10192000D46001330A681400DC406DD001249C406F
:1019300022409046F5D04D68022D01D0122D0ED1D7
:10194000DD080835AD002F5807261E40B6000F22CF
:10195000B24097430A69B24016003E432E504D688C
:101960006E1E012E03D9112D01D0122D12D18568C2
:101970005F000326BE40B5432E00CD68BD40354311
:1019800085604568A5434A681609012434409C4097
:101990002C43446007685E0003242500B540ED43F6
:1019A0002F404A681440B4403C430460C46825405A
:1019B0008C68B4402C43C4604A68D200B1D5164D3F
:1019C0006C6B012634436C639C08A51CAD00104E63
:1019D000AF5903251D40AD000F26AE40B743A026EA
:1019E000F605B04200D166E70C4EB04208D00C4E6E
:1019F000B04207D00B4EB04200D15AE706265BE753
:101A0000012659E7022657E704BC9046F0BDC046C0
:101A1000000001400004014000100240000400509A
:101A200000080050001C005003690B4201D1002047
:101A300070470120FCE7002A01D181627047816173
:101A4000FCE74369594041617047000010B5054B00
:101A50005B69184200D110BD024B586101F036FCA1
:101A6000F9E7C04600040140034A116880235B0087
:101A70000B4313607047C0460070004010B50C4A1D
:101A800013680324A343184310600A4A136904200F
:101A900003431361012908D040BF20BF20BF054A7E
:101AA000136904218B43136110BD30BFF7E7C046B3
:101AB0000070004000ED00E010B5264BD9680C2303
:101AC0000B40082B42D00C2B11D0042B09D0214BFA
:101AD0005A68520B072313400133802000029840BC
:101AE00010BD1C4B1B68DB0632D51B48F8E78A0C7F
:101AF0000F231340194AD05C890D03221140013194
:101B0000144BDB68DB030DD4124B1B68DB0613D5CB
:101B10004201121A93019B1ADB001B181802FEF7F0
:101B2000F3FADDE74201121A93019B1ADB001B183E
:101B30005802FEF7E9FAD3E74201121A93019B1A01
:101B4000DB001B189802FEF7DFFAC9E70448C7E775
:101B50000448C5E70010024000093D00A43B00080E
:101B600000127A000024F400F0B583B0041E00D106
:101B700065E2C44BDA680C251540DA6880267602E7
:101B800016400368DB0736D5082D2CD00C2D28D045
:101B9000636880225202934255D0A022D20293421F
:101BA00058D0B84B1A68B8490A401A601A688021A0
:101BB00049020A400192019A1A68B4490A401A601F
:101BC0006368002B52D0FFF705FE0700AD4B1B6882
:101BD0009B0310D4FFF7FEFDC01B6428F6D9032039
:101BE0002EE2002ED4D0A74B1B689B0303D563685D
:101BF000002B00D126E223689B076CD5E3689A0688
:101C000005D5A048026820210A4302608B43042DB9
:101C10003CD00C2D38D0002B00D1AEE099490A6899
:101C20000920824313430B60FFF7D4FD0600954B58
:101C30001B685B0700D597E0FFF7CCFD801B0228EF
:101C4000F5D90320FCE18F4A116880235B020B4326
:101C50001360B5E78B4B19688022D2020A431A60E1
:101C60001968802252020A431A60A9E7FFF7B2FD01
:101C70000700844B1B689B03BDD5FFF7ABFDC01B62
:101C80006428F6D90320DBE1002EC4D17D4A126816
:101C9000520702D5002B00D1D6E17A4E72687C49FA
:101CA0000A40216909020A437260326809218A43A5
:101CB00013433360FFF700FFF26812090F2313404C
:101CC000744AD35CD840744B18600020FFF74EFD77
:101CD000002800D0B4E12368DB062CD5002D5FD1AD
:101CE000684B1B689B0503D5A369002B00D1ADE1B0
:101CF000644A536869490B40216A0B435360536837
:101D00001B021B0AE16909060B435360236A590B46
:101D1000013180231B028B40D16809090F220A4040
:101D20005C498A5CD3405C4A13600020FFF71EFDCB
:101D3000002800D084E123681B077DD56369002B50
:101D400067D0504A136D01210B431365FFF742FD25
:101D500006004C4B1B6D9B076ED4FFF73BFD801BB1
:101D60000228F6D903206BE146494B68484A1340E4
:101D70002269120213434B60ADE7424A1368012106
:101D80008B431360FFF726FD06003E4B1B685B0785
:101D9000A1D5FFF71FFD801B0228F6D903204FE1D4
:101DA000A369002B22D0374A116880235B000B43C4
:101DB0001360FFF70FFD0600324B1B689B0506D42E
:101DC000FFF708FD801B0228F6D9032038E12D4AD1
:101DD000536832490B40216A0B43536053681B021E
:101DE0001B0AE16909060B435360A4E7254A1368FF
:101DF0002B490B401360FFF7EDFC0600214B1B68DD
:101E00009B0598D5FFF7E6FC801B0228F6D9032036
:101E100016E11C4A136D01218B431365FFF7DAFCB1
:101E20000600184B1B6D9B0706D5FFF7D3FC801BE4
:101E30000228F6D9032003E123685B0700D48CE075
:101E4000104B9B6BDB001BD40E4A916B80235B0510
:101E50000B4393630126134B1B68DB0526D5A36850
:101E600080225200934235D0002B4BD1054B1A6D86
:101E70000B490A401A651A6D0B490A401A652FE092
:101E80000026E8E700100240FFFFFEFFFFFFFBFF18
:101E9000FFE0FFFFB03B000800000020FF1FFFFF36
:101EA000FFFEFFFF00700040FFFBFFFF6B4A116861
:101EB00080235B000B431360FFF78CFC0700674B2C
:101EC0001B68DB05CBD4FFF785FCC01B6428F6D963
:101ED0000320B5E0624A116D80235B000B4313655C
:101EE000A368002B28D0FFF775FC07005C4B1B6D27
:101EF0009B0530D4FFF76EFCC01B5A4B9842F5D9B6
:101F000003209DE0A022D200934209D0544B1A6DC9
:101F100055490A401A651A6D54490A401A65DFE7A7
:101F20004F4B196D013AFF3A0A431A65196D802229
:101F300052000A431A65D3E7FFF74CFC0700484BF1
:101F40001B6D9B0507D5FFF745FCC01B454B984211
:101F5000F5D9032074E0012E1AD0636A002B00D15A
:101F600076E00C2D4FD0022B18D03D4A1368404923
:101F70000B401360FFF72EFC0400394B1B689B01DC
:101F80003FD5FFF727FC001B0228F6D9032057E0B6
:101F9000334A936B37490B409363DEE7304A13684B
:101FA00033490B401360FFF715FC05002C4B1B68F1
:101FB0009B0106D5FFF70EFC401B0228F6D9032033
:101FC0003EE02749CB682C4A1340A26AE06A0243EC
:101FD000206B02431343CB600A6880235B041343E6
:101FE0000B60FFF7F7FB04001D4B1B689B0106D439
:101FF000FFF7F0FB001B0228F6D9032020E00020A9
:102000001EE000201CE0012B24D0154BDA68802351
:102010005B021340A16A8B4201D0012010E0F02343
:102020009B031340E16A8B4201D0012008E0C023EA
:102030001B041A40236B9A420ED0012000E00120BD
:1020400003B0F0BD0120FBE70120F9E70120F7E72D
:102050000020F5E70120F3E70020F1E700700040E1
:102060000010024088130000FFFEFFFFFFFBFFFF90
:10207000FFFFFFFEFFFFFFEFFFFF02FF70B5040051
:102080000D00002800D1BAE05F4B1A68012313400D
:102090008B420BD25C490B68012293432B430B60AC
:1020A0000B681A40AA4201D00120A9E023689B07CF
:1020B00006D5564AD368F0218B43A1680B43D36001
:1020C0002368DB0764D56368022B09D0032B29D072
:1020D000012B2DD04D4A1268920506D401208FE0C5
:1020E0004A4A1268920300D48BE04849CA68032028
:1020F00082431343CB60FFF76DFB06006368022B3E
:102100001CD0032B28D0012B34D0404BDB680C2291
:102110001A423DD0FFF75EFB801B3D4B9842F4D93D
:1021200003206DE0394A12689201DED4012067E095
:10213000364A12685207D8D4012061E0334BDA687E
:102140000C231340082B23D0FFF744FB801B304B9C
:102150009842F3D9032053E02C4BDA680C23134048
:102160000C2B15D0FFF736FB801B294B9842F3D977
:10217000032045E0254BDA680C231340042B07D0DD
:10218000FFF728FB801B224B9842F3D9032037E04E
:102190001D4B1A6801231340AB420BD91A490B6837
:1021A000012293432B430B600B681A40AA4201D0D3
:1021B000012025E023685B0706D5144AD36815493A
:1021C0000B40E1680B43D36023681B0707D50F4919
:1021D000CB68114A13402269D2001343CB60FFF74A
:1021E0006BFC0A4BDA6812090F2313400B4AD35CCD
:1021F000D8400B4B18600020FFF7B8FA00E0012030
:1022000070BD0120FCE7C0460020024000100240E3
:1022100088130000FFF8FFFFFFC7FFFFB03B000877
:102220000000002070B5040003689B064CD55B4B92
:102230009B6BDB0000D571E0584A916B80235B05F6
:102240000B4393630125564B1B68DB0568D5534B45
:102250001968C0239B031940626813408B4206D063
:10226000C0239B0211001940994200D16DE04B4BF5
:102270001B6DC02189020B4015D00A409A4212D032
:1022800023689B060FD5454B186D464A02401E6DCC
:102290008021090331431965196D434E3140196599
:1022A0001A65C30558D46368C02292021900114010
:1022B000914260D039490B6DC022920260680240A1
:1022C00013430B65012D60D023689B0706D5334A65
:1022D000D36C0C218B43A1680B43D36423685B0749
:1022E00006D52E4AD36C31490B40E1680B43D364C9
:1022F00023681B0706D5294AD36C2D490B40216959
:102300000B43D36423681B0645D5244AD36C294963
:102310000B4061690B43D364002070BD002592E738
:102320001F4A116880235B000B431360FFF752FACA
:1023300006001B4B1B68DB0500D588E7FFF74AFA50
:10234000801B6428F5D90320E7E7144B1B689B0327
:1023500000D48CE70120E0E7FFF73CFA06000F4BC2
:102360001B6D9B059FD4FFF735FA801B124B9842DB
:10237000F5D90320D1E709490A6810480240C02076
:102380008003034013430B6094E70A008B6B0C49F6
:102390000B40936398E70020BFE7C046001002405F
:1023A00000700040FFFFFCFFFFFFF7FFFFF3FFFFA0
:1023B000FFCFFFFFFFFFF3FF88130000FFFFCFFFFA
:1023C000FFFFFFEF70B504000268D368A0218B43C4
:1023D000D360FFF7FFF905002368DB689B0608D48C
:1023E000FFF7F8F9401BFA239B009842F4D9032029
:1023F00000E0002070BD70B504000368DA68520682
:1024000001D5002070BD01225242DA60FFF7E2F9E7
:1024100005002368DB685B0608D4FFF7DBF9401B87
:10242000FA239B009842F4D90320EBE70020E9E768
:1024300070B5041E63D02123C35C002B40D0212340
:102440000222E2542368C8325A622368773A5A62F9
:102450002000FFF7D0FF051E38D122689368294974
:102460000B40936021688A68636820690343A06910
:10247000034313438B602368E2681A6121680B6988
:10248000A268120413430B612268D36880218B4336
:10249000D3602268D36C7D398B43D3642168CB6CC5
:1024A000E269606902431343CB6423689B689B061F
:1024B00015D52368FF225A622123FE3AE2540CE02C
:1024C00020330022C25401F04BFAB8E72368FF2200
:1024D0005A622123FB3AE2540125280070BD2000F6
:1024E000FFF770FF0028E4D02368FF225A622123FF
:1024F000FB3AE254013B0022E2540125EDE70125BD
:10250000EBE7C046BFFF8FFF002302E001330A382C
:10251000C0B20928FAD81B01DBB21843704700008B
:10252000F8B504000E002023C35C012B00D178E035
:1025300020230121C15401330131C154002A43D168
:1025400003689B685B0601D40023F3703078FFF7C3
:10255000DBFF05047078FFF7D7FF00020543B07872
:10256000FFF7D2FF0543F078000405432368CA2231
:102570005A622368773A5A622000FFF73CFF071E31
:1025800033D12368284805401D6022689368274995
:102590000B40936021688B68F268306902431343F3
:1025A0008B602268D36880218B43D36023689B684B
:1025B0009B0626D52368FF225A622123FE3AE25465
:1025C000013B0022E2541AE003689B685B0601D4D9
:1025D0000023F37035782D04707800020543B0783D
:1025E0000543F07800040543C0E72368FF225A62E0
:1025F0002123FB3AE254013B0022E2540127380038
:10260000F8BD2000FFF7DEFE0028D3D02368FF22AC
:102610005A622123FB3AE254013B0022E254012793
:10262000EDE70227EBE7C0467F7F7F00FFFFFBFF60
:1026300070B504000E002023C35C012B69D0202359
:102640000121C15401330131C154002A06D17378EC
:10265000D90603D510218B430A337370002A31D178
:10266000F078FFF751FF05047078FFF74DFF000287
:102670000543B078FFF748FF054330784003054332
:102680002368CA225A622368773A5A622000FFF709
:10269000B2FE061E21D123681F4805405D602268F6
:1026A000D36880218B43D36023689B689B0620D529
:1026B0002368FF225A622123FE3AE254013B0022A2
:1026C000E25414E0F5782D04707800020543B078E8
:1026D0000543307840030543D2E72368FF225A625E
:1026E0002123FB3AE254013B0022E2540126300050
:1026F00070BD2000FFF766FE0028D9D02368FF22B6
:102700005A622123FB3AE254013B0022E2540126A3
:10271000EDE70226EBE7C0463FFFFF00020993000A
:102720009B185A000F2318408018C0B27047000051
:10273000F8B50C0003689B6A4B6003681B695B0477
:102740005B0C8B6003681B680E490B401E0C3F201E
:10275000304020701D0A7F273D4065701F40A770E4
:1027600040213140E170002A0AD1FFF7D7FF2070E5
:102770002800FFF7D3FF60703800FFF7CFFFA0708D
:102780000020F8BD7F7F7F0070B50C0003685B6898
:102790000E490B40180CE070190A1F260E40667097
:1027A0003F251D40A5705B0B07210B402370002ABD
:1027B0000AD1FFF7B3FFE0703000FFF7AFFF6070A2
:1027C0002800FFF7ABFFA070002070BD3FFFFF00A7
:1027D00003688022D205904205D0124A904202D06E
:1027E000114A904203D1702293434A6813438022D6
:1027F000D205904205D00B4A904202D00A4A90423C
:1028000003D10A4A1340CA681343802293430A69DA
:10281000134303608B68C3620B68836201234361C7
:102820007047C0460008014000140140FFFCFFFF54
:1028300030B5036A046A0125AC4304628469EF354C
:10284000AC43120122430A24A3431943826101626B
:1028500030BD000030B5036A1024A34303628469CD
:10286000036A054D2C4012032243A024A34309010F
:1028700019438261016230BDFF0FFFFF0B008168C9
:102880007022914319430723194381607047000068
:1028900030B58468034D2C401B021A431143214379
:1028A000816030BDFF00FFFF70B5041E14D03923D6
:1028B000C35C002B0AD0392502236355211D2068F3
:1028C000FFF786FF01236355002070BD38330022D7
:1028D000C25401F055F8EEE70120F6E70268D3682C
:1028E00001210B43D3600268916807230B40062B3C
:1028F00003D0136801210B431360002070470000D0
:1029000010B504003823C35C012B66D038230122A4
:10291000C25401330132C254026893683048034004
:1029200093600B68402B4ED015D9602B41D021D934
:10293000702B2BD080229201934232D1CB684A680F
:1029400089682068FFF7A4FF226891688023DB0173
:102950000B43936025E0102B07D004D9202B04D023
:10296000302B02D01DE0002B1BD119002068FFF78F
:1029700085FF16E0502B14D1CA6849682068FFF71C
:1029800057FF50212068FFF779FF0AE0CB684A68BB
:1029900089682068FFF77CFF2268936877210B43E2
:1029A000936039230122E254013B0022E2540020CB
:1029B00010BDCA6849682068FFF74CFF6021206895
:1029C000FFF75CFFEDE7CA6849682068FFF730FF52
:1029D00040212068FFF752FFE3E70220E8E7C04606
:1029E0008800FFFF704770477047704710B50400BC
:1029F00003681A6992070FD5DA6892070CD503228B
:102A000052421A610123037603689B699B0755D0E4
:102A1000FFF7E9FF0023237623681A69520712D5CE
:102A2000DA6852070FD5052252421A610223237633
:102A300023689A69C0239B001A4245D02000FFF703
:102A4000D2FF0023237623681A69120710D5DA68AB
:102A500012070DD5092252421A61042323762368F6
:102A6000DB699B0737D02000FFF7BDFF00232376EB
:102A700023681A69D20612D5DA68D2060FD5112258
:102A800052421A61082323762368DA69C0239B0027
:102A90001A4227D02000FFF7A6FF002323762368E1
:102AA0001A69D20702D5DA68D20722D423681A69D4
:102AB000520602D5DA68520622D410BDFFF792FF03
:102AC0002000FFF791FFA5E72000FFF78BFF200014
:102AD000FFF78AFFB5E72000FFF784FF2000FFF72C
:102AE00083FFC3E72000FFF77DFF2000FFF77CFF97
:102AF000D3E7022252421A61200000F021FCD5E700
:102B0000412252421A612000FFF76FFFD5E7F0B56E
:102B10003823C35C012B1BD0382601239C468355E8
:102B200039270133C3550268546893687025AC4354
:102B30000D682C438025AB431D004B682B4354602C
:102B4000026893606346C355002383550020F0BD9F
:102B50000220FCE7F0B589B01422002103A800F0A0
:102B6000DDFF314BD96A04221143D962D96A0A4088
:102B70000092009ADA6A01252A43DA62DA6A2A4068
:102B80000192019ADA6A02273A43DA62DB6A3B4031
:102B90000293029B254CA026F6050022210030005E
:102BA000FEF749FF002202212148FEF744FF03946B
:102BB000049500240594069403A93000FEF774FEE2
:102BC00003971C4B0493059403A93000FEF76CFE99
:102BD00018230393184B0493059503A93000FEF7BF
:102BE00063FE039704950594069403A91048FEF725
:102BF0005BFE002200210520FEF700FE0520FEF707
:102C00002DFE002200210620FEF7F8FD0620FEF72B
:102C100025FE002200210720FEF7F0FD0720FEF729
:102C20001DFE09B0F0BDC04600100240C1660000A4
:102C3000000400500000111000002110F0B587B012
:102C400001AE14220021300000F068FF002500953D
:102C5000144C154B2360402363603F33A3608033E3
:102C6000E36025616561A561E5612000FFF7E0FB98
:102C7000012737701E2373700A33B370F570F56047
:102C80003561002231002000FFF74AFC6B461F70BF
:102C90005F709F70DD70002269462000FFF7C8FC5E
:102CA00007B0F0BD340200200028004030B587B0E6
:102CB0001022002102A800F031FF082200216846FE
:102CC00000F02CFF0E4C8023DB0523600D4B63606E
:102CD0000025A5600C4BE360256165612000FFF7CE
:102CE000E3FD80235B01029302A92000FFF708FEA9
:102CF0000095019569462000FFF709FF07B030BD38
:102D0000600200209F0F00003F1F000030B587B019
:102D10001022002102A800F001FF082200216846CD
:102D200000F0FCFE0E4C0F4B23601F236360002558
:102D3000A560163BE360256165612000FFF7B4FDE7
:102D400080235B01029302A92000FFF7D9FD0095C3
:102D5000019569462000FFF7DAFE07B030BDC04696
:102D6000A40200200008014010B598B034220021D0
:102D70000BA800F0D3FE1422002106A800F0CEFE1E
:102D800018220021684600F0C9FE1C490A681C4C44
:102D9000224080231B0113430B60FEF765FE194A96
:102DA000136D2340136506230B93FA330D93FF3BFA
:102DB0000E930F330F930E3B14930024159480232E
:102DC0001B03169380231B0417930BA8FEF7CCFE5E
:102DD0000F2306930C3B0793089409940A9401214E
:102DE00006A8FFF74BF92023009380235B02019391
:102DF0006846FFF717FA18B010BDC04600700040D3
:102E0000FFE7FFFF00100240F0B5C64600B582B0F4
:102E1000FEF7C4FCFFF7A8FFFFF79CFEFFF70EFFCD
:102E2000FFF744FFFFF772FF00F02CFA9EE1C24B60
:102E30001878FEF7D5FCA0201021C005FEF7F4FDA0
:102E4000002800D09AE1A0300821C005FEF7ECFD73
:102E5000002800D092E1002406E000F095FC6420F8
:102E6000FEF7BEFC0134E4B2052CF6D9B34B1B7857
:102E7000012B05D0002B06D1B04B01221A7002E0C5
:102E8000AE4B00221A70AC4B1878FEF7A9FC75E126
:102E900000F07AFC6420FEF7A3FC0134E4B2052CB8
:102EA000F6D9A74B1B78022B00D067E1A54B012276
:102EB0001A7000250BE000259F4B1878FEF790FC58
:102EC000A0201021C005FEF7AFFD002812D09D4BB9
:102ED0001B78012B59D1280000F07CFCA020082190
:102EE000C005FEF7A1FD0028EAD1002DE3D1013590
:102EF000EDB2E1E700F048FC924B02221A708E4BD3
:102F00001878FEF76DFCE2E7002C06D10134E4B23C
:102F1000894B1878FEF764FC1DE00024F8E72C00CC
:102F2000854B1878FEF75CFCA0201021C005FEF749
:102F30007BFD002816D0834B1B78022B33D1200059
:102F400000F048FCA0200821C005FEF76DFD002818
:102F5000EAD1012DD8D0002DE6D1082CDFD80134DC
:102F6000E4B2DDE700F010FC764B03221A70AB00F0
:102F7000ED186B00DBB21C19734B1C7000F0BEFC2B
:102F80006D4B1878FEF72CFC00250024D3E70025B4
:102F9000694B1878FEF724FCA0201021C005FEF72D
:102FA00043FD002812D0674B1B78032B24D1280047
:102FB00000F010FCA0200821C005FEF735FD002818
:102FC000EAD1042DE3D80135EDB2E1E700F0DCFBF6
:102FD0005C4B04221A70584B1878FEF701FCE2E7AC
:102FE0000024554B1878FEF7FBFBA0201021C005EC
:102FF000FEF71AFD002812D0524B1B78042B53D138
:10300000200000F0E7FBA0200821C005FEF70CFD22
:103010000028EAD1082CE3D80134E4B2E1E700F05B
:10302000B3FB484B05221A70AB00ED186B00DBB206
:103030001C19464B1C7000F061FC3F4B1878FEF7E2
:10304000CFFB00250024D7E7A024E405002240217F
:103050002000FEF7F0FC002280212000FEF7EBFCB0
:10306000002202213A48FEF7E6FC80210022890076
:103070002000FEF7E0FC80210022C9002000FEF7BE
:10308000DAFC8021002289012000FEF7D4FC802197
:103090000022C9012000FEF7CEFCA0201021C005AF
:1030A000FEF7C2FC002834D0264B1B78052B00D03D
:1030B000F7E600F0FBFB274B1B78DB07C4D4A0240A
:1030C000E405012240212000FEF7B5FC0122802109
:1030D0002000FEF7B0FC012202211D48FEF7ABFCE8
:1030E0008021012289002000FEF7A5FC8021012219
:1030F000C9002000FEF79FFC8021012289012000E9
:10310000FEF799FC80210122C9012000FEF793FC03
:10311000C3E700F039FB00240A4B1C700D4B1C70F8
:1031200000F0ECFB064B01221A700B4B1C70024B9B
:103130001878FEF755FBB7E7A20200201C0200201A
:103140005A00002040000020A1020020A002002020
:10315000000400505D0200205E020020404B1B78FE
:10316000012B43D03E4B1B78002B6DD0A0200821B3
:10317000C005FEF759FC002800D158E6384B1B78F3
:10318000022BEBD1A024E405002201212000FEF750
:1031900052FC002240212000FEF74DFC002280213D
:1031A0002000FEF748FC002202212E48FEF743FCD7
:1031B0008021002289002000FEF73DFC80210022B2
:1031C000C9002000FEF737FC802100228901200081
:1031D000FEF731FC80210022C9012000FEF72BFC04
:1031E000214B1878FEF7FCFA002458E6A0200122B3
:1031F0000121C005FEF71FFC1C4B1B78DBB21C4AEB
:10320000126893421CD800F051FB00F04BF9194FA3
:103210003B689846184E3278184D2978184C20781B
:1032200001230093434600F0F3F800F091F93B6866
:103230003278297820780024009400F0E9F891E7AA
:10324000322000F057FA8DE7A02000220121C005AE
:10325000FEF7F1FB01210020FEF710FC86E7C046D7
:103260005A00002000040050A20200205900002053
:103270003C000020380000205D020020A002002059
:10328000A102002010B50A4B14221A701B78DBB281
:1032900008490B70002308490B7008490A70084A56
:1032A0001370084BC8221A700748FFF717FB10BDB0
:1032B0005C0200205E0200205A000020590000201D
:1032C00040000020A20200206002002010B504008F
:1032D000022804D0082C0AD0102C1CD010BD134A90
:1032E000136801331360124B01221A70F2E7114B7D
:1032F0001B78022B02D0104B00221A700D4B1B784A
:10330000002BE9D10B4B01221A70FFF72DFD0B4B5F
:1033100000221A60E0E7074B1B78002BDED1054B3B
:1033200002221A70FFF720FDD8E7C04618020020DD
:10333000580000205A0000205E0200203C000020BF
:1033400010B502688023DB059A4200D010BD174BF0
:103350001968174A116000211960164B1B78DBB2FF
:10336000126893420CD9124B19681348FCF7CCFE33
:10337000124B186018683C21FCF7C6FE104B186011
:10338000104B1A78D2B2104B1B78DBB29A4209D29A
:103390000E4B1B78002BD9D10A4A13780133DBB2CC
:1033A0001370D3E70A4B00221A70CFE718020020EF
:1033B0003C0000205900002040420F009C020020E9
:1033C000580200205E0200205C0200201C02002047
:1033D0005A00002000B583B00A4B984200D9002063
:1033E000FEF72EF8084A094BFDF73AFAFCF718FFEA
:1033F0000190002300E00133019A9A42FBD803B008
:1034000000BDC046400D0300666666666666D63F30
:10341000F0B5C64600B507008846140006AA157820
:103420001800FEF70DF81C4A1C4BFCF717FFFCF7C1
:10343000F7FE3C23181A1A4B1D54022306E01A010A
:10344000D21A9100164A521815550133062BF6DD93
:10345000032307E01A01D21A9100114A521841467B
:1034600055540133062BF5DD042610E0BC00E419A9
:103470000A214046FCF748FEC0B220183201921BD8
:103480009100074B5B181D5401301D540136062E68
:10349000ECDD04BC9046F0BD33333333333311409D
:1034A0005C000020002303E0084A0121D1540533C9
:1034B000372BF9DD002205E0044B9B183C3301213A
:1034C00019700F32372AF7DD7047C0465C000020C4
:1034D00010B5062809D880001B4B1B589F46A0201A
:1034E00001224021C005FEF7A6FA10BDA02001224E
:1034F0008021C005FEF79FFAF7E701220221134859
:10350000FEF799FAF1E78021A02001228900C00589
:10351000FEF791FAE9E78021A0200122C900C00549
:10352000FEF789FAE1E78021A02001228901C00588
:10353000FEF781FAD9E78021A0200122C901C00548
:10354000FEF779FAD1E7C046443B0008000400507A
:1035500070B5434B1B78012B04D0424A13680133EA
:10356000136070BD3E4B00221A703F4B01321A703F
:10357000A024E405002240212000FEF75CFA00228E
:1035800080212000FEF757FA002202213748FEF77B
:1035900052FA8021002289002000FEF74CFA802197
:1035A0000022C9002000FEF746FA8021002289018E
:1035B0002000FEF740FA80210022C9012000FEF71A
:1035C0003AFA3B2544E0264B1B78012B12D0254BC1
:1035D0001868FFF7FFFE0134062C0FDC23011B1BCC
:1035E0009A00234B9B185B5D012BECD12000FFF769
:1035F0006FFFE8E71B4A1368013B1360A024E40552
:10360000002240212000FEF716FA0022802120002F
:10361000FEF711FA002202211448FEF70CFA80216D
:10362000002289002000FEF706FA80210022C9004E
:103630002000FEF700FA8021002289012000FEF719
:10364000FAF980210022C9012000FEF7F4F9013DBA
:10365000002D01DB0024BFE7034B00221A7080E736
:1036600058000020580200201D02002000040050D5
:103670005C00002010B5062809D880001B4B1B58A1
:103680009F46A02000224021C005FEF7D4F910BDBE
:10369000A02000228021C005FEF7CDF9F7E7002227
:1036A00002211348FEF7C7F9F1E78021A02000228C
:1036B0008900C005FEF7BFF9E9E78021A0200022BC
:1036C000C900C005FEF7B7F9E1E78021A02000227C
:1036D0008901C005FEF7AFF9D9E78021A0200022BB
:1036E000C901C005FEF7A7F9D1E7C046603B000855
:1036F0000004005010B50400FEF772F80620FFF732
:10370000E7FE2000FEF76CF80520FFF7E1FE200041
:10371000FEF766F80420FFF7DBFE2000FEF760F8F6
:103720000320FFF7D5FE0620FFF7A4FF2000FEF7D9
:1037300057F80220FFF7CCFE0520FFF79BFF200083
:10374000FEF74EF80120FFF7C3FE0420FFF792FFBB
:103750002000FEF745F80020FFF7BAFE0320FFF730
:1037600089FF2000FEF73CF80220FFF783FF2000CE
:10377000FEF736F80120FFF77DFF2000FEF730F856
:103780000020FFF777FF10BD10B5A024E40540210D
:103790002000FEF756F980212000FEF752F90221A1
:1037A0000B48FEF74EF9802189002000FEF749F909
:1037B0008021C9002000FEF744F980218901200002
:1037C000FEF73FF98021C9012000FEF73AF910BD4C
:1037D0000004005070B50500A024E405002240213B
:1037E0002000FEF728F9002280212000FEF723F9AF
:1037F000002202212B48FEF71EF9802100228900B9
:103800002000FEF718F980210022C9002000FEF7F1
:1038100012F98021002289012000FEF70CF9802195
:103820000022C9012000FEF706F9092D06D8AD00D7
:103830001D4B5B599F460020FFF74AFE70BD0120DB
:10384000FFF746FEFAE70020FFF742FE0120FFF7F0
:103850003FFEF3E70220FFF73BFEEFE70220FFF712
:1038600037FE0020FFF734FEE8E70220FFF730FEC6
:103870000120FFF72DFEE1E70220FFF729FE0120DE
:10388000FFF726FE0020FFF723FED7E70320FFF710
:103890001FFED3E70320FFF71BFE0020FFF718FEF3
:1038A000CCE7C046000400507C3B000870B50C4DCE
:1038B00000220C492800FEF767FF0B4C0022210074
:1038C0002800FEF735FF2278084B1A706278084B03
:1038D0001A70A278074B1A706268074B1A6070BDA5
:1038E000340200202400002004020020A102002055
:1038F000A00200205D0200203800002070B50B4CB3
:103900000B4B1B7823700B4B1B7863700A4B1B7897
:10391000A3700A4D00220A492800FEF789FE002202
:1039200021002800FEF7FCFD70BDC04644000020C9
:10393000A1020020A00200205D020020340200202D
:1039400020020020054B5A6B01210A435A63996BF0
:10395000802252050A439A637047C0460010024015
:103960000268054B9A4200D07047044A116D8023CB
:10397000DB020B431365F7E700280040001002400C
:1039800010B503688022D205934203D00F4A9342B8
:103990000ED010BD0E4A936B01210B43936300229E
:1039A00000210F20FDF72AFF0F20FDF757FFF0E75A
:1039B000074A536B04210B43536300220021142058
:1039C000FDF71CFF1420FDF749FFE2E70008014066
:1039D000001002407047FEE77047704710B5FDF7D2
:1039E000F1FE10BD10B50220FEF730F810BD10B585
:1039F0000820FEF72BF810BD10B51020FEF726F8B2
:103A000010BD000010B50248FEF7F0FF10BDC04623
:103A10006002002010B50248FEF7E8FF10BDC04666
:103A2000A4020020104B1968802252000A431A6039
:103A3000DA680E490A40DA601A680D490A401A60CD
:103A40009A6801218A439A601A680A490A401A60F2
:103A5000DA6809490A40DA6000221A61074B8022BD
:103A600012059A607047C046001002400C40FF8863
:103A7000F6FFF6FEFFFFFBFFFFFF02FF00ED00E099
:103A80000D488546002103E00C4B5B584350043140
:103A90000B480C4B42189A42F6D30B4A02E0002323
:103AA00013600432094B9A42F9D3FFF7BBFF00F0D1
:103AB00011F8FFF7A9F9FEE700200020503C0008AC
:103AC000000000200400002004000020E00200208C
:103AD000FEE7000070B500260C4D0D4C641BA410D1
:103AE000A64209D1002600F021F80A4D0A4C641BB9
:103AF000A410A64205D170BDB300EB58984701361B
:103B0000EEE7B300EB5898470136F2E7483C00086F
:103B1000483C0008483C00084C3C000803001218D0
:103B2000934200D1704719700133F9E7F8B5C046E8
:103B3000F8BC08BC9E467047F8B5C046F8BC08BC47
:043B40009E467047E6
:103B4400DE340008EC340008FA34000806350008B6
:103B54001635000826350008363500088236000878
:103B6400903600089E360008AA360008BA360008C7
:103B7400CA360008DA3600083C380008363800082F
:103B84003E38000846380008543800085C380008FD
:103B94006A380008783800088C380008943800081F
:103BA400030406080C101820300000000000000078
:103BB40000000000010203040607080900000000D9
:103BC400010203040005000872030008B60300089C
:103BD4001A030008B6030008A6040008B603000888
:103BE4001A0300087203000872030008A604000800
:103BF4001A03000812030008120300081203000845
:103C0400B4040008180A00081A0900081A09000870
:103C1400380C00081409000814090008200C0008D6
:103C2400380C000814090008200C000814090008C6
:103C3400380C00082E0C00082E0C00082E0C00086E
:043C44003C0C00082C
:043C4800E900000887
:043C4C00C1000008AB
:043C50000000200050
:0400000508003A8134
:00000001FF
