:020000040800F2
:1000000000200020F52C0008592C00085B2C00086B
:1000100000000000000000000000000000000000E0
:100020000000000000000000000000005D2C00083F
:1000300000000000000000005F2C0008612C000898
:10004000452D0008452D0008452D0008452D0008C8
:10005000452D0008692C0008732C00087D2C000831
:1000600000000000452D0008452D0008452D000822
:10007000452D0008452D000800000000892C0008CF
:100080000000000000000000000000000000000070
:10009000452D000800000000452D0008452D0008F2
:1000A00000000000452D00080000000000000000D6
:1000B000452D0008452D000800000000000000004C
:1000C00010B5064C2378002B07D1054B002B02D02E
:1000D000044800E000BF0123237010BD040000208D
:1000E00000000000A02D0008044B10B5002B03D029
:1000F0000349044800E000BF10BDC04600000000F6
:1001000008000020A02D0008002243088B4274D371
:1001100003098B425FD3030A8B4244D3030B8B4208
:1001200028D3030C8B420DD3FF22090212BA030C11
:100130008B4202D31212090265D0030B8B4219D3F2
:1001400000E0090AC30B8B4201D3CB03C01A524112
:10015000830B8B4201D38B03C01A5241430B8B425A
:1001600001D34B03C01A5241030B8B4201D30B0343
:10017000C01A5241C30A8B4201D3CB02C01A52416A
:10018000830A8B4201D38B02C01A5241430A8B422D
:1001900001D34B02C01A5241030A8B4201D30B0216
:1001A000C01A5241CDD2C3098B4201D3CB01C01A30
:1001B000524183098B4201D38B01C01A524143093A
:1001C0008B4201D34B01C01A524103098B4201D328
:1001D0000B01C01A5241C3088B4201D3CB00C01A95
:1001E000524183088B4201D38B00C01A524143080D
:1001F0008B4201D34B00C01A5241411A00D2014632
:10020000524110467047FFE701B5002000F0F0F8BA
:1002100002BDC0460029F7D076E7704703460B437E
:100220007FD4002243088B4274D303098B425FD3EF
:10023000030A8B4244D3030B8B4228D3030C8B421B
:100240000DD3FF22090212BA030C8B4202D3121201
:10025000090265D0030B8B4219D300E0090AC30BD6
:100260008B4201D3CB03C01A5241830B8B4201D383
:100270008B03C01A5241430B8B4201D34B03C01A6C
:100280005241030B8B4201D30B03C01A5241C30AE4
:100290008B4201D3CB02C01A5241830A8B4201D355
:1002A0008B02C01A5241430A8B4201D34B02C01A3F
:1002B0005241030A8B4201D30B02C01A5241CDD2E4
:1002C000C3098B4201D3CB01C01A524183098B422F
:1002D00001D38B01C01A524143098B4201D34B0118
:1002E000C01A524103098B4201D30B01C01A52417B
:1002F000C3088B4201D3CB00C01A524183088B4202
:1003000001D38B00C01A524143088B4201D34B00EA
:10031000C01A5241411A00D201465241104670475C
:100320005DE0CA0F00D04942031000D34042534061
:1003300000229C4603098B422DD3030A8B4212D321
:10034000FC22890112BA030A8B420CD38901921153
:100350008B4208D3890192118B4204D389013AD090
:10036000921100E08909C3098B4201D3CB01C01A65
:10037000524183098B4201D38B01C01A5241430978
:100380008B4201D34B01C01A524103098B4201D366
:100390000B01C01A5241C3088B4201D3CB00C01AD3
:1003A000524183088B4201D38B00C01A5241D9D2EB
:1003B00043088B4201D34B00C01A5241411A00D26C
:1003C0000146634652415B10104601D34042002B68
:1003D00000D54942704763465B1000D3404201B5E7
:1003E000002000F005F802BD0029F8D016E770479C
:1003F0007047C04610B50400094B1868FA218900FF
:10040000FFF782FE00F052FA002801D0012010BD53
:10041000013000222100404200F00EFA0020F6E7F1
:100420000000002010B5084A136840210B431360F8
:100430000020FFF7DFFF041E02D00124200010BDC2
:1004400002F0AAFBFAE7C04600200240024A136805
:10045000013313607047C04620000020014B18682C
:100460007047C0462000002070B50400FFF7F6FF7B
:100470000500631C00D00134FFF7F0FF401BA042D1
:10048000FAD370BD10B582B00400084B1868084953
:10049000FFF73AFE4443019402E0019B013B0193C4
:1004A000019B002BF9D102B010BDC0460000002016
:1004B00040420F0070B504000268916803230B40AE
:1004C000012B0DD09168184B19420ED0636D10228C
:1004D00013436365A36D0F3A1343A365012070BDF9
:1004E0001368DB07EED50020F9E7936801210B4381
:1004F00093600120FFF7C6FFFFF7B0FF05002368F8
:100500001B68DB070ED4FFF7A9FF401B0A28F6D9AA
:10051000636D102213436365A36D0F3A1343A36504
:100520000120DCE70020DAE71700008070B5041E28
:1005300000D1E0E0436D002B2ED0636DDB0631D49B
:1005400021688B6804221A402CD1636D6B480340EC
:100550000630FF3003436365886803230340012BA3
:1005600029D06368C0200006834228D08020C005BF
:10057000834224D080200006834220D00B699B0058
:100580009B080B615E4B19685E4801401960196851
:100590006068014319601BE083655022835402F0B8
:1005A00009FBCAE7636D10221343636550230022E1
:1005B000E254012070BD0B68DB0713D4D1E70B694F
:1005C0009B009B080B6121680B69606803430B610A
:1005D0002168CB6818208343CB602168CB68A06872
:1005E0000343CB60464B19684748014019601968BE
:1005F000606B40060143196023689968C90004D400
:10060000986880214905014399602168CB683F487B
:100610000340CB602068C168E3682569022D2DD0B6
:1006200013432022A25C520313432C22A25C5200EB
:100630001343226B1343A26992031343E269D2036B
:1006400013430B43C360636AC222FF32934205D057
:100650002168CA68A06A03431343CB602123E35C8B
:10066000012B0DD0E36B012B1ED023681A69D20732
:100670002DD51A6901218A431A6128E00422CFE7A7
:100680001F33E35C002B06D12268D16880235B0214
:100690000B43D360E6E7636D202213436365A36DCC
:1006A0001F3A1343A365DDE72268136918490B401D
:1006B000136121680A69236C606C0343A06C0343D7
:1006C00013430B612268136901210B4313612268F4
:1006D000536907218B43536122685369A16B0B4314
:1006E00053610023A365636D03229343023A1343CE
:1006F000636500205EE701205CE7C046FDFEFFFF6A
:1007000008270140FFFFC3FFFFFFFFFD1902FEFFA7
:1007100003FCFFFF10B5040003689B685B0723D44C
:100720005023C35C012B21D050230122C254C36942
:10073000012B14D10020636D0D4A1A4080235B0009
:10074000134363650023A3655022A3542368343AFE
:100750001A602268936804210B43936010BDFFF771
:10076000A9FE0028E7D0F9E70220F7E70220F5E725
:10077000FEF0FFFF0368186C7047000070B50400BE
:100780000D005023C35C012B4BD050230122C254D7
:1007900003689A6852071AD4234A4968914229D0BB
:1007A000996A2A685203520B0A439A622B685B03C8
:1007B00016D42B689B0305D51C4A11688023DB03E4
:1007C0000B43136050230022E254002070BD436DA0
:1007D00020221343436550230022C2540120F5E731
:1007E000124A116880231B040B4313600A20FFF791
:1007F00049FEDEE7996A2A685203520B91439962D7
:100800002B685B0304D5094A136809490B40136040
:100810002B689B03D6D5054A136806490B40136025
:10082000D0E70220D2E7C0460110000008270140AF
:10083000FFFF7FFFFFFFBFFF70B5002811DB8408BB
:10084000134DC034A400625903231840C000FC3388
:100850001E008640B24389010B408340134363511D
:1008600070BDC0B20F220240083A920806329200D0
:10087000084BD3185D6803242040C000FF221400F9
:100880008440A54389010A4082402A435A60E7E731
:1008900000E100E000ED00E01F2318401E3B834014
:1008A000014A13607047C04600E100E001380A4B7E
:1008B00098420FD8094A50600948036A1B021B0A74
:1008C000C02109060B4303620023936007331360C2
:1008D000002070470120FCE7FFFFFF0010E000E070
:1008E00000ED00E0F0B5C64600B5002338E005266F
:1008F00000E00026AE4035003D430234A400534ED4
:10090000A551534C25684246D4432E0026404A68E0
:10091000D20302D5424615432E004D4D2E606D6820
:100920002E0026404A68920302D5424615432E0007
:10093000474D6E60AD682E0026404A68D20202D54F
:10094000424615432E00424DAE60ED682C404A6889
:10095000920202D542462A4314003D4AD460013334
:100960000A681400DC406DD001249C40224090466F
:10097000F5D04D68022D01D0122D0ED1DD080835BD
:10098000AD002F5807261E40B6000F22B2409743F5
:100990000A69B24016003E432E504D686E1E012E6D
:1009A00003D9112D01D0122D12D185685F000326C5
:1009B000BE40B5432E00CD68BD40354385604568D7
:1009C000A5434A681609012434409C402C434460E6
:1009D00007685E0003242500B540ED432F404A68B8
:1009E0001440B4403C430460C46825408C68B44063
:1009F0002C43C4604A68D200B1D5164D6C6B0126F9
:100A000034436C639C08A51CAD00104EAF59032500
:100A10001D40AD000F26AE40B743A026F605B042FC
:100A200000D166E70C4EB04208D00C4EB04207D061
:100A30000B4EB04200D15AE706265BE7012659E784
:100A4000022657E704BC9046F0BDC04600000140B6
:100A50000004014000100240000400500008005053
:100A6000001C005003690B4201D100207047012097
:100A7000FCE7002A01D1816270478161FCE743698C
:100A8000594041617047000010B5054B5B69184241
:100A900000D110BD024B586101F0FEFAF9E7C046E3
:100AA00000040140034A116880235B000B4313607C
:100AB0007047C0460070004010B50C4A136803240C
:100AC000A343184310600A4A1369042003431361C7
:100AD000012908D040BF20BF20BF054A1369042167
:100AE0008B43136110BD30BFF7E7C0460070004074
:100AF00000ED00E010B5264BD9680C230B40082B05
:100B000042D00C2B11D0042B09D0214B5A68520B28
:100B100007231340013380200002984010BD1C4B76
:100B20001B68DB0632D51B48F8E78A0C0F231340FD
:100B3000194AD05C890D032211400131144BDB6846
:100B4000DB030DD4124B1B68DB0613D54201121ACE
:100B500093019B1ADB001B181802FFF7D5FADDE79B
:100B60004201121A93019B1ADB001B185802FFF76F
:100B7000CBFAD3E74201121A93019B1ADB001B1830
:100B80009802FFF7C1FAC9E70448C7E70448C5E778
:100B90000010024000093D00182E000800127A00E3
:100BA0000024F400F0B583B0041E00D165E2C44B0C
:100BB000DA680C251540DA6880267602164003684C
:100BC000DB0736D5082D2CD00C2D28D06368802269
:100BD0005202934255D0A022D202934258D0B84B31
:100BE0001A68B8490A401A601A68802149020A4006
:100BF0000192019A1A68B4490A401A606368002B8E
:100C000052D0FFF72BFC0700AD4B1B689B0310D4A1
:100C1000FFF724FCC01B6428F6D903202EE2002E27
:100C2000D4D0A74B1B689B0303D56368002B00D16E
:100C300026E223689B076CD5E3689A0605D5A04891
:100C4000026820210A4302608B43042D3CD00C2D06
:100C500038D0002B00D1AEE099490A6809208243C0
:100C600013430B60FFF7FAFB0600954B1B685B070D
:100C700000D597E0FFF7F2FB801B0228F5D903208F
:100C8000FCE18F4A116880235B020B431360B5E7D8
:100C90008B4B19688022D2020A431A60196880229D
:100CA00052020A431A60A9E7FFF7D8FB0700844BFA
:100CB0001B689B03BDD5FFF7D1FBC01B6428F6D989
:100CC0000320DBE1002EC4D17D4A1268520702D511
:100CD000002B00D1D6E17A4E72687C490A40216926
:100CE00009020A437260326809218A431343336060
:100CF000FFF700FFF26812090F231340744AD35C18
:100D0000D840744B18600020FFF774FB002800D017
:100D1000B4E12368DB062CD5002D5FD1684B1B683E
:100D20009B0503D5A369002B00D1ADE1644A53684C
:100D300069490B40216A0B43536053681B021B0A2D
:100D4000E16909060B435360236A590B0131802383
:100D50001B028B40D16809090F220A405C498A5C5A
:100D6000D3405C4A13600020FFF744FB002800D00A
:100D700084E123681B077DD56369002B67D0504A47
:100D8000136D01210B431365FFF768FB06004C4B05
:100D90001B6D9B076ED4FFF761FB801B0228F6D901
:100DA00003206BE146494B68484A1340226912020E
:100DB00013434B60ADE7424A136801218B43136034
:100DC000FFF74CFB06003E4B1B685B07A1D5FFF706
:100DD00045FB801B0228F6D903204FE1A369002BB5
:100DE00022D0374A116880235B000B431360FFF762
:100DF00035FB0600324B1B689B0506D4FFF72EFB24
:100E0000801B0228F6D9032038E12D4A5368324965
:100E10000B40216A0B43536053681B021B0AE169B4
:100E200009060B435360A4E7254A13682B490B407E
:100E30001360FFF713FB0600214B1B689B0598D539
:100E4000FFF70CFB801B0228F6D9032016E11C4A91
:100E5000136D01218B431365FFF700FB0600184B50
:100E60001B6D9B0706D5FFF7F9FA801B0228F6D900
:100E7000032003E123685B0700D48CE0104B9B6BDD
:100E8000DB001BD40E4A916B80235B050B439363FD
:100E90000126134B1B68DB0526D5A3688022520070
:100EA000934235D0002B4BD1054B1A6D0B490A40AC
:100EB0001A651A6D0B490A401A652FE00026E8E70B
:100EC00000100240FFFFFEFFFFFFFBFFFFE0FFFF00
:100ED000242E000800000020FF1FFFFFFFFEFFFF81
:100EE00000700040FFFBFFFF6B4A116880235B002E
:100EF0000B431360FFF7B2FA0700674B1B68DB0573
:100F0000CBD4FFF7ABFAC01B6428F6D90320B5E0B9
:100F1000624A116D80235B000B431365A368002BAD
:100F200028D0FFF79BFA07005C4B1B6D9B0530D464
:100F3000FFF794FAC01B5A4B9842F5D903209DE065
:100F4000A022D200934209D0544B1A6D55490A4051
:100F50001A651A6D54490A401A65DFE74F4B196D3F
:100F6000013AFF3A0A431A65196D802252000A437A
:100F70001A65D3E7FFF772FA0700484B1B6D9B0514
:100F800007D5FFF76BFAC01B454B9842F5D90320F4
:100F900074E0012E1AD0636A002B00D176E00C2D8C
:100FA0004FD0022B18D03D4A136840490B401360C4
:100FB000FFF754FA0400394B1B689B013FD5FFF73C
:100FC0004DFA001B0228F6D9032057E0334A936BF1
:100FD00037490B409363DEE7304A136833490B40CF
:100FE0001360FFF73BFA05002C4B1B689B0106D5ED
:100FF000FFF734FA401B0228F6D903203EE02749C8
:10100000CB682C4A1340A26AE06A0243206B024379
:101010001343CB600A6880235B0413430B60FFF724
:101020001DFA04001D4B1B689B0106D4FFF716FA3E
:10103000001B0228F6D9032020E000201EE000203B
:101040001CE0012B24D0154BDA6880235B0213408F
:10105000A16A8B4201D0012010E0F0239B031340D2
:10106000E16A8B4201D0012008E0C0231B041A4032
:10107000236B9A420ED0012000E0012003B0F0BDA6
:101080000120FBE70120F9E70120F7E70020F5E761
:101090000120F3E70020F1E700700040001002405B
:1010A00088130000FFFEFFFFFFFBFFFFFFFFFFFEB7
:1010B000FFFFFFEFFFFF02FF70B504000D000028E7
:1010C00000D1BAE05F4B1A68012313408B420BD268
:1010D0005C490B68012293432B430B600B681A4059
:1010E000AA4201D00120A9E023689B0706D5564AF1
:1010F000D368F0218B43A1680B43D3602368DB07DF
:1011000064D56368022B09D0032B29D0012B2DD085
:101110004D4A1268920506D401208FE04A4A1268AF
:10112000920300D48BE04849CA68032082431343EA
:10113000CB60FFF793F906006368022B1CD0032BEA
:1011400028D0012B34D0404BDB680C221A423DD012
:10115000FFF784F9801B3D4B9842F4D903206DE0E2
:10116000394A12689201DED4012067E0364A1268DB
:101170005207D8D4012061E0334BDA680C231340C6
:10118000082B23D0FFF76AF9801B304B9842F3D924
:10119000032053E02C4BDA680C2313400C2B15D0A2
:1011A000FFF75CF9801B294B9842F3D9032045E0F7
:1011B000254BDA680C231340042B07D0FFF74EF9B8
:1011C000801B224B9842F3D9032037E01D4B1A684D
:1011D00001231340AB420BD91A490B6801229343F8
:1011E0002B430B600B681A40AA4201D0012025E076
:1011F00023685B0706D5144AD36815490B40E1689C
:101200000B43D36023681B0707D50F49CB68114AEE
:1012100013402269D2001343CB60FFF76BFC0A4BEB
:10122000DA6812090F2313400B4AD35CD8400B4BEA
:1012300018600020FFF7DEF800E0012070BD0120FB
:10124000FCE7C04600200240001002408813000066
:10125000FFF8FFFFFFC7FFFF242E0008000000205B
:1012600070B5040003689B064CD55B4B9B6BDB00A1
:1012700000D571E0584A916B80235B050B43936363
:101280000125564B1B68DB0568D5534B1968C023F5
:101290009B031940626813408B4206D0C0239B0217
:1012A00011001940994200D16DE04B4B1B6DC021DC
:1012B00089020B4015D00A409A4212D023689B063F
:1012C0000FD5454B186D464A02401E6D802109031B
:1012D00031431965196D434E314019651A65C305CF
:1012E00058D46368C022920219001140914260D024
:1012F00039490B6DC02292026068024013430B65AE
:10130000012D60D023689B0706D5334AD36C0C218E
:101310008B43A1680B43D36423685B0706D52E4A31
:10132000D36C31490B40E1680B43D36423681B073E
:1013300006D5294AD36C2D490B4021690B43D36450
:1013400023681B0645D5244AD36C29490B406169A3
:101350000B43D364002070BD002592E71F4A11683B
:1013600080235B000B431360FFF778F806001B4BEC
:101370001B68DB0500D588E7FFF770F8801B642841
:10138000F5D90320E7E7144B1B689B0300D48CE7D7
:101390000120E0E7FFF762F806000F4B1B6D9B058D
:1013A0009FD4FFF75BF8801B124B9842F5D90320BE
:1013B000D1E709490A6810480240C0208003034071
:1013C00013430B6094E70A008B6B0C490B4093634B
:1013D00098E70020BFE7C0460010024000700040C0
:1013E000FFFFFCFFFFFFF7FFFFF3FFFFFFCFFFFF54
:1013F000FFFFF3FF88130000FFFFCFFFFFFFFFEFAA
:1014000070B504000268D368A0218B43D360FFF756
:1014100025F805002368DB689B0608D4FFF71EF853
:10142000401BFA239B009842F4D9032000E00020DF
:1014300070BD70B504000368DA68520601D500205B
:1014400070BD01225242DA60FFF708F805002368F8
:10145000DB685B0608D4FFF701F8401BFA239B000A
:101460009842F4D90320EBE70020E9E770B5041EA9
:1014700063D02123C35C002B40D021230222E254FD
:101480002368C8325A622368773A5A622000FFF70D
:10149000D0FF051E38D12268936829490B4093601C
:1014A00021688A68636820690343A0690343134382
:1014B0008B602368E2681A6121680B69A2681204D4
:1014C00013430B612268D36880218B43D360226869
:1014D000D36C7D398B43D3642168CB6CE26960693E
:1014E00002431343CB6423689B689B0615D523688E
:1014F000FF225A622123FE3AE2540CE020330022FC
:10150000C25401F081FBB8E72368FF225A6221230D
:10151000FB3AE2540125280070BD2000FFF770FF60
:101520000028E4D02368FF225A622123FB3AE254C8
:10153000013B0022E2540125EDE70125EBE7C0461F
:10154000BFFF8FFF002302E001330A38C0B2092831
:10155000FAD81B01DBB2184370470000F8B504004D
:101560000E002023C35C012B00D178E02023012151
:10157000C15401330131C154002A43D103689B682F
:101580005B0601D40023F3703078FFF7DBFF05041E
:101590007078FFF7D7FF00020543B078FFF7D2FF5E
:1015A0000543F078000405432368CA225A62236881
:1015B000773A5A622000FFF73CFF071E33D12368B9
:1015C000284805401D602268936827490B409360B6
:1015D00021688B68F2683069024313438B6022688C
:1015E000D36880218B43D36023689B689B0626D5F4
:1015F0002368FF225A622123FE3AE254013B002273
:10160000E2541AE003689B685B0601D40023F37080
:1016100035782D04707800020543B0780543F078E2
:1016200000040543C0E72368FF225A622123FB3AE6
:10163000E254013B0022E25401273800F8BD2000AB
:10164000FFF7DEFE0028D3D02368FF225A62212351
:10165000FB3AE254013B0022E2540127EDE7022766
:10166000EBE7C0467F7F7F00FFFFFBFF70B5040004
:101670000E002023C35C012B69D020230121C1541B
:1016800001330131C154002A06D17378D90603D53C
:1016900010218B430A337370002A31D1F078FFF7A1
:1016A00051FF05047078FFF74DFF00020543B07845
:1016B000FFF748FF05433078400305432368CA22FB
:1016C0005A622368773A5A622000FFF7B2FE061E7C
:1016D00021D123681F4805405D602268D3688021BE
:1016E0008B43D36023689B689B0620D52368FF2229
:1016F0005A622123FE3AE254013B0022E25414E0F4
:10170000F5782D04707800020543B07805433078F1
:1017100040030543D2E72368FF225A622123FB3AA4
:10172000E254013B0022E2540126300070BD20004B
:10173000FFF766FE0028D9D02368FF225A622123D2
:10174000FB3AE254013B0022E2540126EDE7022677
:10175000EBE7C0463FFFFF00020993009B185A00C9
:101760000F2318408018C0B270470000F8B50C0075
:1017700003689B6A4B6003681B695B045B0C8B60AE
:1017800003681B680E490B401E0C3F203040207040
:101790001D0A7F273D4065701F40A77040213140E2
:1017A000E170002A0AD1FFF7D7FF20702800FFF769
:1017B000D3FF60703800FFF7CFFFA0700020F8BDA6
:1017C0007F7F7F0070B50C0003685B680E490B409B
:1017D000180CE070190A1F260E4066703F251D4048
:1017E000A5705B0B07210B402370002A0AD1FFF77D
:1017F000B3FFE0703000FFF7AFFF60702800FFF725
:10180000ABFFA070002070BD3FFFFF000368802287
:10181000D205904205D0124A904202D0114A90421D
:1018200003D1702293434A6813438022D205904229
:1018300005D00B4A904202D00A4A904203D10A4A8C
:101840001340CA681343802293430A691343036019
:101850008B68C3620B688362012343617047C04693
:101860000008014000140140FFFCFFFF30B5036A8F
:10187000046A0125AC4304628469EF35AC4312016C
:1018800022430A24A34319438261016230BD000050
:1018900030B5036A1024A34303628469036A054DCB
:1018A0002C4012032243A024A3430901194382615F
:1018B000016230BDFF0FFFFF0B0081687022914372
:1018C00019430723194381607047000030B58468CD
:1018D000034D2C401B021A4311432143816030BD4C
:1018E000FF00FFFF70B5041E14D03923C35C002B2A
:1018F0000AD0392502236355211D2068FFF786FF92
:1019000001236355002070BD38330022C25401F01A
:101910008BF9EEE70120F6E70268D36801210B435B
:10192000D3600268916807230B40062B03D013682D
:1019300001210B43136000207047000010B5040024
:101940003823C35C012B66D038230122C2540133F3
:101950000132C254026893683048034093600B68B8
:10196000402B4ED015D9602B41D021D9702B2BD0D4
:1019700080229201934232D1CB684A6889682068FC
:10198000FFF7A4FF226891688023DB010B4393607B
:1019900025E0102B07D004D9202B04D0302B02D007
:1019A0001DE0002B1BD119002068FFF785FF16E012
:1019B000502B14D1CA6849682068FFF757FF50219F
:1019C0002068FFF779FF0AE0CB684A6889682068D9
:1019D000FFF77CFF2268936877210B4393603923DC
:1019E0000122E254013B0022E254002010BDCA68EB
:1019F00049682068FFF74CFF60212068FFF75CFF13
:101A0000EDE7CA6849682068FFF730FF4021206889
:101A1000FFF752FFE3E70220E8E7C0468800FFFF38
:101A2000704770477047704710B5040003681A6923
:101A300092070FD5DA6892070CD5032252421A6139
:101A40000123037603689B699B0755D0FFF7E9FFE5
:101A50000023237623681A69520712D5DA685207E1
:101A60000FD5052252421A610223237623689A6910
:101A7000C0239B001A4245D02000FFF7D2FF00236D
:101A8000237623681A69120710D5DA6812070DD574
:101A9000092252421A61042323762368DB699B07DB
:101AA00037D02000FFF7BDFF0023237623681A6993
:101AB000D20612D5DA68D2060FD5112252421A6127
:101AC000082323762368DA69C0239B001A4227D0B3
:101AD0002000FFF7A6FF0023237623681A69D207A8
:101AE00002D5DA68D20722D423681A69520602D5D1
:101AF000DA68520622D410BDFFF792FF2000FFF7EC
:101B000091FFA5E72000FFF78BFF2000FFF78AFF7A
:101B1000B5E72000FFF784FF2000FFF783FFC3E74E
:101B20002000FFF77DFF2000FFF77CFFD3E70222B4
:101B300052421A61200000F0EFFAD5E741225242EA
:101B40001A612000FFF76FFFD5E7F0B53823C35CBB
:101B5000012B1BD0382601239C468355392701339E
:101B6000C3550268546893687025AC430D682C43D4
:101B70008025AB431D004B682B4354600268936083
:101B80006346C355002383550020F0BD0220FCE7C7
:101B900010B50348FEF7BEFD024B034A1A8010BD84
:101BA0007800002074000020C409000010B5174818
:101BB000FEF7E0FD80B2164B1880164B1B8898424A
:101BC00020D90133134A1380124B1A8893009B18B3
:101BD0005A019B1858001049FEF720FB400080B2C4
:101BE0000E4B18805538FF3803011B1A98005021FE
:101BF000FEF714FB80B20A4B18803C2801D93B2227
:101C00001A8010BD013B034A1380DDE778000020F5
:101C10002400002074000020FF0F00002800002096
:101C200026000020F0B589B01422002103A801F09D
:101C3000AFF8314BD96A04221143D962D96A0A40FC
:101C40000092009ADA6A01252A43DA62DA6A2A40A7
:101C50000192019ADA6A02273A43DA62DB6A3B4070
:101C60000293029B254CA026F6050022210030009D
:101C7000FEF7FFFE002202212148FEF7FAFE039440
:101C8000049500240594069403A93000FEF72AFE6B
:101C900003971C4B0493059403A93000FEF722FE22
:101CA00018230393184B0493059503A93000FEF7FE
:101CB00019FE039704950594069403A91048FEF7AE
:101CC00011FE002200210520FEF7B6FD0520FEF7DB
:101CD000E3FD002200210620FEF7AEFD0620FEF700
:101CE000DBFD002200210720FEF7A6FD0720FEF7FE
:101CF000D3FD09B0F0BDC04600100240C16600002F
:101D0000000400500000111000002110F0B587B051
:101D100001AE14220021300001F03AF800250095B0
:101D2000144C154B2360402363603F33A360803322
:101D3000E36025616561A561E5612000FFF796FB21
:101D4000012737701E2373700A33B370F570F56086
:101D50003561002231002000FFF700FC6B461F7048
:101D60005F709F70DD70002269462000FFF77EFCE7
:101D700007B0F0BDE80200200028004030B587B071
:101D80001022002102A801F003F808220021684671
:101D900000F0FEFF0F4C8023DB0523600E4B6360D9
:101DA0000025A5600D4BE360256180236361200061
:101DB000FFF798FD80235B01029302A92000FFF743
:101DC000BDFD0095019569462000FFF7BEFE07B0F6
:101DD00030BDC046140300209F0F00003F1F0000CD
:101DE00010B582B008220021684600F0D1FF164CE1
:101DF000164B23600023E3638022D2056260A36058
:101E00000722A263063A2261E36020216254203255
:101E1000A354A362C222FF326262963AFF3AA354ED
:101E2000283A62612363A3616363E3612000FEF7E4
:101E30007DFB074B009380235B01019369462000E3
:101E4000FEF79CFC02B010BD780000200024014089
:101E50002000001410B598B0342200210BA800F027
:101E600097FF1422002106A800F092FF18220021FB
:101E7000684600F08DFF1C490A681C4C22408023F4
:101E80001B0113430B60FEF70DFE194A136D23402F
:101E9000136506230B93FA330D93FF3B0E930F3319
:101EA0000F930E3B14930024159480231B03169369
:101EB00080231B0417930BA8FEF774FE0F230693D1
:101EC0000C3B0793089409940A94012106A8FFF794
:101ED000F3F82023009380235B0201936846FFF709
:101EE000BFF918B010BDC04600700040FFE7FFFF0B
:101EF0000010024010B5FEF795FAFFF7ABFFFFF7B1
:101F000091FEFFF703FFFFF739FFFFF769FF00F0CE
:101F100095F8FFF73DFE62E0A02001220121C005F7
:101F2000FEF7A7FD3F4B1B78DBB23F4A1268934296
:101F300002D800F02FFA56E0322000F01FFB52E0EA
:101F4000A024E405002201212000FEF792FD0022DA
:101F500040212000FEF78DFD002280212000FEF7A9
:101F600088FD002202213148FEF783FD80210022F6
:101F700089002000FEF77DFD80210022C90020009D
:101F8000FEF777FD8021002289012000FEF771FD18
:101F900080210022C9012000FEF76BFD01210020F5
:101FA000FEF78AFD23E000F033FB6420FEF75CFAC5
:101FB0000134E4B2052CF6D91D4B1B78012B05D05A
:101FC000002B06D11A4B01221A7002E0184B002296
:101FD0001A70184B1878FEF747FA00F007FC164BFA
:101FE0001B78012B98D0144B1B78002BA8D0A02075
:101FF0000821C005FEF736FD0028EED10D4B1878FC
:10200000FEF732FAA0201021C005FEF72BFD0028B4
:10201000E3D1A0300821C005FEF724FD0028DCD163
:102020000024C7E70A010020EC0000200004005053
:10203000D0020020570300200C01002010B50D4BEA
:102040000C221A701B78DBB20B4A137000230B4A68
:1020500013700B4A13700B4A042111700A4A06319F
:1020600011700A4A13700A4BC8221A700948FFF708
:1020700053FC10BD10030020130300200C010020AE
:1020800011030020540300200A010020F00000206A
:10209000570300201403002010B50400022804D0C8
:1020A000082C0AD0102C1AD010BD154A1368013321
:1020B0001360144B01221A70F2E7134B00221A70BE
:1020C000124B1B78002BEDD1104B01321A70FFF729
:1020D000C1FE00230E4A13600E4A1370E2E70A4B5A
:1020E00000221A70094B1B78002BDDD1074B0232FE
:1020F0001A70FFF7AFFE074B00221A70D4E7C046F4
:10210000CC02002008010020130300200C01002055
:10211000EC0000201103002010B502688023DB05CD
:102120009A4200D010BD2B4B1B88092B02D82A4B9A
:1021300000221A70294B1968294A11600021196080
:10214000284B1B78DBB21268934225D9244B1968BF
:102150002548FDF7D9FF254B186018683C21FDF78D
:10216000D3FF234B1860234B1B78012B17D1224A36
:1021700013780133DBB213701278D2B21F4B1B7885
:10218000DBB29A420BD91B4B00221A701C4B1B78F6
:10219000DBB21C4A137002E0174B00221A70194B75
:1021A0001A78D2B2164B1B78DBB29A420DD20A4B88
:1021B0001B78002B03D00F4B1B78022BB2D1114A96
:1021C00013780133DBB21370ACE70A4B00221A70AC
:1021D000A8E7C04626000020D0020020CC02002044
:1021E000EC0000200A01002040420F0050030020B4
:1021F0000C0300200C0100201103002054030020D8
:10220000100300201303002082B0074B984200D92E
:10221000002080080190002300E00133019A9A42D7
:10222000FBD802B07047C046400D0300002206E014
:10223000054B9B186933FF33012119700132034BA1
:102240001B889342F4DC7047100100202600002018
:10225000002206E0044B9B186933FF3300211970FC
:1022600001323B2AF6DD704710010020F0B5C6466A
:1022700000B5070088461D00012307E01901C91AAF
:102280008800174909188D540133DBB2022BF5D9A8
:10229000022308E01A01D21A9100114A521841464D
:1022A00055540133DBB2062BF4D9042613E0BC00ED
:1022B000E4190A214046FDF727FFC0B22018084A5A
:1022C00033019C1BA1000C0051180D540130121950
:1022D00015540136F6B2062EE9D904BC9046F0BD7D
:1022E00010010020002304E0094A0121D1540533E4
:1022F000DBB2372BF8D9002306E0054AD2183C326E
:10230000012111700F33DBB2372BF6D97047C0466D
:102310001001002010B5062809D880001B4B1B585F
:102320009F46A02001224021C005FEF7A2FB10BD60
:10233000A02001228021C005FEF79BFBF7E70122C8
:1023400002211348FEF795FBF1E78021A02001222E
:102350008900C005FEF78DFBE9E78021A02001225E
:10236000C900C005FEF785FBE1E78021A02001221E
:102370008901C005FEF77DFBD9E78021A02001225D
:10238000C901C005FEF775FBD1E7C046B82D0008AE
:102390000004005070B5524B1B78012B04D0514AF9
:1023A00013680133136070BD00F0D8F9FFF79AFF8E
:1023B0004D4B1878C0B24D4B1978C9B24C4B1A78B6
:1023C000D2B20123FFF752FFFFF7F0FBFFF72EFF1A
:1023D000434B00221A70A024E40540212000FEF7A0
:1023E00048FB002280212000FEF743FB002202214F
:1023F0004048FEF73EFB8021002289002000FEF7C6
:1024000038FB80210022C9002000FEF732FB80212A
:10241000002289012000FEF72CFB80210022C90147
:102420002000FEF726FB3B2547E02D4B1B78012BB8
:1024300012D02C4B1868FFF7E7FE0134062C12DC93
:1024400023011B1B9A002C4B9B185B5D012BECD1CD
:102450002000FFF75FFFE8E7224B1A68013A1A6095
:102460001A68013A1A60A024E405002240212000E5
:10247000FEF7FFFA002280212000FEF7FAFA002280
:1024800002211C48FEF7F5FA802100228900200075
:10249000FEF7EFFA80210022C9002000FEF7E9FADA
:1024A0008021002289012000FEF7E3FA802100222A
:1024B000C9012000FEF7DDFA013D002D01DB0024FB
:1024C000BCE7094B1878C0B2084B1978C9B2084B61
:1024D0001A78D2B20023FFF7C9FEFFF7B9FE62E710
:1024E000080100200C0300205603002055030020A3
:1024F00012030020000400501001002010B506282F
:1025000009D880001B4B1B589F46A0200022402169
:10251000C005FEF7AEFA10BDA02000228021C00544
:10252000FEF7A7FAF7E7002202211348FEF7A1FA07
:10253000F1E78021A02000228900C005FEF799FA6A
:10254000E9E78021A0200022C900C005FEF791FA2A
:10255000E1E78021A02000228901C005FEF789FA69
:10256000D9E78021A0200022C901C005FEF781FA29
:10257000D1E7C046D42D00080004005010B5040077
:10258000FDF772FF0620FFF7C5FE2000FDF76CFF88
:102590000520FFF7BFFE2000FDF766FF0420FFF7D0
:1025A000B9FE2000FDF760FF0320FFF7B3FE062011
:1025B000FFF7A4FF2000FDF757FF0220FFF7AAFE58
:1025C0000520FFF79BFF2000FDF74EFF0120FFF7DE
:1025D000A1FE0420FFF792FF2000FDF745FF002039
:1025E000FFF798FE0320FFF789FF2000FDF73CFF6F
:1025F0000220FFF783FF2000FDF736FF0120FFF7E1
:102600007DFF2000FDF730FF0020FFF777FF10BDB2
:1026100010B5A024E40540212000FEF730FA802107
:102620002000FEF72CFA02210B48FEF728FA802141
:1026300089002000FEF723FA8021C9002000FEF760
:102640001EFA802189012000FEF719FA8021C901B4
:102650002000FEF714FA10BD0004005010B50A2146
:10266000FDF752FDC0B210BD10B504000A21FDF700
:102670004BFDC0B243011B1A9B001B1A58002018C7
:10268000C0B210BD70B50500A024E40500224021B1
:102690002000FEF7EEF9002280212000FEF7E9F984
:1026A000002202212B48FEF7E4F980210022890054
:1026B0002000FEF7DEF980210022C9002000FEF78D
:1026C000D8F98021002289012000FEF7D2F980216B
:1026D0000022C9012000FEF7CCF9092D06D8AD0073
:1026E0001D4B5B599F460020FFF714FE70BD012073
:1026F000FFF710FEFAE70020FFF70CFE0120FFF7BE
:1027000009FEF3E70220FFF705FEEFE70220FFF7DF
:1027100001FE0020FFF7FEFDE8E70220FFF7FAFDCB
:102720000120FFF7F7FDE1E70220FFF7F3FD0120AD
:10273000FFF7F0FD0020FFF7EDFDD7E70320FFF7DF
:10274000E9FDD3E70320FFF7E5FD0020FFF7E2FDF9
:10275000CCE7C04600040050F02D000870B50B4DCA
:1027600000220B492800FFF72DF80A4C0022210017
:102770002800FEF7FBFF2278074B1A706278074BA0
:102780001A70A278064B1A7070BDC046E80200208D
:10279000D4000020B802002056030020550300207A
:1027A0001203002070B50B4B1B780B4C23700B4BA6
:1027B0001B7863700A4B1B78A3700A4D00220A49EC
:1027C0002800FEF753FF002221002800FEF7C6FE76
:1027D00070BDC04656030020F400002055030020C1
:1027E00012030020E8020020D402002070B5D44B70
:1027F0001B78022B00D0C4E1A024E40500220121B3
:102800002000FEF736F9002240212000FEF731F9C2
:10281000002280212000FEF72CF900220221C94865
:10282000FEF727F98021002289002000FEF721F918
:1028300080210022C9002000FEF71BF98021002220
:1028400089012000FEF715F980210022C90120002E
:10285000FEF70FF9BC4B1878FDF706FE002406E0E2
:10286000FFF7D6FE6420FDF7FFFD0134E4B2052C2E
:10287000F6D9B34B1B78022BB9D1FFF76FFFB34CDE
:102880002078C0B2FFF7EAFE05002078C0B2FFF75B
:10289000EBFE0400AE4B01221A700BE00025AA4BA0
:1028A0001878FDF7E1FDA0201021C005FEF7DAF849
:1028B000002816D0A64B1B78012B33D1A04B1B78D8
:1028C000022B2FD12800FFF7DDFEA0200821C00534
:1028D000FEF7C8F80028E6D1002DDFD10135EDB2B2
:1028E000DDE7FFF795FE9A4B02221A70964B187897
:1028F000FDF7BAFDDEE7002C06D10134E4B2924BBD
:102900001878FDF7B1FD21E00024F8E72C008E4B8C
:102910001878FDF7A9FDA0201021C005FEF7A2F848
:1029200000281AD08A4B1B78022B43D1844B1B788A
:10293000022B3FD12000FFF7A5FEA0200821C005F3
:10294000FEF790F80028E6D1012DD4D0002DE2D179
:10295000082CDBD80134E4B2D9E7FFF759FE7C4BF1
:1029600003221A70A8002D186B00DBB2774A13708F
:1029700010780419E4B21470FFF714FF754C207836
:10298000C0B2FFF76BFE05002078C0B2FFF76CFE07
:1029900004006D4B1878FDF767FDC3E700256A4B0F
:1029A0001878FDF761FDA0201021C005FEF75AF848
:1029B000002816D0664B1B78032B28D1604B1B7860
:1029C000022B24D12800FFF75DFEA0200821C005BE
:1029D000FEF748F80028E6D1042DDFD80135EDB226
:1029E000DDE7FFF715FE5A4B04221A70564B187894
:1029F000FDF73AFDDEE70024534B1878FDF734FD70
:102A0000A0201021C005FEF72DF8002816D0504B4D
:102A10001B78042B5AD14A4B1B78022B56D120002D
:102A2000FFF730FEA0200821C005FEF71BF80028A4
:102A3000E6D1082CDFD80134E4B2DDE7FFF7E8FD8A
:102A4000434B05221A70A8002D186B00DBB2414AD7
:102A5000137010780419E4B21470FFF7A3FE3A4B18
:102A60001878FDF701FD00250024D0E7A024E40537
:102A7000002240212000FDF7FCFF002280212000E1
:102A8000FDF7F7FF002202212E48FDF7F2FF80211B
:102A9000002289002000FDF7ECFF80210022C90000
:102AA0002000FDF7E6FF8021002289012000FDF7CC
:102AB000E0FF80210022C9012000FDF7DAFFA020FD
:102AC0001021C005FDF7CEFF002847D0204B1B7812
:102AD000052B00D0CDE61A4B1B78022B00D0C8E6A0
:102AE000FFF73CFE1C4B1B78DB07BFD4A024E4059A
:102AF000012240212000FDF7BCFF0122802120009F
:102B0000FDF7B7FF012202210E48FDF7B2FF802139
:102B1000012289002000FDF7ACFF80210122C900BD
:102B20002000FDF7A6FF8021012289012000FDF78A
:102B3000A0FF80210122C9012000FDF79AFFBEE716
:102B40000C01002000040050570300205603002011
:102B5000F00000205503002012030020FFF758FD6D
:102B60000024084B1C70084B1C70FFF71BFE074B22
:102B700001221A70064B1C70064B1878FDF774FC86
:102B8000A4E770BDF0000020120300200C0100201B
:102B90001303002057030020054B5A6B01210A4301
:102BA0005A63996B802252050A439A637047C04664
:102BB0000010024010B586B004001422002101A8C4
:102BC00000F0E6F822680E4B9A4201D006B010BD24
:102BD0000C4B596B802292000A435A63D96A012236
:102BE0001143D962DB6A1A400092009B20230193B3
:102BF0001D3B0293A02001A9C005FDF773FEE5E788
:102C000000240140001002400268054B9A4200D0A7
:102C10007047044A116D8023DB020B431365F7E70D
:102C2000002800400010024010B502688023DB0538
:102C30009A4200D010BD074A936B01210B43936366
:102C4000002200210F20FDF7F7FD0F20FDF724FEE5
:102C5000F0E7C046001002407047FEE7704770473B
:102C600010B5FDF7F3FB10BD10B50220FDF70CFF0A
:102C700010BD10B50820FDF707FF10BD10B51020DE
:102C8000FDF702FF10BD000010B50248FEF7CCFEB4
:102C900010BDC04614030020104B1968802252005A
:102CA0000A431A60DA680E490A40DA601A680D4968
:102CB0000A401A609A6801218A439A601A680A4990
:102CC0000A401A60DA6809490A40DA6000221A618B
:102CD000074B802212059A607047C04600100240E0
:102CE0000C40FF88F6FFF6FEFFFFFBFFFFFF02FF31
:102CF00000ED00E00D488546002103E00C4B5B58D9
:102D0000435004310B480C4B42189A42F6D30B4AFD
:102D100002E0002313600432094B9A42F9D3FFF713
:102D2000BBFF00F011F8FFF7E5F8FEE700200020F8
:102D3000442E0008000000200400002004000020B1
:102D400094030020FEE7000070B500260C4D0D4CEA
:102D5000641BA410A64209D1002600F021F80A4DF8
:102D60000A4C641BA410A64205D170BDB300EB58F9
:102D700098470136EEE7B300EB5898470136F2E783
:102D80003C2E00083C2E00083C2E0008402E000877
:102D900003001218934200D1704719700133F9E70C
:102DA000F8B5C046F8BC08BC9E467047F8B5C046AA
:082DB000F8BC08BC9E46704708
:102DB80022230008302300083E2300084A23000885
:102DC8005A2300086A2300087A2300080A25000805
:102DD8001825000826250008322500084225000885
:102DE8005225000862250008EC260008E62600089F
:102DF800EE260008F6260008042700080C2700081D
:102E08001A270008282700083C270008442700083C
:102E1800030406080C101820300000000000000011
:102E28000000000001020304060708090000000072
:042E3800010203048C
:042E3C00E9000008A1
:042E4000C1000008C5
:042E4400000020006A
:0400000508002CF5CE
:00000001FF
